{
  "address": "0xBB380F319eEd53b5DF3c0e8114210f35D29173E2",
  "abi": [
    {
      "inputs": [
        {
          "internalType": "address",
          "name": "admin",
          "type": "address"
        },
        {
          "internalType": "contract IVotes",
          "name": "token",
          "type": "address"
        },
        {
          "internalType": "contract TimelockController",
          "name": "timelock",
          "type": "address"
        },
        {
          "internalType": "uint256",
          "name": "votingDelay",
          "type": "uint256"
        },
        {
          "internalType": "uint256",
          "name": "votingPeriod",
          "type": "uint256"
        },
        {
          "internalType": "uint256",
          "name": "proposalThreshold_",
          "type": "uint256"
        },
        {
          "internalType": "uint256",
          "name": "quorumNumerator",
          "type": "uint256"
        }
      ],
      "stateMutability": "nonpayable",
      "type": "constructor"
    },
    {
      "inputs": [],
      "name": "Empty",
      "type": "error"
    },
    {
      "anonymous": false,
      "inputs": [
        {
          "indexed": false,
          "internalType": "uint256",
          "name": "proposalId",
          "type": "uint256"
        }
      ],
      "name": "ProposalCanceled",
      "type": "event"
    },
    {
      "anonymous": false,
      "inputs": [
        {
          "indexed": false,
          "internalType": "uint256",
          "name": "proposalId",
          "type": "uint256"
        },
        {
          "indexed": false,
          "internalType": "address",
          "name": "proposer",
          "type": "address"
        },
        {
          "indexed": false,
          "internalType": "address[]",
          "name": "targets",
          "type": "address[]"
        },
        {
          "indexed": false,
          "internalType": "uint256[]",
          "name": "values",
          "type": "uint256[]"
        },
        {
          "indexed": false,
          "internalType": "string[]",
          "name": "signatures",
          "type": "string[]"
        },
        {
          "indexed": false,
          "internalType": "bytes[]",
          "name": "calldatas",
          "type": "bytes[]"
        },
        {
          "indexed": false,
          "internalType": "uint256",
          "name": "startBlock",
          "type": "uint256"
        },
        {
          "indexed": false,
          "internalType": "uint256",
          "name": "endBlock",
          "type": "uint256"
        },
        {
          "indexed": false,
          "internalType": "string",
          "name": "description",
          "type": "string"
        }
      ],
      "name": "ProposalCreated",
      "type": "event"
    },
    {
      "anonymous": false,
      "inputs": [
        {
          "indexed": false,
          "internalType": "uint256",
          "name": "proposalId",
          "type": "uint256"
        }
      ],
      "name": "ProposalExecuted",
      "type": "event"
    },
    {
      "anonymous": false,
      "inputs": [
        {
          "indexed": false,
          "internalType": "uint256",
          "name": "proposalId",
          "type": "uint256"
        },
        {
          "indexed": false,
          "internalType": "uint256",
          "name": "eta",
          "type": "uint256"
        }
      ],
      "name": "ProposalQueued",
      "type": "event"
    },
    {
      "anonymous": false,
      "inputs": [
        {
          "indexed": false,
          "internalType": "uint256",
          "name": "oldProposalThreshold",
          "type": "uint256"
        },
        {
          "indexed": false,
          "internalType": "uint256",
          "name": "newProposalThreshold",
          "type": "uint256"
        }
      ],
      "name": "ProposalThresholdSet",
      "type": "event"
    },
    {
      "anonymous": false,
      "inputs": [
        {
          "indexed": false,
          "internalType": "uint256",
          "name": "oldQuorumNumerator",
          "type": "uint256"
        },
        {
          "indexed": false,
          "internalType": "uint256",
          "name": "newQuorumNumerator",
          "type": "uint256"
        }
      ],
      "name": "QuorumNumeratorUpdated",
      "type": "event"
    },
    {
      "anonymous": false,
      "inputs": [
        {
          "indexed": true,
          "internalType": "bytes32",
          "name": "role",
          "type": "bytes32"
        },
        {
          "indexed": true,
          "internalType": "bytes32",
          "name": "previousAdminRole",
          "type": "bytes32"
        },
        {
          "indexed": true,
          "internalType": "bytes32",
          "name": "newAdminRole",
          "type": "bytes32"
        }
      ],
      "name": "RoleAdminChanged",
      "type": "event"
    },
    {
      "anonymous": false,
      "inputs": [
        {
          "indexed": true,
          "internalType": "bytes32",
          "name": "role",
          "type": "bytes32"
        },
        {
          "indexed": true,
          "internalType": "address",
          "name": "account",
          "type": "address"
        },
        {
          "indexed": true,
          "internalType": "address",
          "name": "sender",
          "type": "address"
        }
      ],
      "name": "RoleGranted",
      "type": "event"
    },
    {
      "anonymous": false,
      "inputs": [
        {
          "indexed": true,
          "internalType": "bytes32",
          "name": "role",
          "type": "bytes32"
        },
        {
          "indexed": true,
          "internalType": "address",
          "name": "account",
          "type": "address"
        },
        {
          "indexed": true,
          "internalType": "address",
          "name": "sender",
          "type": "address"
        }
      ],
      "name": "RoleRevoked",
      "type": "event"
    },
    {
      "anonymous": false,
      "inputs": [
        {
          "indexed": false,
          "internalType": "address",
          "name": "oldTimelock",
          "type": "address"
        },
        {
          "indexed": false,
          "internalType": "address",
          "name": "newTimelock",
          "type": "address"
        }
      ],
      "name": "TimelockChange",
      "type": "event"
    },
    {
      "anonymous": false,
      "inputs": [
        {
          "indexed": true,
          "internalType": "address",
          "name": "voter",
          "type": "address"
        },
        {
          "indexed": false,
          "internalType": "uint256",
          "name": "proposalId",
          "type": "uint256"
        },
        {
          "indexed": false,
          "internalType": "uint8",
          "name": "support",
          "type": "uint8"
        },
        {
          "indexed": false,
          "internalType": "uint256",
          "name": "weight",
          "type": "uint256"
        },
        {
          "indexed": false,
          "internalType": "string",
          "name": "reason",
          "type": "string"
        }
      ],
      "name": "VoteCast",
      "type": "event"
    },
    {
      "anonymous": false,
      "inputs": [
        {
          "indexed": true,
          "internalType": "address",
          "name": "voter",
          "type": "address"
        },
        {
          "indexed": false,
          "internalType": "uint256",
          "name": "proposalId",
          "type": "uint256"
        },
        {
          "indexed": false,
          "internalType": "uint8",
          "name": "support",
          "type": "uint8"
        },
        {
          "indexed": false,
          "internalType": "uint256",
          "name": "weight",
          "type": "uint256"
        },
        {
          "indexed": false,
          "internalType": "string",
          "name": "reason",
          "type": "string"
        },
        {
          "indexed": false,
          "internalType": "bytes",
          "name": "params",
          "type": "bytes"
        }
      ],
      "name": "VoteCastWithParams",
      "type": "event"
    },
    {
      "anonymous": false,
      "inputs": [
        {
          "indexed": false,
          "internalType": "uint256",
          "name": "oldVotingDelay",
          "type": "uint256"
        },
        {
          "indexed": false,
          "internalType": "uint256",
          "name": "newVotingDelay",
          "type": "uint256"
        }
      ],
      "name": "VotingDelaySet",
      "type": "event"
    },
    {
      "anonymous": false,
      "inputs": [
        {
          "indexed": false,
          "internalType": "uint256",
          "name": "oldVotingPeriod",
          "type": "uint256"
        },
        {
          "indexed": false,
          "internalType": "uint256",
          "name": "newVotingPeriod",
          "type": "uint256"
        }
      ],
      "name": "VotingPeriodSet",
      "type": "event"
    },
    {
      "inputs": [],
      "name": "BALLOT_TYPEHASH",
      "outputs": [
        {
          "internalType": "bytes32",
          "name": "",
          "type": "bytes32"
        }
      ],
      "stateMutability": "view",
      "type": "function"
    },
    {
      "inputs": [],
      "name": "COUNTING_MODE",
      "outputs": [
        {
          "internalType": "string",
          "name": "",
          "type": "string"
        }
      ],
      "stateMutability": "pure",
      "type": "function"
    },
    {
      "inputs": [],
      "name": "DEFAULT_ADMIN_ROLE",
      "outputs": [
        {
          "internalType": "bytes32",
          "name": "",
          "type": "bytes32"
        }
      ],
      "stateMutability": "view",
      "type": "function"
    },
    {
      "inputs": [],
      "name": "EXTENDED_BALLOT_TYPEHASH",
      "outputs": [
        {
          "internalType": "bytes32",
          "name": "",
          "type": "bytes32"
        }
      ],
      "stateMutability": "view",
      "type": "function"
    },
    {
      "inputs": [
        {
          "internalType": "address[]",
          "name": "targets",
          "type": "address[]"
        },
        {
          "internalType": "uint256[]",
          "name": "values",
          "type": "uint256[]"
        },
        {
          "internalType": "bytes[]",
          "name": "calldatas",
          "type": "bytes[]"
        },
        {
          "internalType": "bytes32",
          "name": "descriptionHash",
          "type": "bytes32"
        }
      ],
      "name": "cancel",
      "outputs": [
        {
          "internalType": "uint256",
          "name": "",
          "type": "uint256"
        }
      ],
      "stateMutability": "nonpayable",
      "type": "function"
    },
    {
      "inputs": [
        {
          "internalType": "uint256",
          "name": "proposalId",
          "type": "uint256"
        },
        {
          "internalType": "uint8",
          "name": "support",
          "type": "uint8"
        }
      ],
      "name": "castVote",
      "outputs": [
        {
          "internalType": "uint256",
          "name": "",
          "type": "uint256"
        }
      ],
      "stateMutability": "nonpayable",
      "type": "function"
    },
    {
      "inputs": [
        {
          "internalType": "uint256",
          "name": "proposalId",
          "type": "uint256"
        },
        {
          "internalType": "uint8",
          "name": "support",
          "type": "uint8"
        },
        {
          "internalType": "uint8",
          "name": "v",
          "type": "uint8"
        },
        {
          "internalType": "bytes32",
          "name": "r",
          "type": "bytes32"
        },
        {
          "internalType": "bytes32",
          "name": "s",
          "type": "bytes32"
        }
      ],
      "name": "castVoteBySig",
      "outputs": [
        {
          "internalType": "uint256",
          "name": "",
          "type": "uint256"
        }
      ],
      "stateMutability": "nonpayable",
      "type": "function"
    },
    {
      "inputs": [
        {
          "internalType": "uint256",
          "name": "proposalId",
          "type": "uint256"
        },
        {
          "internalType": "uint8",
          "name": "support",
          "type": "uint8"
        },
        {
          "internalType": "string",
          "name": "reason",
          "type": "string"
        }
      ],
      "name": "castVoteWithReason",
      "outputs": [
        {
          "internalType": "uint256",
          "name": "",
          "type": "uint256"
        }
      ],
      "stateMutability": "nonpayable",
      "type": "function"
    },
    {
      "inputs": [
        {
          "internalType": "uint256",
          "name": "proposalId",
          "type": "uint256"
        },
        {
          "internalType": "uint8",
          "name": "support",
          "type": "uint8"
        },
        {
          "internalType": "string",
          "name": "reason",
          "type": "string"
        },
        {
          "internalType": "bytes",
          "name": "params",
          "type": "bytes"
        }
      ],
      "name": "castVoteWithReasonAndParams",
      "outputs": [
        {
          "internalType": "uint256",
          "name": "",
          "type": "uint256"
        }
      ],
      "stateMutability": "nonpayable",
      "type": "function"
    },
    {
      "inputs": [
        {
          "internalType": "uint256",
          "name": "proposalId",
          "type": "uint256"
        },
        {
          "internalType": "uint8",
          "name": "support",
          "type": "uint8"
        },
        {
          "internalType": "string",
          "name": "reason",
          "type": "string"
        },
        {
          "internalType": "bytes",
          "name": "params",
          "type": "bytes"
        },
        {
          "internalType": "uint8",
          "name": "v",
          "type": "uint8"
        },
        {
          "internalType": "bytes32",
          "name": "r",
          "type": "bytes32"
        },
        {
          "internalType": "bytes32",
          "name": "s",
          "type": "bytes32"
        }
      ],
      "name": "castVoteWithReasonAndParamsBySig",
      "outputs": [
        {
          "internalType": "uint256",
          "name": "",
          "type": "uint256"
        }
      ],
      "stateMutability": "nonpayable",
      "type": "function"
    },
    {
      "inputs": [
        {
          "internalType": "address[]",
          "name": "targets",
          "type": "address[]"
        },
        {
          "internalType": "uint256[]",
          "name": "values",
          "type": "uint256[]"
        },
        {
          "internalType": "bytes[]",
          "name": "calldatas",
          "type": "bytes[]"
        },
        {
          "internalType": "bytes32",
          "name": "descriptionHash",
          "type": "bytes32"
        }
      ],
      "name": "execute",
      "outputs": [
        {
          "internalType": "uint256",
          "name": "",
          "type": "uint256"
        }
      ],
      "stateMutability": "payable",
      "type": "function"
    },
    {
      "inputs": [
        {
          "internalType": "bytes32",
          "name": "role",
          "type": "bytes32"
        }
      ],
      "name": "getRoleAdmin",
      "outputs": [
        {
          "internalType": "bytes32",
          "name": "",
          "type": "bytes32"
        }
      ],
      "stateMutability": "view",
      "type": "function"
    },
    {
      "inputs": [
        {
          "internalType": "address",
          "name": "account",
          "type": "address"
        },
        {
          "internalType": "uint256",
          "name": "blockNumber",
          "type": "uint256"
        }
      ],
      "name": "getVotes",
      "outputs": [
        {
          "internalType": "uint256",
          "name": "",
          "type": "uint256"
        }
      ],
      "stateMutability": "view",
      "type": "function"
    },
    {
      "inputs": [
        {
          "internalType": "address",
          "name": "account",
          "type": "address"
        },
        {
          "internalType": "uint256",
          "name": "blockNumber",
          "type": "uint256"
        },
        {
          "internalType": "bytes",
          "name": "params",
          "type": "bytes"
        }
      ],
      "name": "getVotesWithParams",
      "outputs": [
        {
          "internalType": "uint256",
          "name": "",
          "type": "uint256"
        }
      ],
      "stateMutability": "view",
      "type": "function"
    },
    {
      "inputs": [
        {
          "internalType": "bytes32",
          "name": "role",
          "type": "bytes32"
        },
        {
          "internalType": "address",
          "name": "account",
          "type": "address"
        }
      ],
      "name": "grantRole",
      "outputs": [],
      "stateMutability": "nonpayable",
      "type": "function"
    },
    {
      "inputs": [
        {
          "internalType": "bytes32",
          "name": "role",
          "type": "bytes32"
        },
        {
          "internalType": "address",
          "name": "account",
          "type": "address"
        }
      ],
      "name": "hasRole",
      "outputs": [
        {
          "internalType": "bool",
          "name": "",
          "type": "bool"
        }
      ],
      "stateMutability": "view",
      "type": "function"
    },
    {
      "inputs": [
        {
          "internalType": "uint256",
          "name": "proposalId",
          "type": "uint256"
        },
        {
          "internalType": "address",
          "name": "account",
          "type": "address"
        }
      ],
      "name": "hasVoted",
      "outputs": [
        {
          "internalType": "bool",
          "name": "",
          "type": "bool"
        }
      ],
      "stateMutability": "view",
      "type": "function"
    },
    {
      "inputs": [
        {
          "internalType": "address[]",
          "name": "targets",
          "type": "address[]"
        },
        {
          "internalType": "uint256[]",
          "name": "values",
          "type": "uint256[]"
        },
        {
          "internalType": "bytes[]",
          "name": "calldatas",
          "type": "bytes[]"
        },
        {
          "internalType": "bytes32",
          "name": "descriptionHash",
          "type": "bytes32"
        }
      ],
      "name": "hashProposal",
      "outputs": [
        {
          "internalType": "uint256",
          "name": "",
          "type": "uint256"
        }
      ],
      "stateMutability": "pure",
      "type": "function"
    },
    {
      "inputs": [],
      "name": "name",
      "outputs": [
        {
          "internalType": "string",
          "name": "",
          "type": "string"
        }
      ],
      "stateMutability": "view",
      "type": "function"
    },
    {
      "inputs": [
        {
          "internalType": "address",
          "name": "",
          "type": "address"
        },
        {
          "internalType": "address",
          "name": "",
          "type": "address"
        },
        {
          "internalType": "uint256[]",
          "name": "",
          "type": "uint256[]"
        },
        {
          "internalType": "uint256[]",
          "name": "",
          "type": "uint256[]"
        },
        {
          "internalType": "bytes",
          "name": "",
          "type": "bytes"
        }
      ],
      "name": "onERC1155BatchReceived",
      "outputs": [
        {
          "internalType": "bytes4",
          "name": "",
          "type": "bytes4"
        }
      ],
      "stateMutability": "nonpayable",
      "type": "function"
    },
    {
      "inputs": [
        {
          "internalType": "address",
          "name": "",
          "type": "address"
        },
        {
          "internalType": "address",
          "name": "",
          "type": "address"
        },
        {
          "internalType": "uint256",
          "name": "",
          "type": "uint256"
        },
        {
          "internalType": "uint256",
          "name": "",
          "type": "uint256"
        },
        {
          "internalType": "bytes",
          "name": "",
          "type": "bytes"
        }
      ],
      "name": "onERC1155Received",
      "outputs": [
        {
          "internalType": "bytes4",
          "name": "",
          "type": "bytes4"
        }
      ],
      "stateMutability": "nonpayable",
      "type": "function"
    },
    {
      "inputs": [
        {
          "internalType": "address",
          "name": "",
          "type": "address"
        },
        {
          "internalType": "address",
          "name": "",
          "type": "address"
        },
        {
          "internalType": "uint256",
          "name": "",
          "type": "uint256"
        },
        {
          "internalType": "bytes",
          "name": "",
          "type": "bytes"
        }
      ],
      "name": "onERC721Received",
      "outputs": [
        {
          "internalType": "bytes4",
          "name": "",
          "type": "bytes4"
        }
      ],
      "stateMutability": "nonpayable",
      "type": "function"
    },
    {
      "inputs": [
        {
          "internalType": "uint256",
          "name": "proposalId",
          "type": "uint256"
        }
      ],
      "name": "proposalDeadline",
      "outputs": [
        {
          "internalType": "uint256",
          "name": "",
          "type": "uint256"
        }
      ],
      "stateMutability": "view",
      "type": "function"
    },
    {
      "inputs": [
        {
          "internalType": "uint256",
          "name": "proposalId",
          "type": "uint256"
        }
      ],
      "name": "proposalEta",
      "outputs": [
        {
          "internalType": "uint256",
          "name": "",
          "type": "uint256"
        }
      ],
      "stateMutability": "view",
      "type": "function"
    },
    {
      "inputs": [
        {
          "internalType": "uint256",
          "name": "proposalId",
          "type": "uint256"
        }
      ],
      "name": "proposalSnapshot",
      "outputs": [
        {
          "internalType": "uint256",
          "name": "",
          "type": "uint256"
        }
      ],
      "stateMutability": "view",
      "type": "function"
    },
    {
      "inputs": [],
      "name": "proposalThreshold",
      "outputs": [
        {
          "internalType": "uint256",
          "name": "",
          "type": "uint256"
        }
      ],
      "stateMutability": "view",
      "type": "function"
    },
    {
      "inputs": [
        {
          "internalType": "uint256",
          "name": "proposalId",
          "type": "uint256"
        }
      ],
      "name": "proposalVotes",
      "outputs": [
        {
          "internalType": "uint256",
          "name": "againstVotes",
          "type": "uint256"
        },
        {
          "internalType": "uint256",
          "name": "forVotes",
          "type": "uint256"
        },
        {
          "internalType": "uint256",
          "name": "abstainVotes",
          "type": "uint256"
        }
      ],
      "stateMutability": "view",
      "type": "function"
    },
    {
      "inputs": [
        {
          "internalType": "address[]",
          "name": "targets",
          "type": "address[]"
        },
        {
          "internalType": "uint256[]",
          "name": "values",
          "type": "uint256[]"
        },
        {
          "internalType": "bytes[]",
          "name": "calldatas",
          "type": "bytes[]"
        },
        {
          "internalType": "string",
          "name": "description",
          "type": "string"
        }
      ],
      "name": "propose",
      "outputs": [
        {
          "internalType": "uint256",
          "name": "",
          "type": "uint256"
        }
      ],
      "stateMutability": "nonpayable",
      "type": "function"
    },
    {
      "inputs": [
        {
          "internalType": "address[]",
          "name": "targets",
          "type": "address[]"
        },
        {
          "internalType": "uint256[]",
          "name": "values",
          "type": "uint256[]"
        },
        {
          "internalType": "bytes[]",
          "name": "calldatas",
          "type": "bytes[]"
        },
        {
          "internalType": "bytes32",
          "name": "descriptionHash",
          "type": "bytes32"
        }
      ],
      "name": "queue",
      "outputs": [
        {
          "internalType": "uint256",
          "name": "",
          "type": "uint256"
        }
      ],
      "stateMutability": "nonpayable",
      "type": "function"
    },
    {
      "inputs": [
        {
          "internalType": "uint256",
          "name": "blockNumber",
          "type": "uint256"
        }
      ],
      "name": "quorum",
      "outputs": [
        {
          "internalType": "uint256",
          "name": "",
          "type": "uint256"
        }
      ],
      "stateMutability": "view",
      "type": "function"
    },
    {
      "inputs": [],
      "name": "quorumDenominator",
      "outputs": [
        {
          "internalType": "uint256",
          "name": "",
          "type": "uint256"
        }
      ],
      "stateMutability": "view",
      "type": "function"
    },
    {
      "inputs": [],
      "name": "quorumNumerator",
      "outputs": [
        {
          "internalType": "uint256",
          "name": "",
          "type": "uint256"
        }
      ],
      "stateMutability": "view",
      "type": "function"
    },
    {
      "inputs": [
        {
          "internalType": "address",
          "name": "target",
          "type": "address"
        },
        {
          "internalType": "uint256",
          "name": "value",
          "type": "uint256"
        },
        {
          "internalType": "bytes",
          "name": "data",
          "type": "bytes"
        }
      ],
      "name": "relay",
      "outputs": [],
      "stateMutability": "nonpayable",
      "type": "function"
    },
    {
      "inputs": [
        {
          "internalType": "bytes32",
          "name": "role",
          "type": "bytes32"
        },
        {
          "internalType": "address",
          "name": "account",
          "type": "address"
        }
      ],
      "name": "renounceRole",
      "outputs": [],
      "stateMutability": "nonpayable",
      "type": "function"
    },
    {
      "inputs": [
        {
          "internalType": "bytes32",
          "name": "role",
          "type": "bytes32"
        },
        {
          "internalType": "address",
          "name": "account",
          "type": "address"
        }
      ],
      "name": "revokeRole",
      "outputs": [],
      "stateMutability": "nonpayable",
      "type": "function"
    },
    {
      "inputs": [
        {
          "internalType": "uint256",
          "name": "newProposalThreshold",
          "type": "uint256"
        }
      ],
      "name": "setProposalThreshold",
      "outputs": [],
      "stateMutability": "nonpayable",
      "type": "function"
    },
    {
      "inputs": [
        {
          "internalType": "uint256",
          "name": "newVotingDelay",
          "type": "uint256"
        }
      ],
      "name": "setVotingDelay",
      "outputs": [],
      "stateMutability": "nonpayable",
      "type": "function"
    },
    {
      "inputs": [
        {
          "internalType": "uint256",
          "name": "newVotingPeriod",
          "type": "uint256"
        }
      ],
      "name": "setVotingPeriod",
      "outputs": [],
      "stateMutability": "nonpayable",
      "type": "function"
    },
    {
      "inputs": [
        {
          "internalType": "uint256",
          "name": "proposalId",
          "type": "uint256"
        }
      ],
      "name": "state",
      "outputs": [
        {
          "internalType": "enum IGovernor.ProposalState",
          "name": "",
          "type": "uint8"
        }
      ],
      "stateMutability": "view",
      "type": "function"
    },
    {
      "inputs": [
        {
          "internalType": "bytes4",
          "name": "interfaceId",
          "type": "bytes4"
        }
      ],
      "name": "supportsInterface",
      "outputs": [
        {
          "internalType": "bool",
          "name": "",
          "type": "bool"
        }
      ],
      "stateMutability": "view",
      "type": "function"
    },
    {
      "inputs": [],
      "name": "timelock",
      "outputs": [
        {
          "internalType": "address",
          "name": "",
          "type": "address"
        }
      ],
      "stateMutability": "view",
      "type": "function"
    },
    {
      "inputs": [],
      "name": "token",
      "outputs": [
        {
          "internalType": "contract IVotes",
          "name": "",
          "type": "address"
        }
      ],
      "stateMutability": "view",
      "type": "function"
    },
    {
      "inputs": [
        {
          "internalType": "uint256",
          "name": "newQuorumNumerator",
          "type": "uint256"
        }
      ],
      "name": "updateQuorumNumerator",
      "outputs": [],
      "stateMutability": "nonpayable",
      "type": "function"
    },
    {
      "inputs": [
        {
          "internalType": "contract TimelockController",
          "name": "newTimelock",
          "type": "address"
        }
      ],
      "name": "updateTimelock",
      "outputs": [],
      "stateMutability": "nonpayable",
      "type": "function"
    },
    {
      "inputs": [],
      "name": "version",
      "outputs": [
        {
          "internalType": "string",
          "name": "",
          "type": "string"
        }
      ],
      "stateMutability": "view",
      "type": "function"
    },
    {
      "inputs": [],
      "name": "votingDelay",
      "outputs": [
        {
          "internalType": "uint256",
          "name": "",
          "type": "uint256"
        }
      ],
      "stateMutability": "view",
      "type": "function"
    },
    {
      "inputs": [],
      "name": "votingPeriod",
      "outputs": [
        {
          "internalType": "uint256",
          "name": "",
          "type": "uint256"
        }
      ],
      "stateMutability": "view",
      "type": "function"
    },
    {
      "stateMutability": "payable",
      "type": "receive"
    }
  ],
  "transactionHash": "0x3716801579d04e4c19c041a25a801d5e3542d481f72099d87d08f0d9f4c0ef59",
  "args": [
    "0x90bC78b839fCC1c652CCF8d6A527687AE432A3Bc",
    "0xCd80B5bd5e183319a386CB76aEEEb0F1f70F7d12",
    "0xbCAfBA20FfF6157247Fed450BA45776594587fe0",
    0,
    25,
    0,
    51
  ],
  "numDeployments": 2,
  "solcInputHash": "611259dc0a8218ac4d79b1bcf36c318d",
  "bytecode": "0x6101606040523480156200001257600080fd5b50604051620045bb380380620045bb83398101604081905262000035916200055e565b8481878686866040518060400160405280600681526020016541726d61646160d01b815250806200006b6200018760201b60201c565b815160208084019190912082518383012060e08290526101008190524660a0818152604080517f8b73c3c69bb8fe3d512ecc4cf759cc79239f7b179b0ffacaa9a75d522b39400f81880181905281830187905260608201869052608082019490945230818401528151808203909301835260c00190528051940193909320919290916080523060c05261012052505082516200011192506001915060208401906200049f565b506200011f905083620001a2565b6200012a82620001e3565b62000135816200028a565b5050506001600160a01b0316610140526200015081620002cb565b506200015c8162000395565b506001600160a01b038716156200017a576200017a600088620003fe565b5050505050505062000616565b6040805180820190915260018152603160f81b602082015290565b60055460408051918252602082018390527fc565b045403dc03c2eea82b81a0465edad9e2e7fc4d97e11421c209da93d7a93910160405180910390a1600555565b60008111620002495760405162461bcd60e51b815260206004820152602760248201527f476f7665726e6f7253657474696e67733a20766f74696e6720706572696f6420604482015266746f6f206c6f7760c81b60648201526084015b60405180910390fd5b60065460408051918252602082018390527f7e3f7f0708a84de9203036abaa450dccc85ad5ff52f78c170f3edb55cf5e8828910160405180910390a1600655565b60075460408051918252602082018390527fccb45da8d5717e6c4544694297c4ba5cf151d455c9bb0ed4fc7a38411bc05461910160405180910390a1600755565b6064811115620003505760405162461bcd60e51b815260206004820152604360248201527f476f7665726e6f72566f74657351756f72756d4672616374696f6e3a2071756f60448201527f72756d4e756d657261746f72206f7665722071756f72756d44656e6f6d696e616064820152623a37b960e91b608482015260a40162000240565b600980549082905560408051828152602081018490527f0553476bf02ef2726e8ce5ced78d63e26e602e4a2257b1f559418e24b4633997910160405180910390a15050565b600a54604080516001600160a01b03928316815291831660208301527f08f74ea46ef7894f65eabfb5e6e695de773a000b47c529ab559178069b226401910160405180910390a1600a80546001600160a01b0319166001600160a01b0392909216919091179055565b6000828152602081815260408083206001600160a01b038516845290915290205460ff166200049b576000828152602081815260408083206001600160a01b03851684529091529020805460ff191660011790556200045a3390565b6001600160a01b0316816001600160a01b0316837f2f8788117e7eff1d82e926ec794901d17c78024a50270940304540a733656f0d60405160405180910390a45b5050565b828054620004ad90620005d9565b90600052602060002090601f016020900481019282620004d157600085556200051c565b82601f10620004ec57805160ff19168380011785556200051c565b828001600101855582156200051c579182015b828111156200051c578251825591602001919060010190620004ff565b506200052a9291506200052e565b5090565b5b808211156200052a57600081556001016200052f565b6001600160a01b03811681146200055b57600080fd5b50565b600080600080600080600060e0888a0312156200057a57600080fd5b8751620005878162000545565b60208901519097506200059a8162000545565b6040890151909650620005ad8162000545565b80955050606088015193506080880151925060a0880151915060c0880151905092959891949750929550565b600181811c90821680620005ee57607f821691505b602082108114156200061057634e487b7160e01b600052602260045260246000fd5b50919050565b60805160a05160c05160e051610100516101205161014051613f3c6200067f60003960008181610979015281816118b601526120d8015260006123aa015260006123f9015260006123d40152600061232d01526000612357015260006123810152613f3c6000f3fe60806040526004361061028c5760003560e01c80637b3c71d31161015a578063c28bc2fa116100c1578063ea0217cf1161007a578063ea0217cf146108bb578063eb9019d4146108db578063ece40cc1146108fb578063f23a6e611461091b578063f8ce560a14610947578063fc0c546a1461096757600080fd5b8063c28bc2fa146107af578063c59057e4146107cf578063d33219b4146107ef578063d547741f14610821578063dd4e2ba514610841578063deaaa7cc1461088757600080fd5b8063a7713a7011610113578063a7713a70146106f9578063a890c9101461070e578063ab58fb8e1461072e578063b58131b01461074e578063bc197c8114610763578063c01f9e371461078f57600080fd5b80637b3c71d3146106505780637d5e81e21461067057806391d148541461069057806397c3d334146106b05780639a802a6d146106c4578063a217fddf146106e457600080fd5b80632fe3e261116101fe578063452115d6116101b7578063452115d614610551578063544ffc9c1461057157806354fd4d50146105c657806356781388146105f05780635f398a141461061057806370b0f6601461063057600080fd5b80632fe3e2611461045157806336568abe146104855780633932abb1146104a55780633bccf4fd146104ba5780633e4f49e6146104da578063438596321461050757600080fd5b8063150b7a0211610250578063150b7a021461036a578063160cbed7146103ae578063248a9ca3146103ce5780632656227d146103fe5780632d63f693146104115780632f2ff15d1461043157600080fd5b806301ffc9a7146102b457806302a251a3146102e9578063034201811461030857806306f3f9e61461032857806306fdde031461034857600080fd5b366102af573061029a61099b565b6001600160a01b0316146102ad57600080fd5b005b600080fd5b3480156102c057600080fd5b506102d46102cf366004612fb3565b6109b4565b60405190151581526020015b60405180910390f35b3480156102f557600080fd5b506006545b6040519081526020016102e0565b34801561031457600080fd5b506102fa6103233660046130f8565b6109c5565b34801561033457600080fd5b506102ad61034336600461319e565b610abd565b34801561035457600080fd5b5061035d610b55565b6040516102e09190613213565b34801561037657600080fd5b5061039561038536600461323b565b630a85bd0160e11b949350505050565b6040516001600160e01b031990911681526020016102e0565b3480156103ba57600080fd5b506102fa6103c9366004613417565b610be7565b3480156103da57600080fd5b506102fa6103e936600461319e565b60009081526020819052604090206001015490565b6102fa61040c366004613417565b610e06565b34801561041d57600080fd5b506102fa61042c36600461319e565b610ef8565b34801561043d57600080fd5b506102ad61044c3660046134a6565b610f2f565b34801561045d57600080fd5b506102fa7fb3b3f3b703cd84ce352197dcff232b1b5d3cfb2025ce47cf04742d0651f1af8881565b34801561049157600080fd5b506102ad6104a03660046134a6565b610f59565b3480156104b157600080fd5b506005546102fa565b3480156104c657600080fd5b506102fa6104d53660046134d6565b610fd7565b3480156104e657600080fd5b506104fa6104f536600461319e565b61104d565b6040516102e0919061353a565b34801561051357600080fd5b506102d46105223660046134a6565b60008281526008602090815260408083206001600160a01b038516845260030190915290205460ff1692915050565b34801561055d57600080fd5b506102fa61056c366004613417565b611058565b34801561057d57600080fd5b506105ab61058c36600461319e565b6000908152600860205260409020805460018201546002909201549092565b604080519384526020840192909252908201526060016102e0565b3480156105d257600080fd5b506040805180820190915260018152603160f81b602082015261035d565b3480156105fc57600080fd5b506102fa61060b366004613562565b61107a565b34801561061c57600080fd5b506102fa61062b36600461358e565b6110a3565b34801561063c57600080fd5b506102ad61064b36600461319e565b6110ed565b34801561065c57600080fd5b506102fa61066b366004613611565b611179565b34801561067c57600080fd5b506102fa61068b36600461366a565b6111c1565b34801561069c57600080fd5b506102d46106ab3660046134a6565b611486565b3480156106bc57600080fd5b5060646102fa565b3480156106d057600080fd5b506102fa6106df36600461371e565b6114af565b3480156106f057600080fd5b506102fa600081565b34801561070557600080fd5b506009546102fa565b34801561071a57600080fd5b506102ad610729366004613776565b6114c6565b34801561073a57600080fd5b506102fa61074936600461319e565b611552565b34801561075a57600080fd5b506102fa6115fb565b34801561076f57600080fd5b5061039561077e366004613793565b63bc197c8160e01b95945050505050565b34801561079b57600080fd5b506102fa6107aa36600461319e565b611606565b3480156107bb57600080fd5b506102ad6107ca366004613826565b611635565b3480156107db57600080fd5b506102fa6107ea366004613417565b611701565b3480156107fb57600080fd5b50600a546001600160a01b03165b6040516001600160a01b0390911681526020016102e0565b34801561082d57600080fd5b506102ad61083c3660046134a6565b61173b565b34801561084d57600080fd5b506040805180820190915260208082527f737570706f72743d627261766f2671756f72756d3d666f722c6162737461696e9082015261035d565b34801561089357600080fd5b506102fa7f150214d74d59b7d1e90c73fc22ef3d991dd0a76b046543d4d80ab92d2a50328f81565b3480156108c757600080fd5b506102ad6108d636600461319e565b611760565b3480156108e757600080fd5b506102fa6108f6366004613869565b6117ec565b34801561090757600080fd5b506102ad61091636600461319e565b61180d565b34801561092757600080fd5b50610395610936366004613895565b63f23a6e6160e01b95945050505050565b34801561095357600080fd5b506102fa61096236600461319e565b611899565b34801561097357600080fd5b506108097f000000000000000000000000000000000000000000000000000000000000000081565b60006109af600a546001600160a01b031690565b905090565b60006109bf8261194c565b92915050565b600080610a69610a617fb3b3f3b703cd84ce352197dcff232b1b5d3cfb2025ce47cf04742d0651f1af888c8c8c8c604051610a019291906138fd565b60405180910390208b80519060200120604051602001610a46959493929190948552602085019390935260ff9190911660408401526060830152608082015260a00190565b60405160208183030381529060405280519060200120611971565b8686866119bf565b9050610aaf8a828b8b8b8080601f0160208091040260200160405190810160405280939291908181526020018383808284376000920191909152508d92506119dd915050565b9a9950505050505050505050565b610ac561099b565b6001600160a01b0316336001600160a01b031614610afe5760405162461bcd60e51b8152600401610af59061390d565b60405180910390fd5b30610b0761099b565b6001600160a01b031614610b495760008036604051610b279291906138fd565b604051809103902090505b80610b3d6003611b3e565b14610b4757610b32565b505b610b5281611bbd565b50565b606060018054610b6490613944565b80601f0160208091040260200160405190810160405280929190818152602001828054610b9090613944565b8015610bdd5780601f10610bb257610100808354040283529160200191610bdd565b820191906000526020600020905b815481529060010190602001808311610bc057829003601f168201915b5050505050905090565b600080610bf686868686611701565b90506004610c038261104d565b6007811115610c1457610c14613524565b14610c315760405162461bcd60e51b8152600401610af59061397f565b600a546040805163793d064960e11b815290516000926001600160a01b03169163f27a0c92916004808301926020929190829003018186803b158015610c7657600080fd5b505afa158015610c8a573d6000803e3d6000fd5b505050506040513d601f19601f82011682018060405250810190610cae91906139c0565b600a5460405163b1c5f42760e01b81529192506001600160a01b03169063b1c5f42790610ce8908a908a908a906000908b90600401613aa2565b60206040518083038186803b158015610d0057600080fd5b505afa158015610d14573d6000803e3d6000fd5b505050506040513d601f19601f82011682018060405250810190610d3891906139c0565b6000838152600b602052604080822092909255600a5491516308f2a0bb60e41b81526001600160a01b0390921691638f2a0bb091610d83918b918b918b91908b908990600401613af0565b600060405180830381600087803b158015610d9d57600080fd5b505af1158015610db1573d6000803e3d6000fd5b505050507f9a2e42fd6722813d69113e7d0079d3d940171428df7373df9c7f7617cfda2892828242610de39190613b5e565b604080519283526020830191909152015b60405180910390a15095945050505050565b600080610e1586868686611701565b90506000610e228261104d565b90506004816007811115610e3857610e38613524565b1480610e5557506005816007811115610e5357610e53613524565b145b610e715760405162461bcd60e51b8152600401610af59061397f565b60008281526002602081905260409182902001805460ff19166001179055517f712ae1383f79ac853f8d882153778e0260ef8f03b504e2866e0593e04d2b291f90610ebf9084815260200190565b60405180910390a1610ed48288888888611c85565b610ee18288888888611d27565b610eee8288888888611d34565b5095945050505050565b60008181526002602090815260408083208151928301909152546001600160401b0316908190525b6001600160401b031692915050565b600082815260208190526040902060010154610f4a81611d6d565b610f548383611d77565b505050565b6001600160a01b0381163314610fc95760405162461bcd60e51b815260206004820152602f60248201527f416363657373436f6e74726f6c3a2063616e206f6e6c792072656e6f756e636560448201526e103937b632b9903337b91039b2b63360891b6064820152608401610af5565b610fd38282611dfb565b5050565b604080517f150214d74d59b7d1e90c73fc22ef3d991dd0a76b046543d4d80ab92d2a50328f602082015290810186905260ff85166060820152600090819061102590610a6190608001610a46565b905061104287828860405180602001604052806000815250611e60565b979650505050505050565b60006109bf82611e8c565b60008061106481611d6d565b61107086868686611ff4565b9695505050505050565b60008033905061109b84828560405180602001604052806000815250611e60565b949350505050565b60008033905061104287828888888080601f0160208091040260200160405190810160405280939291908181526020018383808284376000920191909152508a92506119dd915050565b6110f561099b565b6001600160a01b0316336001600160a01b0316146111255760405162461bcd60e51b8152600401610af59061390d565b3061112e61099b565b6001600160a01b031614611170576000803660405161114e9291906138fd565b604051809103902090505b806111646003611b3e565b1461116e57611159565b505b610b5281612002565b60008033905061107086828787878080601f016020809104026020016040519081016040528093929190818152602001838380828437600092019190915250611e6092505050565b60006111cb6115fb565b6111da336108f6600143613b76565b10156112425760405162461bcd60e51b815260206004820152603160248201527f476f7665726e6f723a2070726f706f73657220766f7465732062656c6f7720706044820152701c9bdc1bdcd85b081d1a1c995cda1bdb19607a1b6064820152608401610af5565b60006112578686868680519060200120611701565b9050845186511461127a5760405162461bcd60e51b8152600401610af590613b8d565b835186511461129b5760405162461bcd60e51b8152600401610af590613b8d565b60008651116112ec5760405162461bcd60e51b815260206004820152601860248201527f476f7665726e6f723a20656d7074792070726f706f73616c00000000000000006044820152606401610af5565b600081815260026020908152604091829020825191820190925281546001600160401b0316908190521561136c5760405162461bcd60e51b815260206004820152602160248201527f476f7665726e6f723a2070726f706f73616c20616c72656164792065786973746044820152607360f81b6064820152608401610af5565b600061137f61137a60055490565b612043565b61138843612043565b6113929190613bce565b905060006113a261137a60065490565b6113ac9083613bce565b835467ffffffffffffffff19166001600160401b038416178455905060018301805467ffffffffffffffff19166001600160401b0383161790557f7d84a6263ae0d98d3329bd7b46bb4e8d6f98cd35a7adb45c274c8b7fd5ebd5e084338b8b8d516001600160401b038111156114245761142461303b565b60405190808252806020026020018201604052801561145757816020015b60608152602001906001900390816114425790505b508c88888e60405161147199989796959493929190613bf9565b60405180910390a15091979650505050505050565b6000918252602082815260408084206001600160a01b0393909316845291905290205460ff1690565b60006114bc8484846120af565b90505b9392505050565b6114ce61099b565b6001600160a01b0316336001600160a01b0316146114fe5760405162461bcd60e51b8152600401610af59061390d565b3061150761099b565b6001600160a01b03161461154957600080366040516115279291906138fd565b604051809103902090505b8061153d6003611b3e565b1461154757611532565b505b610b5281612154565b600a546000828152600b602052604080822054905163d45c443560e01b81526004810191909152909182916001600160a01b039091169063d45c44359060240160206040518083038186803b1580156115aa57600080fd5b505afa1580156115be573d6000803e3d6000fd5b505050506040513d601f19601f820116820180604052508101906115e291906139c0565b9050806001146115f257806114bf565b60009392505050565b60006109af60075490565b60008181526002602090815260408083208151928301909152600101546001600160401b031690819052610f20565b61163d61099b565b6001600160a01b0316336001600160a01b03161461166d5760405162461bcd60e51b8152600401610af59061390d565b3061167661099b565b6001600160a01b0316146116b857600080366040516116969291906138fd565b604051809103902090505b806116ac6003611b3e565b146116b6576116a1565b505b6116fa8483838080601f0160208091040260200160405190810160405280939291908181526020018383808284376000920191909152508892506121bd915050565b5050505050565b60008484848460405160200161171a9493929190613ce8565b60408051601f19818403018152919052805160209091012095945050505050565b60008281526020819052604090206001015461175681611d6d565b610f548383611dfb565b61176861099b565b6001600160a01b0316336001600160a01b0316146117985760405162461bcd60e51b8152600401610af59061390d565b306117a161099b565b6001600160a01b0316146117e357600080366040516117c19291906138fd565b604051809103902090505b806117d76003611b3e565b146117e1576117cc565b505b610b52816121e3565b60006114bf838361180860408051602081019091526000815290565b6120af565b61181561099b565b6001600160a01b0316336001600160a01b0316146118455760405162461bcd60e51b8152600401610af59061390d565b3061184e61099b565b6001600160a01b031614611890576000803660405161186e9291906138fd565b604051809103902090505b806118846003611b3e565b1461188e57611879565b505b610b5281612284565b60006064600954604051632394e7a360e21b8152600481018590527f00000000000000000000000000000000000000000000000000000000000000006001600160a01b031690638e539e8c9060240160206040518083038186803b15801561190057600080fd5b505afa158015611914573d6000803e3d6000fd5b505050506040513d601f19601f8201168201806040525081019061193891906139c0565b6119429190613d33565b6109bf9190613d52565b60006001600160e01b03198216636e665ced60e01b14806109bf57506109bf826122c5565b60006109bf61197e612320565b8360405161190160f01b6020820152602281018390526042810182905260009060620160405160208183030381529060405280519060200120905092915050565b60008060006119d087878787612447565b91509150610eee81612534565b600085815260026020526040812060016119f68861104d565b6007811115611a0757611a07613524565b14611a605760405162461bcd60e51b815260206004820152602360248201527f476f7665726e6f723a20766f7465206e6f742063757272656e746c792061637460448201526269766560e81b6064820152608401610af5565b604080516020810190915281546001600160401b031690819052600090611a89908890866120af565b9050611a9888888884886126ef565b8351611aea57866001600160a01b03167fb8e138887d0aa13bab447e82de9d5c1777041ecd21ca36ba824ff1e6c07ddda489888489604051611add9493929190613d74565b60405180910390a2611042565b866001600160a01b03167fe2babfbac5889a709b63bb7f598b324e08bc5a4fb9ec647fb3cbc9ec07eb87128988848989604051611b2b959493929190613d9c565b60405180910390a2979650505050505050565b6000611b598254600f81810b600160801b909204900b131590565b15611b7757604051631ed9509560e11b815260040160405180910390fd5b508054600f0b6000818152600180840160205260408220805492905583546fffffffffffffffffffffffffffffffff191692016001600160801b03169190911790915590565b6064811115611c405760405162461bcd60e51b815260206004820152604360248201527f476f7665726e6f72566f74657351756f72756d4672616374696f6e3a2071756f60448201527f72756d4e756d657261746f72206f7665722071756f72756d44656e6f6d696e616064820152623a37b960e91b608482015260a401610af5565b600980549082905560408051828152602081018490527f0553476bf02ef2726e8ce5ced78d63e26e602e4a2257b1f559418e24b4633997910160405180910390a15050565b30611c8e61099b565b6001600160a01b0316146116fa5760005b8451811015611d1f57306001600160a01b0316858281518110611cc457611cc4613de2565b60200260200101516001600160a01b03161415611d0f57611d0f838281518110611cf057611cf0613de2565b602002602001015180519060200120600361286e90919063ffffffff16565b611d1881613df8565b9050611c9f565b505050505050565b6116fa85858585856128aa565b30611d3d61099b565b6001600160a01b0316146116fa57600354600f81810b600160801b909204900b13156116fa5760006003556116fa565b610b52813361291e565b611d818282611486565b610fd3576000828152602081815260408083206001600160a01b03851684529091529020805460ff19166001179055611db73390565b6001600160a01b0316816001600160a01b0316837f2f8788117e7eff1d82e926ec794901d17c78024a50270940304540a733656f0d60405160405180910390a45050565b611e058282611486565b15610fd3576000828152602081815260408083206001600160a01b0385168085529252808320805460ff1916905551339285917ff6391f5c32d9c69d2a47ea670b442974b53935d1edc7fd64eb21e047a839171b9190a45050565b6000611e8385858585611e7e60408051602081019091526000815290565b6119dd565b95945050505050565b600080611e9883612982565b90506004816007811115611eae57611eae613524565b14611eb95792915050565b6000838152600b602052604090205480611ed4575092915050565b600a54604051632ab0f52960e01b8152600481018390526001600160a01b0390911690632ab0f5299060240160206040518083038186803b158015611f1857600080fd5b505afa158015611f2c573d6000803e3d6000fd5b505050506040513d601f19601f82011682018060405250810190611f509190613e13565b15611f5f575060079392505050565b600a54604051632c258a9f60e11b8152600481018390526001600160a01b039091169063584b153e9060240160206040518083038186803b158015611fa357600080fd5b505afa158015611fb7573d6000803e3d6000fd5b505050506040513d601f19601f82011682018060405250810190611fdb9190613e13565b15611fea575060059392505050565b5060029392505050565b6000611e8385858585612a8f565b60055460408051918252602082018390527fc565b045403dc03c2eea82b81a0465edad9e2e7fc4d97e11421c209da93d7a93910160405180910390a1600555565b60006001600160401b038211156120ab5760405162461bcd60e51b815260206004820152602660248201527f53616665436173743a2076616c756520646f65736e27742066697420696e203660448201526534206269747360d01b6064820152608401610af5565b5090565b604051630748d63560e31b81526001600160a01b038481166004830152602482018490526000917f000000000000000000000000000000000000000000000000000000000000000090911690633a46b1a89060440160206040518083038186803b15801561211c57600080fd5b505afa158015612130573d6000803e3d6000fd5b505050506040513d601f19601f820116820180604052508101906114bc91906139c0565b600a54604080516001600160a01b03928316815291831660208301527f08f74ea46ef7894f65eabfb5e6e695de773a000b47c529ab559178069b226401910160405180910390a1600a80546001600160a01b0319166001600160a01b0392909216919091179055565b60606114bc848484604051806060016040528060298152602001613ede60299139612b41565b600081116122435760405162461bcd60e51b815260206004820152602760248201527f476f7665726e6f7253657474696e67733a20766f74696e6720706572696f6420604482015266746f6f206c6f7760c81b6064820152608401610af5565b60065460408051918252602082018390527f7e3f7f0708a84de9203036abaa450dccc85ad5ff52f78c170f3edb55cf5e8828910160405180910390a1600655565b60075460408051918252602082018390527fccb45da8d5717e6c4544694297c4ba5cf151d455c9bb0ed4fc7a38411bc05461910160405180910390a1600755565b60006001600160e01b0319821663bf26d89760e01b14806122f657506001600160e01b031982166379dd796f60e01b145b8061231157506001600160e01b03198216630271189760e51b145b806109bf57506109bf82612c67565b6000306001600160a01b037f00000000000000000000000000000000000000000000000000000000000000001614801561237957507f000000000000000000000000000000000000000000000000000000000000000046145b156123a357507f000000000000000000000000000000000000000000000000000000000000000090565b50604080517f00000000000000000000000000000000000000000000000000000000000000006020808301919091527f0000000000000000000000000000000000000000000000000000000000000000828401527f000000000000000000000000000000000000000000000000000000000000000060608301524660808301523060a0808401919091528351808403909101815260c0909201909252805191012090565b6000807f7fffffffffffffffffffffffffffffff5d576e7357a4501ddfe92f46681b20a083111561247e575060009050600361252b565b8460ff16601b1415801561249657508460ff16601c14155b156124a7575060009050600461252b565b6040805160008082526020820180845289905260ff881692820192909252606081018690526080810185905260019060a0016020604051602081039080840390855afa1580156124fb573d6000803e3d6000fd5b5050604051601f1901519150506001600160a01b0381166125245760006001925092505061252b565b9150600090505b94509492505050565b600081600481111561254857612548613524565b14156125515750565b600181600481111561256557612565613524565b14156125b35760405162461bcd60e51b815260206004820152601860248201527f45434453413a20696e76616c6964207369676e617475726500000000000000006044820152606401610af5565b60028160048111156125c7576125c7613524565b14156126155760405162461bcd60e51b815260206004820152601f60248201527f45434453413a20696e76616c6964207369676e6174757265206c656e677468006044820152606401610af5565b600381600481111561262957612629613524565b14156126825760405162461bcd60e51b815260206004820152602260248201527f45434453413a20696e76616c6964207369676e6174757265202773272076616c604482015261756560f01b6064820152608401610af5565b600481600481111561269657612696613524565b1415610b525760405162461bcd60e51b815260206004820152602260248201527f45434453413a20696e76616c6964207369676e6174757265202776272076616c604482015261756560f01b6064820152608401610af5565b60008581526008602090815260408083206001600160a01b0388168452600381019092529091205460ff16156127775760405162461bcd60e51b815260206004820152602760248201527f476f7665726e6f72566f74696e6753696d706c653a20766f746520616c726561604482015266191e4818d85cdd60ca1b6064820152608401610af5565b6001600160a01b03851660009081526003820160205260408120805460ff1916600117905560ff168460ff1614156127c857828160000160008282546127bd9190613b5e565b90915550611d1f9050565b60ff8416600114156127e857828160010160008282546127bd9190613b5e565b60ff84166002141561280857828160020160008282546127bd9190613b5e565b60405162461bcd60e51b815260206004820152603560248201527f476f7665726e6f72566f74696e6753696d706c653a20696e76616c69642076616044820152746c756520666f7220656e756d20566f74655479706560581b6064820152608401610af5565b8154600160801b90819004600f0b6000818152600180860160205260409091209390935583546001600160801b03908116939091011602179055565b600a5460405163e38335e560e01b81526001600160a01b039091169063e38335e59034906128e5908890889088906000908990600401613aa2565b6000604051808303818588803b1580156128fe57600080fd5b505af1158015612912573d6000803e3d6000fd5b50505050505050505050565b6129288282611486565b610fd357612940816001600160a01b03166014612c9c565b61294b836020612c9c565b60405160200161295c929190613e35565b60408051601f198184030181529082905262461bcd60e51b8252610af591600401613213565b600081815260026020819052604082209081015460ff16156129a75750600792915050565b6002810154610100900460ff16156129c25750600292915050565b60006129cd84610ef8565b905080612a1c5760405162461bcd60e51b815260206004820152601d60248201527f476f7665726e6f723a20756e6b6e6f776e2070726f706f73616c2069640000006044820152606401610af5565b438110612a2d575060009392505050565b6000612a3885611606565b9050438110612a4c57506001949350505050565b612a5585612e37565b8015612a74575060008581526008602052604090208054600190910154115b15612a8457506004949350505050565b506003949350505050565b600080612a9e86868686612e6e565b6000818152600b602052604090205490915015611e8357600a546000828152600b60205260409081902054905163c4d252f560e01b81526001600160a01b039092169163c4d252f591612af79160040190815260200190565b600060405180830381600087803b158015612b1157600080fd5b505af1158015612b25573d6000803e3d6000fd5b5050506000828152600b60205260408120555095945050505050565b606082471015612ba25760405162461bcd60e51b815260206004820152602660248201527f416464726573733a20696e73756666696369656e742062616c616e636520666f6044820152651c8818d85b1b60d21b6064820152608401610af5565b6001600160a01b0385163b612bf95760405162461bcd60e51b815260206004820152601d60248201527f416464726573733a2063616c6c20746f206e6f6e2d636f6e74726163740000006044820152606401610af5565b600080866001600160a01b03168587604051612c159190613eaa565b60006040518083038185875af1925050503d8060008114612c52576040519150601f19603f3d011682016040523d82523d6000602084013e612c57565b606091505b5091509150611042828286612f7a565b60006001600160e01b03198216637965db0b60e01b14806109bf57506301ffc9a760e01b6001600160e01b03198316146109bf565b60606000612cab836002613d33565b612cb6906002613b5e565b6001600160401b03811115612ccd57612ccd61303b565b6040519080825280601f01601f191660200182016040528015612cf7576020820181803683370190505b509050600360fc1b81600081518110612d1257612d12613de2565b60200101906001600160f81b031916908160001a905350600f60fb1b81600181518110612d4157612d41613de2565b60200101906001600160f81b031916908160001a9053506000612d65846002613d33565b612d70906001613b5e565b90505b6001811115612de8576f181899199a1a9b1b9c1cb0b131b232b360811b85600f1660108110612da457612da4613de2565b1a60f81b828281518110612dba57612dba613de2565b60200101906001600160f81b031916908160001a90535060049490941c93612de181613ec6565b9050612d73565b5083156114bf5760405162461bcd60e51b815260206004820181905260248201527f537472696e67733a20686578206c656e67746820696e73756666696369656e746044820152606401610af5565b600081815260086020526040812060028101546001820154612e599190613b5e565b612e6561096285610ef8565b11159392505050565b600080612e7d86868686611701565b90506000612e8a8261104d565b90506002816007811115612ea057612ea0613524565b14158015612ec057506006816007811115612ebd57612ebd613524565b14155b8015612ede57506007816007811115612edb57612edb613524565b14155b612f2a5760405162461bcd60e51b815260206004820152601d60248201527f476f7665726e6f723a2070726f706f73616c206e6f74206163746976650000006044820152606401610af5565b60008281526002602081905260409182902001805461ff001916610100179055517f789cf55be980739dad1d0699b93b58e806b51c9d96619bfa8fe0a28abaa7b30c90610df49084815260200190565b60608315612f895750816114bf565b825115612f995782518084602001fd5b8160405162461bcd60e51b8152600401610af59190613213565b600060208284031215612fc557600080fd5b81356001600160e01b0319811681146114bf57600080fd5b803560ff81168114612fee57600080fd5b919050565b60008083601f84011261300557600080fd5b5081356001600160401b0381111561301c57600080fd5b60208301915083602082850101111561303457600080fd5b9250929050565b634e487b7160e01b600052604160045260246000fd5b604051601f8201601f191681016001600160401b03811182821017156130795761307961303b565b604052919050565b60006001600160401b0383111561309a5761309a61303b565b6130ad601f8401601f1916602001613051565b90508281528383830111156130c157600080fd5b828260208301376000602084830101529392505050565b600082601f8301126130e957600080fd5b6114bf83833560208501613081565b60008060008060008060008060e0898b03121561311457600080fd5b8835975061312460208a01612fdd565b965060408901356001600160401b038082111561314057600080fd5b61314c8c838d01612ff3565b909850965060608b013591508082111561316557600080fd5b506131728b828c016130d8565b94505061318160808a01612fdd565b925060a0890135915060c089013590509295985092959890939650565b6000602082840312156131b057600080fd5b5035919050565b60005b838110156131d25781810151838201526020016131ba565b838111156131e1576000848401525b50505050565b600081518084526131ff8160208601602086016131b7565b601f01601f19169290920160200192915050565b6020815260006114bf60208301846131e7565b6001600160a01b0381168114610b5257600080fd5b6000806000806080858703121561325157600080fd5b843561325c81613226565b9350602085013561326c81613226565b92506040850135915060608501356001600160401b0381111561328e57600080fd5b61329a878288016130d8565b91505092959194509250565b60006001600160401b038211156132bf576132bf61303b565b5060051b60200190565b600082601f8301126132da57600080fd5b813560206132ef6132ea836132a6565b613051565b82815260059290921b8401810191818101908684111561330e57600080fd5b8286015b8481101561333257803561332581613226565b8352918301918301613312565b509695505050505050565b600082601f83011261334e57600080fd5b8135602061335e6132ea836132a6565b82815260059290921b8401810191818101908684111561337d57600080fd5b8286015b848110156133325780358352918301918301613381565b600082601f8301126133a957600080fd5b813560206133b96132ea836132a6565b82815260059290921b840181019181810190868411156133d857600080fd5b8286015b848110156133325780356001600160401b038111156133fb5760008081fd5b6134098986838b01016130d8565b8452509183019183016133dc565b6000806000806080858703121561342d57600080fd5b84356001600160401b038082111561344457600080fd5b613450888389016132c9565b9550602087013591508082111561346657600080fd5b6134728883890161333d565b9450604087013591508082111561348857600080fd5b5061349587828801613398565b949793965093946060013593505050565b600080604083850312156134b957600080fd5b8235915060208301356134cb81613226565b809150509250929050565b600080600080600060a086880312156134ee57600080fd5b853594506134fe60208701612fdd565b935061350c60408701612fdd565b94979396509394606081013594506080013592915050565b634e487b7160e01b600052602160045260246000fd5b602081016008831061355c57634e487b7160e01b600052602160045260246000fd5b91905290565b6000806040838503121561357557600080fd5b8235915061358560208401612fdd565b90509250929050565b6000806000806000608086880312156135a657600080fd5b853594506135b660208701612fdd565b935060408601356001600160401b03808211156135d257600080fd5b6135de89838a01612ff3565b909550935060608801359150808211156135f757600080fd5b50613604888289016130d8565b9150509295509295909350565b6000806000806060858703121561362757600080fd5b8435935061363760208601612fdd565b925060408501356001600160401b0381111561365257600080fd5b61365e87828801612ff3565b95989497509550505050565b6000806000806080858703121561368057600080fd5b84356001600160401b038082111561369757600080fd5b6136a3888389016132c9565b955060208701359150808211156136b957600080fd5b6136c58883890161333d565b945060408701359150808211156136db57600080fd5b6136e788838901613398565b935060608701359150808211156136fd57600080fd5b508501601f8101871361370f57600080fd5b61329a87823560208401613081565b60008060006060848603121561373357600080fd5b833561373e81613226565b92506020840135915060408401356001600160401b0381111561376057600080fd5b61376c868287016130d8565b9150509250925092565b60006020828403121561378857600080fd5b81356114bf81613226565b600080600080600060a086880312156137ab57600080fd5b85356137b681613226565b945060208601356137c681613226565b935060408601356001600160401b03808211156137e257600080fd5b6137ee89838a0161333d565b9450606088013591508082111561380457600080fd5b61381089838a0161333d565b935060808801359150808211156135f757600080fd5b6000806000806060858703121561383c57600080fd5b843561384781613226565b93506020850135925060408501356001600160401b0381111561365257600080fd5b6000806040838503121561387c57600080fd5b823561388781613226565b946020939093013593505050565b600080600080600060a086880312156138ad57600080fd5b85356138b881613226565b945060208601356138c881613226565b9350604086013592506060860135915060808601356001600160401b038111156138f157600080fd5b613604888289016130d8565b8183823760009101908152919050565b60208082526018908201527f476f7665726e6f723a206f6e6c79476f7665726e616e63650000000000000000604082015260600190565b600181811c9082168061395857607f821691505b6020821081141561397957634e487b7160e01b600052602260045260246000fd5b50919050565b60208082526021908201527f476f7665726e6f723a2070726f706f73616c206e6f74207375636365737366756040820152601b60fa1b606082015260800190565b6000602082840312156139d257600080fd5b5051919050565b600081518084526020808501945080840160005b83811015613a125781516001600160a01b0316875295820195908201906001016139ed565b509495945050505050565b600081518084526020808501945080840160005b83811015613a1257815187529582019590820190600101613a31565b600081518084526020808501808196508360051b8101915082860160005b85811015613a95578284038952613a838483516131e7565b98850198935090840190600101613a6b565b5091979650505050505050565b60a081526000613ab560a08301886139d9565b8281036020840152613ac78188613a1d565b90508281036040840152613adb8187613a4d565b60608401959095525050608001529392505050565b60c081526000613b0360c08301896139d9565b8281036020840152613b158189613a1d565b90508281036040840152613b298188613a4d565b60608401969096525050608081019290925260a0909101529392505050565b634e487b7160e01b600052601160045260246000fd5b60008219821115613b7157613b71613b48565b500190565b600082821015613b8857613b88613b48565b500390565b60208082526021908201527f476f7665726e6f723a20696e76616c69642070726f706f73616c206c656e67746040820152600d60fb1b606082015260800190565b60006001600160401b03808316818516808303821115613bf057613bf0613b48565b01949350505050565b60006101208b8352602060018060a01b038c1681850152816040850152613c228285018c6139d9565b91508382036060850152613c36828b613a1d565b915083820360808501528189518084528284019150828160051b850101838c0160005b83811015613c8757601f19878403018552613c758383516131e7565b94860194925090850190600101613c59565b505086810360a0880152613c9b818c613a4d565b945050505050613cb660c08401876001600160401b03169052565b6001600160401b03851660e0840152828103610100840152613cd881856131e7565b9c9b505050505050505050505050565b608081526000613cfb60808301876139d9565b8281036020840152613d0d8187613a1d565b90508281036040840152613d218186613a4d565b91505082606083015295945050505050565b6000816000190483118215151615613d4d57613d4d613b48565b500290565b600082613d6f57634e487b7160e01b600052601260045260246000fd5b500490565b84815260ff8416602082015282604082015260806060820152600061107060808301846131e7565b85815260ff8516602082015283604082015260a060608201526000613dc460a08301856131e7565b8281036080840152613dd681856131e7565b98975050505050505050565b634e487b7160e01b600052603260045260246000fd5b6000600019821415613e0c57613e0c613b48565b5060010190565b600060208284031215613e2557600080fd5b815180151581146114bf57600080fd5b7f416363657373436f6e74726f6c3a206163636f756e7420000000000000000000815260008351613e6d8160178501602088016131b7565b7001034b99036b4b9b9b4b733903937b6329607d1b6017918401918201528351613e9e8160288401602088016131b7565b01602801949350505050565b60008251613ebc8184602087016131b7565b9190910192915050565b600081613ed557613ed5613b48565b50600019019056fe416464726573733a206c6f772d6c6576656c2063616c6c20776974682076616c7565206661696c6564a26469706673582212208f8225e7d7f423386eed9b32f3177027f18ab6bbca34500df7c824ed29946ca064736f6c63430008090033",
  "devdoc": {
    "errors": {
      "Empty()": [
        {
          "details": "An operation (e.g. {front}) couldn't be completed due to the queue being empty."
        }
      ]
    },
    "kind": "dev",
    "methods": {
      "COUNTING_MODE()": {
        "details": "See {IGovernor-COUNTING_MODE}."
      },
      "castVote(uint256,uint8)": {
        "details": "See {IGovernor-castVote}."
      },
      "castVoteBySig(uint256,uint8,uint8,bytes32,bytes32)": {
        "details": "See {IGovernor-castVoteBySig}."
      },
      "castVoteWithReason(uint256,uint8,string)": {
        "details": "See {IGovernor-castVoteWithReason}."
      },
      "castVoteWithReasonAndParams(uint256,uint8,string,bytes)": {
        "details": "See {IGovernor-castVoteWithReasonAndParams}."
      },
      "castVoteWithReasonAndParamsBySig(uint256,uint8,string,bytes,uint8,bytes32,bytes32)": {
        "details": "See {IGovernor-castVoteWithReasonAndParamsBySig}."
      },
      "execute(address[],uint256[],bytes[],bytes32)": {
        "details": "See {IGovernor-execute}."
      },
      "getRoleAdmin(bytes32)": {
        "details": "Returns the admin role that controls `role`. See {grantRole} and {revokeRole}. To change a role's admin, use {_setRoleAdmin}."
      },
      "getVotes(address,uint256)": {
        "details": "See {IGovernor-getVotes}."
      },
      "getVotesWithParams(address,uint256,bytes)": {
        "details": "See {IGovernor-getVotesWithParams}."
      },
      "grantRole(bytes32,address)": {
        "details": "Grants `role` to `account`. If `account` had not been already granted `role`, emits a {RoleGranted} event. Requirements: - the caller must have ``role``'s admin role."
      },
      "hasRole(bytes32,address)": {
        "details": "Returns `true` if `account` has been granted `role`."
      },
      "hasVoted(uint256,address)": {
        "details": "See {IGovernor-hasVoted}."
      },
      "hashProposal(address[],uint256[],bytes[],bytes32)": {
        "details": "See {IGovernor-hashProposal}. The proposal id is produced by hashing the RLC encoded `targets` array, the `values` array, the `calldatas` array and the descriptionHash (bytes32 which itself is the keccak256 hash of the description string). This proposal id can be produced from the proposal data which is part of the {ProposalCreated} event. It can even be computed in advance, before the proposal is submitted. Note that the chainId and the governor address are not part of the proposal id computation. Consequently, the same proposal (with same operation and same description) will have the same id if submitted on multiple governors across multiple networks. This also means that in order to execute the same operation twice (on the same governor) the proposer will have to change the description in order to avoid proposal id conflicts."
      },
      "name()": {
        "details": "See {IGovernor-name}."
      },
      "onERC1155BatchReceived(address,address,uint256[],uint256[],bytes)": {
        "details": "See {IERC1155Receiver-onERC1155BatchReceived}."
      },
      "onERC1155Received(address,address,uint256,uint256,bytes)": {
        "details": "See {IERC1155Receiver-onERC1155Received}."
      },
      "onERC721Received(address,address,uint256,bytes)": {
        "details": "See {IERC721Receiver-onERC721Received}."
      },
      "proposalDeadline(uint256)": {
        "details": "See {IGovernor-proposalDeadline}."
      },
      "proposalEta(uint256)": {
        "details": "Public accessor to check the eta of a queued proposal"
      },
      "proposalSnapshot(uint256)": {
        "details": "See {IGovernor-proposalSnapshot}."
      },
      "proposalVotes(uint256)": {
        "details": "Accessor to the internal vote counts."
      },
      "propose(address[],uint256[],bytes[],string)": {
        "details": "See {IGovernor-propose}."
      },
      "queue(address[],uint256[],bytes[],bytes32)": {
        "details": "Function to queue a proposal to the timelock."
      },
      "quorum(uint256)": {
        "details": "Returns the quorum for a block number, in terms of number of votes: `supply * numerator / denominator`."
      },
      "quorumDenominator()": {
        "details": "Returns the quorum denominator. Defaults to 100, but may be overridden."
      },
      "quorumNumerator()": {
        "details": "Returns the current quorum numerator. See {quorumDenominator}."
      },
      "relay(address,uint256,bytes)": {
        "details": "Relays a transaction or function call to an arbitrary target. In cases where the governance executor is some contract other than the governor itself, like when using a timelock, this function can be invoked in a governance proposal to recover tokens or Ether that was sent to the governor contract by mistake. Note that if the executor is simply the governor itself, use of `relay` is redundant."
      },
      "renounceRole(bytes32,address)": {
        "details": "Revokes `role` from the calling account. Roles are often managed via {grantRole} and {revokeRole}: this function's purpose is to provide a mechanism for accounts to lose their privileges if they are compromised (such as when a trusted device is misplaced). If the calling account had been revoked `role`, emits a {RoleRevoked} event. Requirements: - the caller must be `account`."
      },
      "revokeRole(bytes32,address)": {
        "details": "Revokes `role` from `account`. If `account` had been granted `role`, emits a {RoleRevoked} event. Requirements: - the caller must have ``role``'s admin role."
      },
      "setProposalThreshold(uint256)": {
        "details": "Update the proposal threshold. This operation can only be performed through a governance proposal. Emits a {ProposalThresholdSet} event."
      },
      "setVotingDelay(uint256)": {
        "details": "Update the voting delay. This operation can only be performed through a governance proposal. Emits a {VotingDelaySet} event."
      },
      "setVotingPeriod(uint256)": {
        "details": "Update the voting period. This operation can only be performed through a governance proposal. Emits a {VotingPeriodSet} event."
      },
      "timelock()": {
        "details": "Public accessor to check the address of the timelock"
      },
      "updateQuorumNumerator(uint256)": {
        "details": "Changes the quorum numerator. Emits a {QuorumNumeratorUpdated} event. Requirements: - Must be called through a governance proposal. - New numerator must be smaller or equal to the denominator."
      },
      "updateTimelock(address)": {
        "details": "Public endpoint to update the underlying timelock instance. Restricted to the timelock itself, so updates must be proposed, scheduled, and executed through governance proposals. CAUTION: It is not recommended to change the timelock while there are other queued governance proposals."
      },
      "version()": {
        "details": "See {IGovernor-version}."
      },
      "votingDelay()": {
        "details": "See {IGovernor-votingDelay}."
      },
      "votingPeriod()": {
        "details": "See {IGovernor-votingPeriod}."
      }
    },
    "version": 1
  },
  "userdoc": {
    "kind": "user",
    "methods": {},
    "version": 1
  },
  "storageLayout": {
    "storage": [
      {
        "astId": 1878,
        "contract": "contracts/ArmadaGovernor.sol:ArmadaGovernor",
        "label": "_roles",
        "offset": 0,
        "slot": "0",
        "type": "t_mapping(t_bytes32,t_struct(RoleData)1873_storage)"
      },
      {
        "astId": 2306,
        "contract": "contracts/ArmadaGovernor.sol:ArmadaGovernor",
        "label": "_name",
        "offset": 0,
        "slot": "1",
        "type": "t_string_storage"
      },
      {
        "astId": 2311,
        "contract": "contracts/ArmadaGovernor.sol:ArmadaGovernor",
        "label": "_proposals",
        "offset": 0,
        "slot": "2",
        "type": "t_mapping(t_uint256,t_struct(ProposalCore)2304_storage)"
      },
      {
        "astId": 2314,
        "contract": "contracts/ArmadaGovernor.sol:ArmadaGovernor",
        "label": "_governanceCall",
        "offset": 0,
        "slot": "3",
        "type": "t_struct(Bytes32Deque)9371_storage"
      },
      {
        "astId": 4966,
        "contract": "contracts/ArmadaGovernor.sol:ArmadaGovernor",
        "label": "_votingDelay",
        "offset": 0,
        "slot": "5",
        "type": "t_uint256"
      },
      {
        "astId": 4968,
        "contract": "contracts/ArmadaGovernor.sol:ArmadaGovernor",
        "label": "_votingPeriod",
        "offset": 0,
        "slot": "6",
        "type": "t_uint256"
      },
      {
        "astId": 4970,
        "contract": "contracts/ArmadaGovernor.sol:ArmadaGovernor",
        "label": "_proposalThreshold",
        "offset": 0,
        "slot": "7",
        "type": "t_uint256"
      },
      {
        "astId": 4758,
        "contract": "contracts/ArmadaGovernor.sol:ArmadaGovernor",
        "label": "_proposalVotes",
        "offset": 0,
        "slot": "8",
        "type": "t_mapping(t_uint256,t_struct(ProposalVote)4753_storage)"
      },
      {
        "astId": 5563,
        "contract": "contracts/ArmadaGovernor.sol:ArmadaGovernor",
        "label": "_quorumNumerator",
        "offset": 0,
        "slot": "9",
        "type": "t_uint256"
      },
      {
        "astId": 5149,
        "contract": "contracts/ArmadaGovernor.sol:ArmadaGovernor",
        "label": "_timelock",
        "offset": 0,
        "slot": "10",
        "type": "t_contract(TimelockController)4732"
      },
      {
        "astId": 5153,
        "contract": "contracts/ArmadaGovernor.sol:ArmadaGovernor",
        "label": "_timelockIds",
        "offset": 0,
        "slot": "11",
        "type": "t_mapping(t_uint256,t_bytes32)"
      }
    ],
    "types": {
      "t_address": {
        "encoding": "inplace",
        "label": "address",
        "numberOfBytes": "20"
      },
      "t_bool": {
        "encoding": "inplace",
        "label": "bool",
        "numberOfBytes": "1"
      },
      "t_bytes32": {
        "encoding": "inplace",
        "label": "bytes32",
        "numberOfBytes": "32"
      },
      "t_contract(TimelockController)4732": {
        "encoding": "inplace",
        "label": "contract TimelockController",
        "numberOfBytes": "20"
      },
      "t_int128": {
        "encoding": "inplace",
        "label": "int128",
        "numberOfBytes": "16"
      },
      "t_mapping(t_address,t_bool)": {
        "encoding": "mapping",
        "key": "t_address",
        "label": "mapping(address => bool)",
        "numberOfBytes": "32",
        "value": "t_bool"
      },
      "t_mapping(t_bytes32,t_struct(RoleData)1873_storage)": {
        "encoding": "mapping",
        "key": "t_bytes32",
        "label": "mapping(bytes32 => struct AccessControl.RoleData)",
        "numberOfBytes": "32",
        "value": "t_struct(RoleData)1873_storage"
      },
      "t_mapping(t_int128,t_bytes32)": {
        "encoding": "mapping",
        "key": "t_int128",
        "label": "mapping(int128 => bytes32)",
        "numberOfBytes": "32",
        "value": "t_bytes32"
      },
      "t_mapping(t_uint256,t_bytes32)": {
        "encoding": "mapping",
        "key": "t_uint256",
        "label": "mapping(uint256 => bytes32)",
        "numberOfBytes": "32",
        "value": "t_bytes32"
      },
      "t_mapping(t_uint256,t_struct(ProposalCore)2304_storage)": {
        "encoding": "mapping",
        "key": "t_uint256",
        "label": "mapping(uint256 => struct Governor.ProposalCore)",
        "numberOfBytes": "32",
        "value": "t_struct(ProposalCore)2304_storage"
      },
      "t_mapping(t_uint256,t_struct(ProposalVote)4753_storage)": {
        "encoding": "mapping",
        "key": "t_uint256",
        "label": "mapping(uint256 => struct GovernorCountingSimple.ProposalVote)",
        "numberOfBytes": "32",
        "value": "t_struct(ProposalVote)4753_storage"
      },
      "t_string_storage": {
        "encoding": "bytes",
        "label": "string",
        "numberOfBytes": "32"
      },
      "t_struct(BlockNumber)8171_storage": {
        "encoding": "inplace",
        "label": "struct Timers.BlockNumber",
        "members": [
          {
            "astId": 8170,
            "contract": "contracts/ArmadaGovernor.sol:ArmadaGovernor",
            "label": "_deadline",
            "offset": 0,
            "slot": "0",
            "type": "t_uint64"
          }
        ],
        "numberOfBytes": "32"
      },
      "t_struct(Bytes32Deque)9371_storage": {
        "encoding": "inplace",
        "label": "struct DoubleEndedQueue.Bytes32Deque",
        "members": [
          {
            "astId": 9364,
            "contract": "contracts/ArmadaGovernor.sol:ArmadaGovernor",
            "label": "_begin",
            "offset": 0,
            "slot": "0",
            "type": "t_int128"
          },
          {
            "astId": 9366,
            "contract": "contracts/ArmadaGovernor.sol:ArmadaGovernor",
            "label": "_end",
            "offset": 16,
            "slot": "0",
            "type": "t_int128"
          },
          {
            "astId": 9370,
            "contract": "contracts/ArmadaGovernor.sol:ArmadaGovernor",
            "label": "_data",
            "offset": 0,
            "slot": "1",
            "type": "t_mapping(t_int128,t_bytes32)"
          }
        ],
        "numberOfBytes": "64"
      },
      "t_struct(ProposalCore)2304_storage": {
        "encoding": "inplace",
        "label": "struct Governor.ProposalCore",
        "members": [
          {
            "astId": 2296,
            "contract": "contracts/ArmadaGovernor.sol:ArmadaGovernor",
            "label": "voteStart",
            "offset": 0,
            "slot": "0",
            "type": "t_struct(BlockNumber)8171_storage"
          },
          {
            "astId": 2299,
            "contract": "contracts/ArmadaGovernor.sol:ArmadaGovernor",
            "label": "voteEnd",
            "offset": 0,
            "slot": "1",
            "type": "t_struct(BlockNumber)8171_storage"
          },
          {
            "astId": 2301,
            "contract": "contracts/ArmadaGovernor.sol:ArmadaGovernor",
            "label": "executed",
            "offset": 0,
            "slot": "2",
            "type": "t_bool"
          },
          {
            "astId": 2303,
            "contract": "contracts/ArmadaGovernor.sol:ArmadaGovernor",
            "label": "canceled",
            "offset": 1,
            "slot": "2",
            "type": "t_bool"
          }
        ],
        "numberOfBytes": "96"
      },
      "t_struct(ProposalVote)4753_storage": {
        "encoding": "inplace",
        "label": "struct GovernorCountingSimple.ProposalVote",
        "members": [
          {
            "astId": 4744,
            "contract": "contracts/ArmadaGovernor.sol:ArmadaGovernor",
            "label": "againstVotes",
            "offset": 0,
            "slot": "0",
            "type": "t_uint256"
          },
          {
            "astId": 4746,
            "contract": "contracts/ArmadaGovernor.sol:ArmadaGovernor",
            "label": "forVotes",
            "offset": 0,
            "slot": "1",
            "type": "t_uint256"
          },
          {
            "astId": 4748,
            "contract": "contracts/ArmadaGovernor.sol:ArmadaGovernor",
            "label": "abstainVotes",
            "offset": 0,
            "slot": "2",
            "type": "t_uint256"
          },
          {
            "astId": 4752,
            "contract": "contracts/ArmadaGovernor.sol:ArmadaGovernor",
            "label": "hasVoted",
            "offset": 0,
            "slot": "3",
            "type": "t_mapping(t_address,t_bool)"
          }
        ],
        "numberOfBytes": "128"
      },
      "t_struct(RoleData)1873_storage": {
        "encoding": "inplace",
        "label": "struct AccessControl.RoleData",
        "members": [
          {
            "astId": 1870,
            "contract": "contracts/ArmadaGovernor.sol:ArmadaGovernor",
            "label": "members",
            "offset": 0,
            "slot": "0",
            "type": "t_mapping(t_address,t_bool)"
          },
          {
            "astId": 1872,
            "contract": "contracts/ArmadaGovernor.sol:ArmadaGovernor",
            "label": "adminRole",
            "offset": 0,
            "slot": "1",
            "type": "t_bytes32"
          }
        ],
        "numberOfBytes": "64"
      },
      "t_uint256": {
        "encoding": "inplace",
        "label": "uint256",
        "numberOfBytes": "32"
      },
      "t_uint64": {
        "encoding": "inplace",
        "label": "uint64",
        "numberOfBytes": "8"
      }
    }
  }
}