{
  "address": "0x107dCA2cAEEd77D104E118E8f13aa7795FCF8D17",
  "abi": [
    {
      "inputs": [
        {
          "internalType": "string",
          "name": "name",
          "type": "string"
        },
        {
          "internalType": "string",
          "name": "symbol",
          "type": "string"
        },
        {
          "internalType": "address[]",
          "name": "admins",
          "type": "address[]"
        },
        {
          "internalType": "address[]",
          "name": "minters",
          "type": "address[]"
        },
        {
          "internalType": "address[]",
          "name": "pausers",
          "type": "address[]"
        }
      ],
      "stateMutability": "nonpayable",
      "type": "constructor"
    },
    {
      "inputs": [],
      "name": "InvalidShortString",
      "type": "error"
    },
    {
      "inputs": [
        {
          "internalType": "string",
          "name": "str",
          "type": "string"
        }
      ],
      "name": "StringTooLong",
      "type": "error"
    },
    {
      "anonymous": false,
      "inputs": [
        {
          "indexed": true,
          "internalType": "address",
          "name": "owner",
          "type": "address"
        },
        {
          "indexed": true,
          "internalType": "address",
          "name": "spender",
          "type": "address"
        },
        {
          "indexed": false,
          "internalType": "uint256",
          "name": "value",
          "type": "uint256"
        }
      ],
      "name": "Approval",
      "type": "event"
    },
    {
      "anonymous": false,
      "inputs": [
        {
          "indexed": true,
          "internalType": "address",
          "name": "delegator",
          "type": "address"
        },
        {
          "indexed": true,
          "internalType": "address",
          "name": "fromDelegate",
          "type": "address"
        },
        {
          "indexed": true,
          "internalType": "address",
          "name": "toDelegate",
          "type": "address"
        }
      ],
      "name": "DelegateChanged",
      "type": "event"
    },
    {
      "anonymous": false,
      "inputs": [
        {
          "indexed": true,
          "internalType": "address",
          "name": "delegate",
          "type": "address"
        },
        {
          "indexed": false,
          "internalType": "uint256",
          "name": "previousBalance",
          "type": "uint256"
        },
        {
          "indexed": false,
          "internalType": "uint256",
          "name": "newBalance",
          "type": "uint256"
        }
      ],
      "name": "DelegateVotesChanged",
      "type": "event"
    },
    {
      "anonymous": false,
      "inputs": [],
      "name": "EIP712DomainChanged",
      "type": "event"
    },
    {
      "anonymous": false,
      "inputs": [
        {
          "indexed": false,
          "internalType": "address",
          "name": "account",
          "type": "address"
        }
      ],
      "name": "Paused",
      "type": "event"
    },
    {
      "anonymous": false,
      "inputs": [
        {
          "indexed": true,
          "internalType": "bytes32",
          "name": "role",
          "type": "bytes32"
        },
        {
          "indexed": true,
          "internalType": "bytes32",
          "name": "previousAdminRole",
          "type": "bytes32"
        },
        {
          "indexed": true,
          "internalType": "bytes32",
          "name": "newAdminRole",
          "type": "bytes32"
        }
      ],
      "name": "RoleAdminChanged",
      "type": "event"
    },
    {
      "anonymous": false,
      "inputs": [
        {
          "indexed": true,
          "internalType": "bytes32",
          "name": "role",
          "type": "bytes32"
        },
        {
          "indexed": true,
          "internalType": "address",
          "name": "account",
          "type": "address"
        },
        {
          "indexed": true,
          "internalType": "address",
          "name": "sender",
          "type": "address"
        }
      ],
      "name": "RoleGranted",
      "type": "event"
    },
    {
      "anonymous": false,
      "inputs": [
        {
          "indexed": true,
          "internalType": "bytes32",
          "name": "role",
          "type": "bytes32"
        },
        {
          "indexed": true,
          "internalType": "address",
          "name": "account",
          "type": "address"
        },
        {
          "indexed": true,
          "internalType": "address",
          "name": "sender",
          "type": "address"
        }
      ],
      "name": "RoleRevoked",
      "type": "event"
    },
    {
      "anonymous": false,
      "inputs": [
        {
          "indexed": true,
          "internalType": "address",
          "name": "from",
          "type": "address"
        },
        {
          "indexed": true,
          "internalType": "address",
          "name": "to",
          "type": "address"
        },
        {
          "indexed": false,
          "internalType": "uint256",
          "name": "value",
          "type": "uint256"
        }
      ],
      "name": "Transfer",
      "type": "event"
    },
    {
      "anonymous": false,
      "inputs": [
        {
          "indexed": false,
          "internalType": "address",
          "name": "account",
          "type": "address"
        }
      ],
      "name": "Unpaused",
      "type": "event"
    },
    {
      "inputs": [],
      "name": "CLOCK_MODE",
      "outputs": [
        {
          "internalType": "string",
          "name": "",
          "type": "string"
        }
      ],
      "stateMutability": "view",
      "type": "function"
    },
    {
      "inputs": [],
      "name": "DEFAULT_ADMIN_ROLE",
      "outputs": [
        {
          "internalType": "bytes32",
          "name": "",
          "type": "bytes32"
        }
      ],
      "stateMutability": "view",
      "type": "function"
    },
    {
      "inputs": [],
      "name": "DOMAIN_SEPARATOR",
      "outputs": [
        {
          "internalType": "bytes32",
          "name": "",
          "type": "bytes32"
        }
      ],
      "stateMutability": "view",
      "type": "function"
    },
    {
      "inputs": [],
      "name": "MINTER_ROLE",
      "outputs": [
        {
          "internalType": "bytes32",
          "name": "",
          "type": "bytes32"
        }
      ],
      "stateMutability": "view",
      "type": "function"
    },
    {
      "inputs": [],
      "name": "PAUSER_ROLE",
      "outputs": [
        {
          "internalType": "bytes32",
          "name": "",
          "type": "bytes32"
        }
      ],
      "stateMutability": "view",
      "type": "function"
    },
    {
      "inputs": [
        {
          "internalType": "address",
          "name": "owner",
          "type": "address"
        },
        {
          "internalType": "address",
          "name": "spender",
          "type": "address"
        }
      ],
      "name": "allowance",
      "outputs": [
        {
          "internalType": "uint256",
          "name": "",
          "type": "uint256"
        }
      ],
      "stateMutability": "view",
      "type": "function"
    },
    {
      "inputs": [
        {
          "internalType": "address",
          "name": "spender",
          "type": "address"
        },
        {
          "internalType": "uint256",
          "name": "amount",
          "type": "uint256"
        }
      ],
      "name": "approve",
      "outputs": [
        {
          "internalType": "bool",
          "name": "",
          "type": "bool"
        }
      ],
      "stateMutability": "nonpayable",
      "type": "function"
    },
    {
      "inputs": [
        {
          "internalType": "address",
          "name": "account",
          "type": "address"
        }
      ],
      "name": "balanceOf",
      "outputs": [
        {
          "internalType": "uint256",
          "name": "",
          "type": "uint256"
        }
      ],
      "stateMutability": "view",
      "type": "function"
    },
    {
      "inputs": [
        {
          "internalType": "uint256",
          "name": "amount",
          "type": "uint256"
        }
      ],
      "name": "burn",
      "outputs": [],
      "stateMutability": "nonpayable",
      "type": "function"
    },
    {
      "inputs": [
        {
          "internalType": "address",
          "name": "from",
          "type": "address"
        },
        {
          "internalType": "uint256",
          "name": "amount",
          "type": "uint256"
        }
      ],
      "name": "burnFrom",
      "outputs": [],
      "stateMutability": "nonpayable",
      "type": "function"
    },
    {
      "inputs": [
        {
          "internalType": "address",
          "name": "account",
          "type": "address"
        },
        {
          "internalType": "uint32",
          "name": "pos",
          "type": "uint32"
        }
      ],
      "name": "checkpoints",
      "outputs": [
        {
          "components": [
            {
              "internalType": "uint32",
              "name": "fromBlock",
              "type": "uint32"
            },
            {
              "internalType": "uint224",
              "name": "votes",
              "type": "uint224"
            }
          ],
          "internalType": "struct ERC20Votes.Checkpoint",
          "name": "",
          "type": "tuple"
        }
      ],
      "stateMutability": "view",
      "type": "function"
    },
    {
      "inputs": [],
      "name": "clock",
      "outputs": [
        {
          "internalType": "uint48",
          "name": "",
          "type": "uint48"
        }
      ],
      "stateMutability": "view",
      "type": "function"
    },
    {
      "inputs": [],
      "name": "decimals",
      "outputs": [
        {
          "internalType": "uint8",
          "name": "",
          "type": "uint8"
        }
      ],
      "stateMutability": "view",
      "type": "function"
    },
    {
      "inputs": [
        {
          "internalType": "address",
          "name": "spender",
          "type": "address"
        },
        {
          "internalType": "uint256",
          "name": "subtractedValue",
          "type": "uint256"
        }
      ],
      "name": "decreaseAllowance",
      "outputs": [
        {
          "internalType": "bool",
          "name": "",
          "type": "bool"
        }
      ],
      "stateMutability": "nonpayable",
      "type": "function"
    },
    {
      "inputs": [
        {
          "internalType": "address",
          "name": "delegatee",
          "type": "address"
        }
      ],
      "name": "delegate",
      "outputs": [],
      "stateMutability": "nonpayable",
      "type": "function"
    },
    {
      "inputs": [
        {
          "internalType": "address",
          "name": "delegatee",
          "type": "address"
        },
        {
          "internalType": "uint256",
          "name": "nonce",
          "type": "uint256"
        },
        {
          "internalType": "uint256",
          "name": "expiry",
          "type": "uint256"
        },
        {
          "internalType": "uint8",
          "name": "v",
          "type": "uint8"
        },
        {
          "internalType": "bytes32",
          "name": "r",
          "type": "bytes32"
        },
        {
          "internalType": "bytes32",
          "name": "s",
          "type": "bytes32"
        }
      ],
      "name": "delegateBySig",
      "outputs": [],
      "stateMutability": "nonpayable",
      "type": "function"
    },
    {
      "inputs": [
        {
          "internalType": "address",
          "name": "account",
          "type": "address"
        }
      ],
      "name": "delegates",
      "outputs": [
        {
          "internalType": "address",
          "name": "",
          "type": "address"
        }
      ],
      "stateMutability": "view",
      "type": "function"
    },
    {
      "inputs": [],
      "name": "eip712Domain",
      "outputs": [
        {
          "internalType": "bytes1",
          "name": "fields",
          "type": "bytes1"
        },
        {
          "internalType": "string",
          "name": "name",
          "type": "string"
        },
        {
          "internalType": "string",
          "name": "version",
          "type": "string"
        },
        {
          "internalType": "uint256",
          "name": "chainId",
          "type": "uint256"
        },
        {
          "internalType": "address",
          "name": "verifyingContract",
          "type": "address"
        },
        {
          "internalType": "bytes32",
          "name": "salt",
          "type": "bytes32"
        },
        {
          "internalType": "uint256[]",
          "name": "extensions",
          "type": "uint256[]"
        }
      ],
      "stateMutability": "view",
      "type": "function"
    },
    {
      "inputs": [
        {
          "internalType": "uint256",
          "name": "timepoint",
          "type": "uint256"
        }
      ],
      "name": "getPastTotalSupply",
      "outputs": [
        {
          "internalType": "uint256",
          "name": "",
          "type": "uint256"
        }
      ],
      "stateMutability": "view",
      "type": "function"
    },
    {
      "inputs": [
        {
          "internalType": "address",
          "name": "account",
          "type": "address"
        },
        {
          "internalType": "uint256",
          "name": "timepoint",
          "type": "uint256"
        }
      ],
      "name": "getPastVotes",
      "outputs": [
        {
          "internalType": "uint256",
          "name": "",
          "type": "uint256"
        }
      ],
      "stateMutability": "view",
      "type": "function"
    },
    {
      "inputs": [
        {
          "internalType": "bytes32",
          "name": "role",
          "type": "bytes32"
        }
      ],
      "name": "getRoleAdmin",
      "outputs": [
        {
          "internalType": "bytes32",
          "name": "",
          "type": "bytes32"
        }
      ],
      "stateMutability": "view",
      "type": "function"
    },
    {
      "inputs": [
        {
          "internalType": "address",
          "name": "account",
          "type": "address"
        }
      ],
      "name": "getVotes",
      "outputs": [
        {
          "internalType": "uint256",
          "name": "",
          "type": "uint256"
        }
      ],
      "stateMutability": "view",
      "type": "function"
    },
    {
      "inputs": [
        {
          "internalType": "bytes32",
          "name": "role",
          "type": "bytes32"
        },
        {
          "internalType": "address",
          "name": "account",
          "type": "address"
        }
      ],
      "name": "grantRole",
      "outputs": [],
      "stateMutability": "nonpayable",
      "type": "function"
    },
    {
      "inputs": [
        {
          "internalType": "bytes32",
          "name": "role",
          "type": "bytes32"
        },
        {
          "internalType": "address",
          "name": "account",
          "type": "address"
        }
      ],
      "name": "hasRole",
      "outputs": [
        {
          "internalType": "bool",
          "name": "",
          "type": "bool"
        }
      ],
      "stateMutability": "view",
      "type": "function"
    },
    {
      "inputs": [
        {
          "internalType": "address",
          "name": "spender",
          "type": "address"
        },
        {
          "internalType": "uint256",
          "name": "addedValue",
          "type": "uint256"
        }
      ],
      "name": "increaseAllowance",
      "outputs": [
        {
          "internalType": "bool",
          "name": "",
          "type": "bool"
        }
      ],
      "stateMutability": "nonpayable",
      "type": "function"
    },
    {
      "inputs": [
        {
          "internalType": "address",
          "name": "to",
          "type": "address"
        },
        {
          "internalType": "uint256",
          "name": "amount",
          "type": "uint256"
        }
      ],
      "name": "mint",
      "outputs": [],
      "stateMutability": "nonpayable",
      "type": "function"
    },
    {
      "inputs": [],
      "name": "name",
      "outputs": [
        {
          "internalType": "string",
          "name": "",
          "type": "string"
        }
      ],
      "stateMutability": "view",
      "type": "function"
    },
    {
      "inputs": [
        {
          "internalType": "address",
          "name": "owner",
          "type": "address"
        }
      ],
      "name": "nonces",
      "outputs": [
        {
          "internalType": "uint256",
          "name": "",
          "type": "uint256"
        }
      ],
      "stateMutability": "view",
      "type": "function"
    },
    {
      "inputs": [
        {
          "internalType": "address",
          "name": "account",
          "type": "address"
        }
      ],
      "name": "numCheckpoints",
      "outputs": [
        {
          "internalType": "uint32",
          "name": "",
          "type": "uint32"
        }
      ],
      "stateMutability": "view",
      "type": "function"
    },
    {
      "inputs": [],
      "name": "pause",
      "outputs": [],
      "stateMutability": "nonpayable",
      "type": "function"
    },
    {
      "inputs": [],
      "name": "paused",
      "outputs": [
        {
          "internalType": "bool",
          "name": "",
          "type": "bool"
        }
      ],
      "stateMutability": "view",
      "type": "function"
    },
    {
      "inputs": [
        {
          "internalType": "address",
          "name": "owner",
          "type": "address"
        },
        {
          "internalType": "address",
          "name": "spender",
          "type": "address"
        },
        {
          "internalType": "uint256",
          "name": "value",
          "type": "uint256"
        },
        {
          "internalType": "uint256",
          "name": "deadline",
          "type": "uint256"
        },
        {
          "internalType": "uint8",
          "name": "v",
          "type": "uint8"
        },
        {
          "internalType": "bytes32",
          "name": "r",
          "type": "bytes32"
        },
        {
          "internalType": "bytes32",
          "name": "s",
          "type": "bytes32"
        }
      ],
      "name": "permit",
      "outputs": [],
      "stateMutability": "nonpayable",
      "type": "function"
    },
    {
      "inputs": [
        {
          "internalType": "bytes32",
          "name": "role",
          "type": "bytes32"
        },
        {
          "internalType": "address",
          "name": "account",
          "type": "address"
        }
      ],
      "name": "renounceRole",
      "outputs": [],
      "stateMutability": "nonpayable",
      "type": "function"
    },
    {
      "inputs": [
        {
          "internalType": "bytes32",
          "name": "role",
          "type": "bytes32"
        },
        {
          "internalType": "address",
          "name": "account",
          "type": "address"
        }
      ],
      "name": "revokeRole",
      "outputs": [],
      "stateMutability": "nonpayable",
      "type": "function"
    },
    {
      "inputs": [
        {
          "internalType": "bytes4",
          "name": "interfaceId",
          "type": "bytes4"
        }
      ],
      "name": "supportsInterface",
      "outputs": [
        {
          "internalType": "bool",
          "name": "",
          "type": "bool"
        }
      ],
      "stateMutability": "view",
      "type": "function"
    },
    {
      "inputs": [],
      "name": "symbol",
      "outputs": [
        {
          "internalType": "string",
          "name": "",
          "type": "string"
        }
      ],
      "stateMutability": "view",
      "type": "function"
    },
    {
      "inputs": [],
      "name": "totalSupply",
      "outputs": [
        {
          "internalType": "uint256",
          "name": "",
          "type": "uint256"
        }
      ],
      "stateMutability": "view",
      "type": "function"
    },
    {
      "inputs": [
        {
          "internalType": "address",
          "name": "to",
          "type": "address"
        },
        {
          "internalType": "uint256",
          "name": "amount",
          "type": "uint256"
        }
      ],
      "name": "transfer",
      "outputs": [
        {
          "internalType": "bool",
          "name": "",
          "type": "bool"
        }
      ],
      "stateMutability": "nonpayable",
      "type": "function"
    },
    {
      "inputs": [
        {
          "internalType": "address",
          "name": "from",
          "type": "address"
        },
        {
          "internalType": "address",
          "name": "to",
          "type": "address"
        },
        {
          "internalType": "uint256",
          "name": "amount",
          "type": "uint256"
        }
      ],
      "name": "transferFrom",
      "outputs": [
        {
          "internalType": "bool",
          "name": "",
          "type": "bool"
        }
      ],
      "stateMutability": "nonpayable",
      "type": "function"
    },
    {
      "inputs": [],
      "name": "unpause",
      "outputs": [],
      "stateMutability": "nonpayable",
      "type": "function"
    }
  ],
  "transactionHash": "0x6e30d0bc4b868993acb609b5978a157ad639ad8871b41a0c61ab107cb919d0be",
  "args": [
    "Earthfast",
    "EARTHFAST",
    [
      "0x8459DDE54CB9dA738A9e52c937d086A8FC665A23",
      "0xA64527cd8cc0742A82643Bd28C606CFeE65783a3"
    ],
    [
      "0x8459DDE54CB9dA738A9e52c937d086A8FC665A23",
      "0xA64527cd8cc0742A82643Bd28C606CFeE65783a3",
      "0x183921bD248aEB173312A794cFEf413fDE5bF5Ca"
    ],
    [
      "0x8459DDE54CB9dA738A9e52c937d086A8FC665A23",
      "0xA64527cd8cc0742A82643Bd28C606CFeE65783a3"
    ]
  ],
  "numDeployments": 1,
  "solcInputHash": "6cd97c2ea20de7a420302ece59e5c4de",
  "bytecode": "0x6101606040523480156200001257600080fd5b506040516200359838038062003598833981016040819052620000359162000771565b8480604051806040016040528060018152602001603160f81b815250878781600390805190602001906200006b9291906200053c565b508051620000819060049060208401906200053c565b5050506200009f600583620003fd60201b62000f931790919060201c565b61012052620000bc816006620003fd602090811b62000f9317901c565b61014052815160208084019190912060e052815190820120610100524660a0526200014a60e05161010051604080517f8b73c3c69bb8fe3d512ecc4cf759cc79239f7b179b0ffacaa9a75d522b39400f60208201529081019290925260608201524660808201523060a082015260009060c00160405160208183030381529060405280519060200120905090565b60805250503060c05250600d805460ff1916905582516200019e5760405162461bcd60e51b81526020600482015260096024820152686e6f2061646d696e7360b81b60448201526064015b60405180910390fd5b60005b83518110156200025d5760006001600160a01b0316848281518110620001cb57620001cb62000852565b60200260200101516001600160a01b03161415620002195760405162461bcd60e51b815260206004820152600a6024820152693d32b9379030b236b4b760b11b604482015260640162000195565b6200024a6000801b85838151811062000236576200023662000852565b60200260200101516200045160201b60201c565b620002558162000868565b9050620001a1565b5060005b8251811015620003275760006001600160a01b03168382815181106200028b576200028b62000852565b60200260200101516001600160a01b03161415620002da5760405162461bcd60e51b815260206004820152600b60248201526a3d32b9379036b4b73a32b960a91b604482015260640162000195565b620003147f9f2df0fed2c77648de5860a4cc508cd0818c85b8b8a1ab4ceeef8d981c8956a684838151811062000236576200023662000852565b6200031f8162000868565b905062000261565b5060005b8151811015620003f15760006001600160a01b031682828151811062000355576200035562000852565b60200260200101516001600160a01b03161415620003a45760405162461bcd60e51b815260206004820152600b60248201526a3d32b937903830bab9b2b960a91b604482015260640162000195565b620003de7f65d7a28e3265b37a6474929f336521b332c1681b933f6cb9f3376673440d862a83838151811062000236576200023662000852565b620003e98162000868565b90506200032b565b50505050505062000926565b60006020835110156200041d576200041583620004f6565b90506200044b565b8262000434836200053960201b62000fca1760201c565b81516200044592602001906200053c565b5060ff90505b92915050565b6000828152600c602090815260408083206001600160a01b038516845290915290205460ff16620004f2576000828152600c602090815260408083206001600160a01b03851684529091529020805460ff19166001179055620004b13390565b6001600160a01b0316816001600160a01b0316837f2f8788117e7eff1d82e926ec794901d17c78024a50270940304540a733656f0d60405160405180910390a45b5050565b600080829050601f8151111562000524578260405163305a27a960e01b815260040162000195919062000892565b80516200053182620008c7565b179392505050565b90565b8280546200054a90620008ef565b90600052602060002090601f0160209004810192826200056e5760008555620005b9565b82601f106200058957805160ff1916838001178555620005b9565b82800160010185558215620005b9579182015b82811115620005b95782518255916020019190600101906200059c565b50620005c7929150620005cb565b5090565b5b80821115620005c75760008155600101620005cc565b634e487b7160e01b600052604160045260246000fd5b604051601f8201601f191681016001600160401b0381118282101715620006235762000623620005e2565b604052919050565b60005b83811015620006485781810151838201526020016200062e565b8381111562000658576000848401525b50505050565b600082601f8301126200067057600080fd5b81516001600160401b038111156200068c576200068c620005e2565b620006a1601f8201601f1916602001620005f8565b818152846020838601011115620006b757600080fd5b620006ca8260208301602087016200062b565b949350505050565b600082601f830112620006e457600080fd5b815160206001600160401b03821115620007025762000702620005e2565b8160051b62000713828201620005f8565b92835284810182019282810190878511156200072e57600080fd5b83870192505b84831015620007665782516001600160a01b0381168114620007565760008081fd5b8252918301919083019062000734565b979650505050505050565b600080600080600060a086880312156200078a57600080fd5b85516001600160401b0380821115620007a257600080fd5b620007b089838a016200065e565b96506020880151915080821115620007c757600080fd5b620007d589838a016200065e565b95506040880151915080821115620007ec57600080fd5b620007fa89838a01620006d2565b945060608801519150808211156200081157600080fd5b6200081f89838a01620006d2565b935060808801519150808211156200083657600080fd5b506200084588828901620006d2565b9150509295509295909350565b634e487b7160e01b600052603260045260246000fd5b60006000198214156200088b57634e487b7160e01b600052601160045260246000fd5b5060010190565b6020815260008251806020840152620008b38160408501602087016200062b565b601f01601f19169190910160400192915050565b80516020808301519190811015620008e9576000198160200360031b1b821691505b50919050565b600181811c908216806200090457607f821691505b60208210811415620008e957634e487b7160e01b600052602260045260246000fd5b60805160a05160c05160e051610100516101205161014051612c17620009816000396000610a1e015260006109f30152600061148a01526000611462015260006113bd015260006113e7015260006114110152612c176000f3fe608060405234801561001057600080fd5b50600436106102485760003560e01c806370a082311161013b578063a217fddf116100b8578063d53913931161007c578063d539139314610530578063d547741f14610557578063dd62ed3e1461056a578063e63ab1e91461057d578063f1127ed8146105a457600080fd5b8063a217fddf146104dc578063a457c2d7146104e4578063a9059cbb146104f7578063c3cda5201461050a578063d505accf1461051d57600080fd5b80638e539e8c116100ff5780638e539e8c1461047c57806391d148541461048f57806391ddadf4146104a257806395d89b41146104c15780639ab24eb0146104c957600080fd5b806370a082311461040a57806379cc6790146104335780637ecebe00146104465780638456cb591461045957806384b0196e1461046157600080fd5b806339509351116101c95780634bf5d7e91161018d5780634bf5d7e914610378578063587cde1e146103805780635c19a95c146103c45780635c975abb146103d75780636fcfff45146103e257600080fd5b806339509351146103245780633a46b1a8146103375780633f4ba83a1461034a57806340c10f191461035257806342966c681461036557600080fd5b8063248a9ca311610210578063248a9ca3146102c25780632f2ff15d146102e5578063313ce567146102fa5780633644e5151461030957806336568abe1461031157600080fd5b806301ffc9a71461024d57806306fdde0314610275578063095ea7b31461028a57806318160ddd1461029d57806323b872dd146102af575b600080fd5b61026061025b3660046126d4565b6105e1565b60405190151581526020015b60405180910390f35b61027d610618565b60405161026c9190612756565b610260610298366004612785565b6106aa565b6002545b60405190815260200161026c565b6102606102bd3660046127af565b6106c2565b6102a16102d03660046127eb565b6000908152600c602052604090206001015490565b6102f86102f3366004612804565b6106e6565b005b6040516012815260200161026c565b6102a1610710565b6102f861031f366004612804565b61071f565b610260610332366004612785565b6107a2565b6102a1610345366004612785565b6107c4565b6102f8610849565b6102f8610360366004612785565b61087e565b6102f86103733660046127eb565b6108b2565b61027d6108bc565b6103ac61038e366004612830565b6001600160a01b039081166000908152600960205260409020541690565b6040516001600160a01b03909116815260200161026c565b6102f86103d2366004612830565b610954565b600d5460ff16610260565b6103f56103f0366004612830565b61095e565b60405163ffffffff909116815260200161026c565b6102a1610418366004612830565b6001600160a01b031660009081526020819052604090205490565b6102f8610441366004612785565b610980565b6102a1610454366004612830565b610995565b6102f86109b3565b6104696109e5565b60405161026c979695949392919061284b565b6102a161048a3660046127eb565b610a6e565b61026061049d366004612804565b610ad5565b6104aa610b00565b60405165ffffffffffff909116815260200161026c565b61027d610b0b565b6102a16104d7366004612830565b610b1a565b6102a1600081565b6102606104f2366004612785565b610b9c565b610260610505366004612785565b610c17565b6102f86105183660046128f2565b610c25565b6102f861052b36600461294a565b610d5b565b6102a17f9f2df0fed2c77648de5860a4cc508cd0818c85b8b8a1ab4ceeef8d981c8956a681565b6102f8610565366004612804565b610ebf565b6102a16105783660046129b4565b610ee4565b6102a17f65d7a28e3265b37a6474929f336521b332c1681b933f6cb9f3376673440d862a81565b6105b76105b23660046129de565b610f0f565b60408051825163ffffffff1681526020928301516001600160e01b0316928101929092520161026c565b60006001600160e01b03198216637965db0b60e01b148061061257506301ffc9a760e01b6001600160e01b03198316145b92915050565b60606003805461062790612a1e565b80601f016020809104026020016040519081016040528092919081815260200182805461065390612a1e565b80156106a05780601f10610675576101008083540402835291602001916106a0565b820191906000526020600020905b81548152906001019060200180831161068357829003601f168201915b5050505050905090565b6000336106b8818585610fcd565b5060019392505050565b6000336106d08582856110f1565b6106db85858561116b565b506001949350505050565b6000828152600c602052604090206001015461070181611320565b61070b838361132a565b505050565b600061071a6113b0565b905090565b6001600160a01b03811633146107945760405162461bcd60e51b815260206004820152602f60248201527f416363657373436f6e74726f6c3a2063616e206f6e6c792072656e6f756e636560448201526e103937b632b9903337b91039b2b63360891b60648201526084015b60405180910390fd5b61079e82826114db565b5050565b6000336106b88185856107b58383610ee4565b6107bf9190612a69565b610fcd565b60006107ce610b00565b65ffffffffffff1682106108205760405162461bcd60e51b815260206004820152601960248201527804552433230566f7465733a20667574757265206c6f6f6b757603c1b604482015260640161078b565b6001600160a01b0383166000908152600a602052604090206108429083611542565b9392505050565b7f65d7a28e3265b37a6474929f336521b332c1681b933f6cb9f3376673440d862a61087381611320565b61087b61162b565b50565b7f9f2df0fed2c77648de5860a4cc508cd0818c85b8b8a1ab4ceeef8d981c8956a66108a881611320565b61070b838361167d565b61087b3382611707565b6060436108c7610b00565b65ffffffffffff161461091c5760405162461bcd60e51b815260206004820152601d60248201527f4552433230566f7465733a2062726f6b656e20636c6f636b206d6f6465000000604482015260640161078b565b5060408051808201909152601d81527f6d6f64653d626c6f636b6e756d6265722666726f6d3d64656661756c74000000602082015290565b61087b338261171f565b6001600160a01b0381166000908152600a602052604081205461061290611798565b61098b8233836110f1565b61079e8282611707565b6001600160a01b038116600090815260076020526040812054610612565b7f65d7a28e3265b37a6474929f336521b332c1681b933f6cb9f3376673440d862a6109dd81611320565b61087b611801565b600060608082808083610a197f0000000000000000000000000000000000000000000000000000000000000000600561183e565b610a447f0000000000000000000000000000000000000000000000000000000000000000600661183e565b60408051600080825260208201909252600f60f81b9b939a50919850469750309650945092509050565b6000610a78610b00565b65ffffffffffff168210610aca5760405162461bcd60e51b815260206004820152601960248201527804552433230566f7465733a20667574757265206c6f6f6b757603c1b604482015260640161078b565b610612600b83611542565b6000918252600c602090815260408084206001600160a01b0393909316845291905290205460ff1690565b600061071a436118e2565b60606004805461062790612a1e565b6001600160a01b0381166000908152600a60205260408120548015610b89576001600160a01b0383166000908152600a6020526040902080546000198301908110610b6757610b67612a97565b60009182526020909120015464010000000090046001600160e01b0316610b8c565b60005b6001600160e01b03169392505050565b60003381610baa8286610ee4565b905083811015610c0a5760405162461bcd60e51b815260206004820152602560248201527f45524332303a2064656372656173656420616c6c6f77616e63652062656c6f77604482015264207a65726f60d81b606482015260840161078b565b6106db8286868403610fcd565b6000336106b881858561116b565b83421115610c755760405162461bcd60e51b815260206004820152601d60248201527f4552433230566f7465733a207369676e61747572652065787069726564000000604482015260640161078b565b604080517fe48329057bfd03d55e49b547132e39cffd9c1820ad7b9d4c5307691425d15adf60208201526001600160a01b038816918101919091526060810186905260808101859052600090610cef90610ce79060a00160405160208183030381529060405280519060200120611949565b858585611976565b9050610cfa8161199e565b8614610d485760405162461bcd60e51b815260206004820152601960248201527f4552433230566f7465733a20696e76616c6964206e6f6e636500000000000000604482015260640161078b565b610d52818861171f565b50505050505050565b83421115610dab5760405162461bcd60e51b815260206004820152601d60248201527f45524332305065726d69743a206578706972656420646561646c696e65000000604482015260640161078b565b60007f6e71edae12b1b97f4d1f60370fef10105fa2faae0126114a169c64845d6126c9888888610dda8c61199e565b6040805160208101969096526001600160a01b0394851690860152929091166060840152608083015260a082015260c0810186905260e0016040516020818303038152906040528051906020012090506000610e3582611949565b90506000610e4582878787611976565b9050896001600160a01b0316816001600160a01b031614610ea85760405162461bcd60e51b815260206004820152601e60248201527f45524332305065726d69743a20696e76616c6964207369676e61747572650000604482015260640161078b565b610eb38a8a8a610fcd565b50505050505050505050565b6000828152600c6020526040902060010154610eda81611320565b61070b83836114db565b6001600160a01b03918216600090815260016020908152604080832093909416825291909152205490565b60408051808201909152600080825260208201526001600160a01b0383166000908152600a60205260409020805463ffffffff8416908110610f5357610f53612a97565b60009182526020918290206040805180820190915291015463ffffffff8116825264010000000090046001600160e01b0316918101919091529392505050565b6000602083511015610faf57610fa8836119c6565b9050610612565b82828151610fc09260200190612644565b5060ff9050610612565b90565b6001600160a01b03831661102f5760405162461bcd60e51b8152602060048201526024808201527f45524332303a20617070726f76652066726f6d20746865207a65726f206164646044820152637265737360e01b606482015260840161078b565b6001600160a01b0382166110905760405162461bcd60e51b815260206004820152602260248201527f45524332303a20617070726f766520746f20746865207a65726f206164647265604482015261737360f01b606482015260840161078b565b6001600160a01b0383811660008181526001602090815260408083209487168084529482529182902085905590518481527f8c5be1e5ebec7d5bd14f71427d1e84f3dd0314c0f7b2291e5b200ac8c7c3b925910160405180910390a3505050565b60006110fd8484610ee4565b9050600019811461116557818110156111585760405162461bcd60e51b815260206004820152601d60248201527f45524332303a20696e73756666696369656e7420616c6c6f77616e6365000000604482015260640161078b565b6111658484848403610fcd565b50505050565b6001600160a01b0383166111cf5760405162461bcd60e51b815260206004820152602560248201527f45524332303a207472616e736665722066726f6d20746865207a65726f206164604482015264647265737360d81b606482015260840161078b565b6001600160a01b0382166112315760405162461bcd60e51b815260206004820152602360248201527f45524332303a207472616e7366657220746f20746865207a65726f206164647260448201526265737360e81b606482015260840161078b565b61123c838383611a04565b6001600160a01b038316600090815260208190526040902054818110156112b45760405162461bcd60e51b815260206004820152602660248201527f45524332303a207472616e7366657220616d6f756e7420657863656564732062604482015265616c616e636560d01b606482015260840161078b565b6001600160a01b03848116600081815260208181526040808320878703905593871680835291849020805487019055925185815290927fddf252ad1be2c89b69c2b068fc378daa952ba7f163c4a11628f55a4df523b3ef910160405180910390a3611165848484611a0c565b61087b8133611a3e565b6113348282610ad5565b61079e576000828152600c602090815260408083206001600160a01b03851684529091529020805460ff1916600117905561136c3390565b6001600160a01b0316816001600160a01b0316837f2f8788117e7eff1d82e926ec794901d17c78024a50270940304540a733656f0d60405160405180910390a45050565b6000306001600160a01b037f00000000000000000000000000000000000000000000000000000000000000001614801561140957507f000000000000000000000000000000000000000000000000000000000000000046145b1561143357507f000000000000000000000000000000000000000000000000000000000000000090565b61071a604080517f8b73c3c69bb8fe3d512ecc4cf759cc79239f7b179b0ffacaa9a75d522b39400f60208201527f0000000000000000000000000000000000000000000000000000000000000000918101919091527f000000000000000000000000000000000000000000000000000000000000000060608201524660808201523060a082015260009060c00160405160208183030381529060405280519060200120905090565b6114e58282610ad5565b1561079e576000828152600c602090815260408083206001600160a01b0385168085529252808320805460ff1916905551339285917ff6391f5c32d9c69d2a47ea670b442974b53935d1edc7fd64eb21e047a839171b9190a45050565b81546000908181600581111561159c57600061155d84611a97565b6115679085612aad565b600088815260209020909150869082015463ffffffff16111561158c5780915061159a565b611597816001612a69565b92505b505b808210156115e95760006115b08383611b7c565b600088815260209020909150869082015463ffffffff1611156115d5578091506115e3565b6115e0816001612a69565b92505b5061159c565b8015611615576000868152602090208101600019015464010000000090046001600160e01b0316611618565b60005b6001600160e01b03169695505050505050565b611633611b97565b600d805460ff191690557f5db9ee0a495bf2e6ff9c91a7834c1ba4fdd244a5e8aa4e537bd38aeae4b073aa335b6040516001600160a01b03909116815260200160405180910390a1565b6116878282611be2565b6002546001600160e01b0310156116f95760405162461bcd60e51b815260206004820152603060248201527f4552433230566f7465733a20746f74616c20737570706c79207269736b73206f60448201526f766572666c6f77696e6720766f74657360801b606482015260840161078b565b611165600b611cb583611cc1565b6117118282611e36565b611165600b611f7b83611cc1565b6001600160a01b038281166000818152600960208181526040808420805485845282862054949093528787166001600160a01b03198416811790915590519190951694919391928592917f3134e8a2e6d97e929a7e54011ea5485d7d196dd5f0ba4d4ef95803e8e3fc257f9190a4611165828483611f87565b600063ffffffff8211156117fd5760405162461bcd60e51b815260206004820152602660248201527f53616665436173743a2076616c756520646f65736e27742066697420696e203360448201526532206269747360d01b606482015260840161078b565b5090565b6118096120c4565b600d805460ff191660011790557f62e78cea01bee320cd4e420270b5ea74000d11b0c9f74754ebdbfc544b05a2586116603390565b606060ff831461185157610fa88361210a565b81805461185d90612a1e565b80601f016020809104026020016040519081016040528092919081815260200182805461188990612a1e565b80156118d65780601f106118ab576101008083540402835291602001916118d6565b820191906000526020600020905b8154815290600101906020018083116118b957829003601f168201915b50505050509050610612565b600065ffffffffffff8211156117fd5760405162461bcd60e51b815260206004820152602660248201527f53616665436173743a2076616c756520646f65736e27742066697420696e203460448201526538206269747360d01b606482015260840161078b565b60006106126119566113b0565b8360405161190160f01b8152600281019290925260228201526042902090565b600080600061198787878787612149565b915091506119948161220d565b5095945050505050565b6001600160a01b03811660009081526007602052604090208054600181018255905b50919050565b600080829050601f815111156119f1578260405163305a27a960e01b815260040161078b9190612756565b80516119fc82612ac4565b179392505050565b61070b6120c4565b6001600160a01b0383811660009081526009602052604080822054858416835291205461070b92918216911683611f87565b611a488282610ad5565b61079e57611a558161235b565b611a6083602061236d565b604051602001611a71929190612ae8565b60408051601f198184030181529082905262461bcd60e51b825261078b91600401612756565b600081611aa657506000919050565b60006001611ab384612509565b901c6001901b90506001818481611acc57611acc612b5d565b048201901c90506001818481611ae457611ae4612b5d565b048201901c90506001818481611afc57611afc612b5d565b048201901c90506001818481611b1457611b14612b5d565b048201901c90506001818481611b2c57611b2c612b5d565b048201901c90506001818481611b4457611b44612b5d565b048201901c90506001818481611b5c57611b5c612b5d565b048201901c905061084281828581611b7657611b76612b5d565b0461259d565b6000611b8b6002848418612b73565b61084290848416612a69565b600d5460ff16611be05760405162461bcd60e51b815260206004820152601460248201527314185d5cd8589b194e881b9bdd081c185d5cd95960621b604482015260640161078b565b565b6001600160a01b038216611c385760405162461bcd60e51b815260206004820152601f60248201527f45524332303a206d696e7420746f20746865207a65726f206164647265737300604482015260640161078b565b611c4460008383611a04565b8060026000828254611c569190612a69565b90915550506001600160a01b038216600081815260208181526040808320805486019055518481527fddf252ad1be2c89b69c2b068fc378daa952ba7f163c4a11628f55a4df523b3ef910160405180910390a361079e60008383611a0c565b60006108428284612a69565b82546000908190818115611d0e5760008781526020902082016000190160408051808201909152905463ffffffff8116825264010000000090046001600160e01b03166020820152611d23565b60408051808201909152600080825260208201525b905080602001516001600160e01b03169350611d4384868863ffffffff16565b9250600082118015611d6d5750611d58610b00565b65ffffffffffff16816000015163ffffffff16145b15611db257611d7b836125b3565b60008881526020902083016000190180546001600160e01b03929092166401000000000263ffffffff909216919091179055611e2c565b866040518060400160405280611dd6611dc9610b00565b65ffffffffffff16611798565b63ffffffff168152602001611dea866125b3565b6001600160e01b0390811690915282546001810184556000938452602093849020835194909301519091166401000000000263ffffffff909316929092179101555b5050935093915050565b6001600160a01b038216611e965760405162461bcd60e51b815260206004820152602160248201527f45524332303a206275726e2066726f6d20746865207a65726f206164647265736044820152607360f81b606482015260840161078b565b611ea282600083611a04565b6001600160a01b03821660009081526020819052604090205481811015611f165760405162461bcd60e51b815260206004820152602260248201527f45524332303a206275726e20616d6f756e7420657863656564732062616c616e604482015261636560f01b606482015260840161078b565b6001600160a01b0383166000818152602081815260408083208686039055600280548790039055518581529192917fddf252ad1be2c89b69c2b068fc378daa952ba7f163c4a11628f55a4df523b3ef910160405180910390a361070b83600084611a0c565b60006108428284612aad565b816001600160a01b0316836001600160a01b031614158015611fa95750600081115b1561070b576001600160a01b03831615612037576001600160a01b0383166000908152600a602052604081208190611fe490611f7b85611cc1565b91509150846001600160a01b03167fdec2bacdd2f05b59de34da9b523dff8be42e5e38e818c82fdb0bae774387a724838360405161202c929190918252602082015260400190565b60405180910390a250505b6001600160a01b0382161561070b576001600160a01b0382166000908152600a60205260408120819061206d90611cb585611cc1565b91509150836001600160a01b03167fdec2bacdd2f05b59de34da9b523dff8be42e5e38e818c82fdb0bae774387a72483836040516120b5929190918252602082015260400190565b60405180910390a25050505050565b600d5460ff1615611be05760405162461bcd60e51b815260206004820152601060248201526f14185d5cd8589b194e881c185d5cd95960821b604482015260640161078b565b606060006121178361261c565b604080516020808252818301909252919250600091906020820181803683375050509182525060208101929092525090565b6000807f7fffffffffffffffffffffffffffffff5d576e7357a4501ddfe92f46681b20a08311156121805750600090506003612204565b6040805160008082526020820180845289905260ff881692820192909252606081018690526080810185905260019060a0016020604051602081039080840390855afa1580156121d4573d6000803e3d6000fd5b5050604051601f1901519150506001600160a01b0381166121fd57600060019250925050612204565b9150600090505b94509492505050565b600081600481111561222157612221612b95565b141561222a5750565b600181600481111561223e5761223e612b95565b141561228c5760405162461bcd60e51b815260206004820152601860248201527f45434453413a20696e76616c6964207369676e61747572650000000000000000604482015260640161078b565b60028160048111156122a0576122a0612b95565b14156122ee5760405162461bcd60e51b815260206004820152601f60248201527f45434453413a20696e76616c6964207369676e6174757265206c656e67746800604482015260640161078b565b600381600481111561230257612302612b95565b141561087b5760405162461bcd60e51b815260206004820152602260248201527f45434453413a20696e76616c6964207369676e6174757265202773272076616c604482015261756560f01b606482015260840161078b565b60606106126001600160a01b03831660145b6060600061237c836002612bab565b612387906002612a69565b67ffffffffffffffff81111561239f5761239f612a81565b6040519080825280601f01601f1916602001820160405280156123c9576020820181803683370190505b509050600360fc1b816000815181106123e4576123e4612a97565b60200101906001600160f81b031916908160001a905350600f60fb1b8160018151811061241357612413612a97565b60200101906001600160f81b031916908160001a9053506000612437846002612bab565b612442906001612a69565b90505b60018111156124ba576f181899199a1a9b1b9c1cb0b131b232b360811b85600f166010811061247657612476612a97565b1a60f81b82828151811061248c5761248c612a97565b60200101906001600160f81b031916908160001a90535060049490941c936124b381612bca565b9050612445565b5083156108425760405162461bcd60e51b815260206004820181905260248201527f537472696e67733a20686578206c656e67746820696e73756666696369656e74604482015260640161078b565b600080608083901c1561251e57608092831c92015b604083901c1561253057604092831c92015b602083901c1561254257602092831c92015b601083901c1561255457601092831c92015b600883901c1561256657600892831c92015b600483901c1561257857600492831c92015b600283901c1561258a57600292831c92015b600183901c156106125760010192915050565b60008183106125ac5781610842565b5090919050565b60006001600160e01b038211156117fd5760405162461bcd60e51b815260206004820152602760248201527f53616665436173743a2076616c756520646f65736e27742066697420696e20326044820152663234206269747360c81b606482015260840161078b565b600060ff8216601f81111561061257604051632cd44ac360e21b815260040160405180910390fd5b82805461265090612a1e565b90600052602060002090601f01602090048101928261267257600085556126b8565b82601f1061268b57805160ff19168380011785556126b8565b828001600101855582156126b8579182015b828111156126b857825182559160200191906001019061269d565b506117fd9291505b808211156117fd57600081556001016126c0565b6000602082840312156126e657600080fd5b81356001600160e01b03198116811461084257600080fd5b60005b83811015612719578181015183820152602001612701565b838111156111655750506000910152565b600081518084526127428160208601602086016126fe565b601f01601f19169290920160200192915050565b602081526000610842602083018461272a565b80356001600160a01b038116811461278057600080fd5b919050565b6000806040838503121561279857600080fd5b6127a183612769565b946020939093013593505050565b6000806000606084860312156127c457600080fd5b6127cd84612769565b92506127db60208501612769565b9150604084013590509250925092565b6000602082840312156127fd57600080fd5b5035919050565b6000806040838503121561281757600080fd5b8235915061282760208401612769565b90509250929050565b60006020828403121561284257600080fd5b61084282612769565b60ff60f81b881681526000602060e08184015261286b60e084018a61272a565b838103604085015261287d818a61272a565b606085018990526001600160a01b038816608086015260a0850187905284810360c0860152855180825283870192509083019060005b818110156128cf578351835292840192918401916001016128b3565b50909c9b505050505050505050505050565b803560ff8116811461278057600080fd5b60008060008060008060c0878903121561290b57600080fd5b61291487612769565b95506020870135945060408701359350612930606088016128e1565b92506080870135915060a087013590509295509295509295565b600080600080600080600060e0888a03121561296557600080fd5b61296e88612769565b965061297c60208901612769565b95506040880135945060608801359350612998608089016128e1565b925060a0880135915060c0880135905092959891949750929550565b600080604083850312156129c757600080fd5b6129d083612769565b915061282760208401612769565b600080604083850312156129f157600080fd5b6129fa83612769565b9150602083013563ffffffff81168114612a1357600080fd5b809150509250929050565b600181811c90821680612a3257607f821691505b602082108114156119c057634e487b7160e01b600052602260045260246000fd5b634e487b7160e01b600052601160045260246000fd5b60008219821115612a7c57612a7c612a53565b500190565b634e487b7160e01b600052604160045260246000fd5b634e487b7160e01b600052603260045260246000fd5b600082821015612abf57612abf612a53565b500390565b805160208083015191908110156119c05760001960209190910360031b1b16919050565b7f416363657373436f6e74726f6c3a206163636f756e7420000000000000000000815260008351612b208160178501602088016126fe565b7001034b99036b4b9b9b4b733903937b6329607d1b6017918401918201528351612b518160288401602088016126fe565b01602801949350505050565b634e487b7160e01b600052601260045260246000fd5b600082612b9057634e487b7160e01b600052601260045260246000fd5b500490565b634e487b7160e01b600052602160045260246000fd5b6000816000190483118215151615612bc557612bc5612a53565b500290565b600081612bd957612bd9612a53565b50600019019056fea26469706673582212207442d545cc14a2ccd0279be2fa99218de011048a05ea976351de6186cd86166164736f6c63430008090033",
  "devdoc": {
    "kind": "dev",
    "methods": {
      "CLOCK_MODE()": {
        "details": "Description of the clock"
      },
      "DOMAIN_SEPARATOR()": {
        "details": "Returns the domain separator used in the encoding of the signature for {permit}, as defined by {EIP712}."
      },
      "allowance(address,address)": {
        "details": "See {IERC20-allowance}."
      },
      "approve(address,uint256)": {
        "details": "See {IERC20-approve}. NOTE: If `amount` is the maximum `uint256`, the allowance is not updated on `transferFrom`. This is semantically equivalent to an infinite approval. Requirements: - `spender` cannot be the zero address."
      },
      "balanceOf(address)": {
        "details": "See {IERC20-balanceOf}."
      },
      "checkpoints(address,uint32)": {
        "details": "Get the `pos`-th checkpoint for `account`."
      },
      "clock()": {
        "details": "Clock used for flagging checkpoints. Can be overridden to implement timestamp based checkpoints (and voting)."
      },
      "decimals()": {
        "details": "Returns the number of decimals used to get its user representation. For example, if `decimals` equals `2`, a balance of `505` tokens should be displayed to a user as `5.05` (`505 / 10 ** 2`). Tokens usually opt for a value of 18, imitating the relationship between Ether and Wei. This is the default value returned by this function, unless it's overridden. NOTE: This information is only used for _display_ purposes: it in no way affects any of the arithmetic of the contract, including {IERC20-balanceOf} and {IERC20-transfer}."
      },
      "decreaseAllowance(address,uint256)": {
        "details": "Atomically decreases the allowance granted to `spender` by the caller. This is an alternative to {approve} that can be used as a mitigation for problems described in {IERC20-approve}. Emits an {Approval} event indicating the updated allowance. Requirements: - `spender` cannot be the zero address. - `spender` must have allowance for the caller of at least `subtractedValue`."
      },
      "delegate(address)": {
        "details": "Delegate votes from the sender to `delegatee`."
      },
      "delegateBySig(address,uint256,uint256,uint8,bytes32,bytes32)": {
        "details": "Delegates votes from signer to `delegatee`"
      },
      "delegates(address)": {
        "details": "Get the address `account` is currently delegating to."
      },
      "eip712Domain()": {
        "details": "See {EIP-5267}. _Available since v4.9._"
      },
      "getPastTotalSupply(uint256)": {
        "details": "Retrieve the `totalSupply` at the end of `timepoint`. Note, this value is the sum of all balances. It is NOT the sum of all the delegated votes! Requirements: - `timepoint` must be in the past"
      },
      "getPastVotes(address,uint256)": {
        "details": "Retrieve the number of votes for `account` at the end of `timepoint`. Requirements: - `timepoint` must be in the past"
      },
      "getRoleAdmin(bytes32)": {
        "details": "Returns the admin role that controls `role`. See {grantRole} and {revokeRole}. To change a role's admin, use {_setRoleAdmin}."
      },
      "getVotes(address)": {
        "details": "Gets the current votes balance for `account`"
      },
      "grantRole(bytes32,address)": {
        "details": "Grants `role` to `account`. If `account` had not been already granted `role`, emits a {RoleGranted} event. Requirements: - the caller must have ``role``'s admin role. May emit a {RoleGranted} event."
      },
      "hasRole(bytes32,address)": {
        "details": "Returns `true` if `account` has been granted `role`."
      },
      "increaseAllowance(address,uint256)": {
        "details": "Atomically increases the allowance granted to `spender` by the caller. This is an alternative to {approve} that can be used as a mitigation for problems described in {IERC20-approve}. Emits an {Approval} event indicating the updated allowance. Requirements: - `spender` cannot be the zero address."
      },
      "name()": {
        "details": "Returns the name of the token."
      },
      "nonces(address)": {
        "details": "Returns the current nonce for `owner`. This value must be included whenever a signature is generated for {permit}. Every successful call to {permit} increases ``owner``'s nonce by one. This prevents a signature from being used multiple times."
      },
      "numCheckpoints(address)": {
        "details": "Get number of checkpoints for `account`."
      },
      "paused()": {
        "details": "Returns true if the contract is paused, and false otherwise."
      },
      "permit(address,address,uint256,uint256,uint8,bytes32,bytes32)": {
        "details": "Sets `value` as the allowance of `spender` over ``owner``'s tokens, given ``owner``'s signed approval. IMPORTANT: The same issues {IERC20-approve} has related to transaction ordering also apply here. Emits an {Approval} event. Requirements: - `spender` cannot be the zero address. - `deadline` must be a timestamp in the future. - `v`, `r` and `s` must be a valid `secp256k1` signature from `owner` over the EIP712-formatted function arguments. - the signature must use ``owner``'s current nonce (see {nonces}). For more information on the signature format, see the https://eips.ethereum.org/EIPS/eip-2612#specification[relevant EIP section]. CAUTION: See Security Considerations above."
      },
      "renounceRole(bytes32,address)": {
        "details": "Revokes `role` from the calling account. Roles are often managed via {grantRole} and {revokeRole}: this function's purpose is to provide a mechanism for accounts to lose their privileges if they are compromised (such as when a trusted device is misplaced). If the calling account had been revoked `role`, emits a {RoleRevoked} event. Requirements: - the caller must be `account`. May emit a {RoleRevoked} event."
      },
      "revokeRole(bytes32,address)": {
        "details": "Revokes `role` from `account`. If `account` had been granted `role`, emits a {RoleRevoked} event. Requirements: - the caller must have ``role``'s admin role. May emit a {RoleRevoked} event."
      },
      "supportsInterface(bytes4)": {
        "details": "See {IERC165-supportsInterface}."
      },
      "symbol()": {
        "details": "Returns the symbol of the token, usually a shorter version of the name."
      },
      "totalSupply()": {
        "details": "See {IERC20-totalSupply}."
      },
      "transfer(address,uint256)": {
        "details": "See {IERC20-transfer}. Requirements: - `to` cannot be the zero address. - the caller must have a balance of at least `amount`."
      },
      "transferFrom(address,address,uint256)": {
        "details": "See {IERC20-transferFrom}. Emits an {Approval} event indicating the updated allowance. This is not required by the EIP. See the note at the beginning of {ERC20}. NOTE: Does not update the allowance if the current allowance is the maximum `uint256`. Requirements: - `from` and `to` cannot be the zero address. - `from` must have a balance of at least `amount`. - the caller must have allowance for ``from``'s tokens of at least `amount`."
      }
    },
    "version": 1
  },
  "userdoc": {
    "kind": "user",
    "methods": {},
    "version": 1
  },
  "storageLayout": {
    "storage": [
      {
        "astId": 7727,
        "contract": "contracts/EarthfastToken.sol:EarthfastToken",
        "label": "_balances",
        "offset": 0,
        "slot": "0",
        "type": "t_mapping(t_address,t_uint256)"
      },
      {
        "astId": 7733,
        "contract": "contracts/EarthfastToken.sol:EarthfastToken",
        "label": "_allowances",
        "offset": 0,
        "slot": "1",
        "type": "t_mapping(t_address,t_mapping(t_address,t_uint256))"
      },
      {
        "astId": 7735,
        "contract": "contracts/EarthfastToken.sol:EarthfastToken",
        "label": "_totalSupply",
        "offset": 0,
        "slot": "2",
        "type": "t_uint256"
      },
      {
        "astId": 7737,
        "contract": "contracts/EarthfastToken.sol:EarthfastToken",
        "label": "_name",
        "offset": 0,
        "slot": "3",
        "type": "t_string_storage"
      },
      {
        "astId": 7739,
        "contract": "contracts/EarthfastToken.sol:EarthfastToken",
        "label": "_symbol",
        "offset": 0,
        "slot": "4",
        "type": "t_string_storage"
      },
      {
        "astId": 12293,
        "contract": "contracts/EarthfastToken.sol:EarthfastToken",
        "label": "_nameFallback",
        "offset": 0,
        "slot": "5",
        "type": "t_string_storage"
      },
      {
        "astId": 12295,
        "contract": "contracts/EarthfastToken.sol:EarthfastToken",
        "label": "_versionFallback",
        "offset": 0,
        "slot": "6",
        "type": "t_string_storage"
      },
      {
        "astId": 8399,
        "contract": "contracts/EarthfastToken.sol:EarthfastToken",
        "label": "_nonces",
        "offset": 0,
        "slot": "7",
        "type": "t_mapping(t_address,t_struct(Counter)11271_storage)"
      },
      {
        "astId": 8407,
        "contract": "contracts/EarthfastToken.sol:EarthfastToken",
        "label": "_PERMIT_TYPEHASH_DEPRECATED_SLOT",
        "offset": 0,
        "slot": "8",
        "type": "t_bytes32"
      },
      {
        "astId": 8574,
        "contract": "contracts/EarthfastToken.sol:EarthfastToken",
        "label": "_delegates",
        "offset": 0,
        "slot": "9",
        "type": "t_mapping(t_address,t_address)"
      },
      {
        "astId": 8580,
        "contract": "contracts/EarthfastToken.sol:EarthfastToken",
        "label": "_checkpoints",
        "offset": 0,
        "slot": "10",
        "type": "t_mapping(t_address,t_array(t_struct(Checkpoint)8565_storage)dyn_storage)"
      },
      {
        "astId": 8584,
        "contract": "contracts/EarthfastToken.sol:EarthfastToken",
        "label": "_totalSupplyCheckpoints",
        "offset": 0,
        "slot": "11",
        "type": "t_array(t_struct(Checkpoint)8565_storage)dyn_storage"
      },
      {
        "astId": 3067,
        "contract": "contracts/EarthfastToken.sol:EarthfastToken",
        "label": "_roles",
        "offset": 0,
        "slot": "12",
        "type": "t_mapping(t_bytes32,t_struct(RoleData)3062_storage)"
      },
      {
        "astId": 7580,
        "contract": "contracts/EarthfastToken.sol:EarthfastToken",
        "label": "_paused",
        "offset": 0,
        "slot": "13",
        "type": "t_bool"
      }
    ],
    "types": {
      "t_address": {
        "encoding": "inplace",
        "label": "address",
        "numberOfBytes": "20"
      },
      "t_array(t_struct(Checkpoint)8565_storage)dyn_storage": {
        "base": "t_struct(Checkpoint)8565_storage",
        "encoding": "dynamic_array",
        "label": "struct ERC20Votes.Checkpoint[]",
        "numberOfBytes": "32"
      },
      "t_bool": {
        "encoding": "inplace",
        "label": "bool",
        "numberOfBytes": "1"
      },
      "t_bytes32": {
        "encoding": "inplace",
        "label": "bytes32",
        "numberOfBytes": "32"
      },
      "t_mapping(t_address,t_address)": {
        "encoding": "mapping",
        "key": "t_address",
        "label": "mapping(address => address)",
        "numberOfBytes": "32",
        "value": "t_address"
      },
      "t_mapping(t_address,t_array(t_struct(Checkpoint)8565_storage)dyn_storage)": {
        "encoding": "mapping",
        "key": "t_address",
        "label": "mapping(address => struct ERC20Votes.Checkpoint[])",
        "numberOfBytes": "32",
        "value": "t_array(t_struct(Checkpoint)8565_storage)dyn_storage"
      },
      "t_mapping(t_address,t_bool)": {
        "encoding": "mapping",
        "key": "t_address",
        "label": "mapping(address => bool)",
        "numberOfBytes": "32",
        "value": "t_bool"
      },
      "t_mapping(t_address,t_mapping(t_address,t_uint256))": {
        "encoding": "mapping",
        "key": "t_address",
        "label": "mapping(address => mapping(address => uint256))",
        "numberOfBytes": "32",
        "value": "t_mapping(t_address,t_uint256)"
      },
      "t_mapping(t_address,t_struct(Counter)11271_storage)": {
        "encoding": "mapping",
        "key": "t_address",
        "label": "mapping(address => struct Counters.Counter)",
        "numberOfBytes": "32",
        "value": "t_struct(Counter)11271_storage"
      },
      "t_mapping(t_address,t_uint256)": {
        "encoding": "mapping",
        "key": "t_address",
        "label": "mapping(address => uint256)",
        "numberOfBytes": "32",
        "value": "t_uint256"
      },
      "t_mapping(t_bytes32,t_struct(RoleData)3062_storage)": {
        "encoding": "mapping",
        "key": "t_bytes32",
        "label": "mapping(bytes32 => struct AccessControl.RoleData)",
        "numberOfBytes": "32",
        "value": "t_struct(RoleData)3062_storage"
      },
      "t_string_storage": {
        "encoding": "bytes",
        "label": "string",
        "numberOfBytes": "32"
      },
      "t_struct(Checkpoint)8565_storage": {
        "encoding": "inplace",
        "label": "struct ERC20Votes.Checkpoint",
        "members": [
          {
            "astId": 8562,
            "contract": "contracts/EarthfastToken.sol:EarthfastToken",
            "label": "fromBlock",
            "offset": 0,
            "slot": "0",
            "type": "t_uint32"
          },
          {
            "astId": 8564,
            "contract": "contracts/EarthfastToken.sol:EarthfastToken",
            "label": "votes",
            "offset": 4,
            "slot": "0",
            "type": "t_uint224"
          }
        ],
        "numberOfBytes": "32"
      },
      "t_struct(Counter)11271_storage": {
        "encoding": "inplace",
        "label": "struct Counters.Counter",
        "members": [
          {
            "astId": 11270,
            "contract": "contracts/EarthfastToken.sol:EarthfastToken",
            "label": "_value",
            "offset": 0,
            "slot": "0",
            "type": "t_uint256"
          }
        ],
        "numberOfBytes": "32"
      },
      "t_struct(RoleData)3062_storage": {
        "encoding": "inplace",
        "label": "struct AccessControl.RoleData",
        "members": [
          {
            "astId": 3059,
            "contract": "contracts/EarthfastToken.sol:EarthfastToken",
            "label": "members",
            "offset": 0,
            "slot": "0",
            "type": "t_mapping(t_address,t_bool)"
          },
          {
            "astId": 3061,
            "contract": "contracts/EarthfastToken.sol:EarthfastToken",
            "label": "adminRole",
            "offset": 0,
            "slot": "1",
            "type": "t_bytes32"
          }
        ],
        "numberOfBytes": "64"
      },
      "t_uint224": {
        "encoding": "inplace",
        "label": "uint224",
        "numberOfBytes": "28"
      },
      "t_uint256": {
        "encoding": "inplace",
        "label": "uint256",
        "numberOfBytes": "32"
      },
      "t_uint32": {
        "encoding": "inplace",
        "label": "uint32",
        "numberOfBytes": "4"
      }
    }
  }
}