{
  "address": "0x0DCd1Bf9A1b36cE34237eEaFef220932846BCD82",
  "abi": [
    {
      "anonymous": false,
      "inputs": [
        {
          "indexed": false,
          "internalType": "address",
          "name": "previousAdmin",
          "type": "address"
        },
        {
          "indexed": false,
          "internalType": "address",
          "name": "newAdmin",
          "type": "address"
        }
      ],
      "name": "AdminChanged",
      "type": "event"
    },
    {
      "anonymous": false,
      "inputs": [
        {
          "indexed": true,
          "internalType": "address",
          "name": "beacon",
          "type": "address"
        }
      ],
      "name": "BeaconUpgraded",
      "type": "event"
    },
    {
      "anonymous": false,
      "inputs": [
        {
          "indexed": false,
          "internalType": "uint8",
          "name": "version",
          "type": "uint8"
        }
      ],
      "name": "Initialized",
      "type": "event"
    },
    {
      "anonymous": false,
      "inputs": [
        {
          "indexed": true,
          "internalType": "bytes32",
          "name": "operatorId",
          "type": "bytes32"
        },
        {
          "indexed": false,
          "internalType": "uint256",
          "name": "oldBalance",
          "type": "uint256"
        },
        {
          "indexed": false,
          "internalType": "uint256",
          "name": "newBalance",
          "type": "uint256"
        }
      ],
      "name": "OperatorBalanceChanged",
      "type": "event"
    },
    {
      "anonymous": false,
      "inputs": [
        {
          "indexed": true,
          "internalType": "bytes32",
          "name": "operatorId",
          "type": "bytes32"
        },
        {
          "indexed": true,
          "internalType": "address",
          "name": "owner",
          "type": "address"
        },
        {
          "indexed": false,
          "internalType": "string",
          "name": "name",
          "type": "string"
        },
        {
          "indexed": false,
          "internalType": "string",
          "name": "email",
          "type": "string"
        }
      ],
      "name": "OperatorCreated",
      "type": "event"
    },
    {
      "anonymous": false,
      "inputs": [
        {
          "indexed": true,
          "internalType": "bytes32",
          "name": "operatorId",
          "type": "bytes32"
        },
        {
          "indexed": true,
          "internalType": "address",
          "name": "owner",
          "type": "address"
        },
        {
          "indexed": false,
          "internalType": "string",
          "name": "name",
          "type": "string"
        },
        {
          "indexed": false,
          "internalType": "string",
          "name": "email",
          "type": "string"
        }
      ],
      "name": "OperatorDeleted",
      "type": "event"
    },
    {
      "anonymous": false,
      "inputs": [
        {
          "indexed": true,
          "internalType": "bytes32",
          "name": "operatorId",
          "type": "bytes32"
        },
        {
          "indexed": true,
          "internalType": "address",
          "name": "oldOwner",
          "type": "address"
        },
        {
          "indexed": true,
          "internalType": "address",
          "name": "newOwner",
          "type": "address"
        }
      ],
      "name": "OperatorOwnerChanged",
      "type": "event"
    },
    {
      "anonymous": false,
      "inputs": [
        {
          "indexed": true,
          "internalType": "bytes32",
          "name": "operatorId",
          "type": "bytes32"
        },
        {
          "indexed": false,
          "internalType": "string",
          "name": "oldName",
          "type": "string"
        },
        {
          "indexed": false,
          "internalType": "string",
          "name": "oldEmail",
          "type": "string"
        },
        {
          "indexed": false,
          "internalType": "string",
          "name": "newName",
          "type": "string"
        },
        {
          "indexed": false,
          "internalType": "string",
          "name": "newEmail",
          "type": "string"
        }
      ],
      "name": "OperatorPropsChanged",
      "type": "event"
    },
    {
      "anonymous": false,
      "inputs": [
        {
          "indexed": true,
          "internalType": "bytes32",
          "name": "operatorId",
          "type": "bytes32"
        },
        {
          "indexed": false,
          "internalType": "uint256",
          "name": "oldStake",
          "type": "uint256"
        },
        {
          "indexed": false,
          "internalType": "uint256",
          "name": "newStake",
          "type": "uint256"
        }
      ],
      "name": "OperatorStakeChanged",
      "type": "event"
    },
    {
      "anonymous": false,
      "inputs": [
        {
          "indexed": false,
          "internalType": "address",
          "name": "account",
          "type": "address"
        }
      ],
      "name": "Paused",
      "type": "event"
    },
    {
      "anonymous": false,
      "inputs": [
        {
          "indexed": true,
          "internalType": "bytes32",
          "name": "role",
          "type": "bytes32"
        },
        {
          "indexed": true,
          "internalType": "bytes32",
          "name": "previousAdminRole",
          "type": "bytes32"
        },
        {
          "indexed": true,
          "internalType": "bytes32",
          "name": "newAdminRole",
          "type": "bytes32"
        }
      ],
      "name": "RoleAdminChanged",
      "type": "event"
    },
    {
      "anonymous": false,
      "inputs": [
        {
          "indexed": true,
          "internalType": "bytes32",
          "name": "role",
          "type": "bytes32"
        },
        {
          "indexed": true,
          "internalType": "address",
          "name": "account",
          "type": "address"
        },
        {
          "indexed": true,
          "internalType": "address",
          "name": "sender",
          "type": "address"
        }
      ],
      "name": "RoleGranted",
      "type": "event"
    },
    {
      "anonymous": false,
      "inputs": [
        {
          "indexed": true,
          "internalType": "bytes32",
          "name": "role",
          "type": "bytes32"
        },
        {
          "indexed": true,
          "internalType": "address",
          "name": "account",
          "type": "address"
        },
        {
          "indexed": true,
          "internalType": "address",
          "name": "sender",
          "type": "address"
        }
      ],
      "name": "RoleRevoked",
      "type": "event"
    },
    {
      "anonymous": false,
      "inputs": [
        {
          "indexed": false,
          "internalType": "address",
          "name": "account",
          "type": "address"
        }
      ],
      "name": "Unpaused",
      "type": "event"
    },
    {
      "anonymous": false,
      "inputs": [
        {
          "indexed": true,
          "internalType": "address",
          "name": "implementation",
          "type": "address"
        }
      ],
      "name": "Upgraded",
      "type": "event"
    },
    {
      "inputs": [],
      "name": "DEFAULT_ADMIN_ROLE",
      "outputs": [
        {
          "internalType": "bytes32",
          "name": "",
          "type": "bytes32"
        }
      ],
      "stateMutability": "view",
      "type": "function"
    },
    {
      "inputs": [],
      "name": "IMPORTER_ROLE",
      "outputs": [
        {
          "internalType": "bytes32",
          "name": "",
          "type": "bytes32"
        }
      ],
      "stateMutability": "view",
      "type": "function"
    },
    {
      "inputs": [
        {
          "internalType": "address",
          "name": "owner",
          "type": "address"
        },
        {
          "internalType": "string",
          "name": "name",
          "type": "string"
        },
        {
          "internalType": "string",
          "name": "email",
          "type": "string"
        }
      ],
      "name": "createOperator",
      "outputs": [
        {
          "internalType": "bytes32",
          "name": "operatorId",
          "type": "bytes32"
        }
      ],
      "stateMutability": "nonpayable",
      "type": "function"
    },
    {
      "inputs": [
        {
          "internalType": "bytes32",
          "name": "operatorId",
          "type": "bytes32"
        }
      ],
      "name": "deleteOperator",
      "outputs": [],
      "stateMutability": "nonpayable",
      "type": "function"
    },
    {
      "inputs": [
        {
          "internalType": "bytes32",
          "name": "operatorId",
          "type": "bytes32"
        },
        {
          "internalType": "uint256",
          "name": "amount",
          "type": "uint256"
        },
        {
          "internalType": "uint256",
          "name": "deadline",
          "type": "uint256"
        },
        {
          "internalType": "uint8",
          "name": "v",
          "type": "uint8"
        },
        {
          "internalType": "bytes32",
          "name": "r",
          "type": "bytes32"
        },
        {
          "internalType": "bytes32",
          "name": "s",
          "type": "bytes32"
        }
      ],
      "name": "depositOperatorBalance",
      "outputs": [],
      "stateMutability": "nonpayable",
      "type": "function"
    },
    {
      "inputs": [
        {
          "internalType": "bytes32",
          "name": "operatorId",
          "type": "bytes32"
        },
        {
          "internalType": "uint256",
          "name": "amount",
          "type": "uint256"
        },
        {
          "internalType": "uint256",
          "name": "deadline",
          "type": "uint256"
        },
        {
          "internalType": "uint8",
          "name": "v",
          "type": "uint8"
        },
        {
          "internalType": "bytes32",
          "name": "r",
          "type": "bytes32"
        },
        {
          "internalType": "bytes32",
          "name": "s",
          "type": "bytes32"
        }
      ],
      "name": "depositOperatorStake",
      "outputs": [],
      "stateMutability": "nonpayable",
      "type": "function"
    },
    {
      "inputs": [
        {
          "internalType": "bytes32",
          "name": "operatorId",
          "type": "bytes32"
        }
      ],
      "name": "getOperator",
      "outputs": [
        {
          "components": [
            {
              "internalType": "bytes32",
              "name": "id",
              "type": "bytes32"
            },
            {
              "internalType": "address",
              "name": "owner",
              "type": "address"
            },
            {
              "internalType": "string",
              "name": "name",
              "type": "string"
            },
            {
              "internalType": "string",
              "name": "email",
              "type": "string"
            },
            {
              "internalType": "uint256",
              "name": "stake",
              "type": "uint256"
            },
            {
              "internalType": "uint256",
              "name": "balance",
              "type": "uint256"
            }
          ],
          "internalType": "struct EarthfastOperator",
          "name": "",
          "type": "tuple"
        }
      ],
      "stateMutability": "view",
      "type": "function"
    },
    {
      "inputs": [],
      "name": "getOperatorCount",
      "outputs": [
        {
          "internalType": "uint256",
          "name": "",
          "type": "uint256"
        }
      ],
      "stateMutability": "view",
      "type": "function"
    },
    {
      "inputs": [
        {
          "internalType": "uint256",
          "name": "skip",
          "type": "uint256"
        },
        {
          "internalType": "uint256",
          "name": "size",
          "type": "uint256"
        }
      ],
      "name": "getOperators",
      "outputs": [
        {
          "components": [
            {
              "internalType": "bytes32",
              "name": "id",
              "type": "bytes32"
            },
            {
              "internalType": "address",
              "name": "owner",
              "type": "address"
            },
            {
              "internalType": "string",
              "name": "name",
              "type": "string"
            },
            {
              "internalType": "string",
              "name": "email",
              "type": "string"
            },
            {
              "internalType": "uint256",
              "name": "stake",
              "type": "uint256"
            },
            {
              "internalType": "uint256",
              "name": "balance",
              "type": "uint256"
            }
          ],
          "internalType": "struct EarthfastOperator[]",
          "name": "values",
          "type": "tuple[]"
        }
      ],
      "stateMutability": "view",
      "type": "function"
    },
    {
      "inputs": [],
      "name": "getRegistry",
      "outputs": [
        {
          "internalType": "contract EarthfastRegistry",
          "name": "",
          "type": "address"
        }
      ],
      "stateMutability": "view",
      "type": "function"
    },
    {
      "inputs": [
        {
          "internalType": "bytes32",
          "name": "role",
          "type": "bytes32"
        }
      ],
      "name": "getRoleAdmin",
      "outputs": [
        {
          "internalType": "bytes32",
          "name": "",
          "type": "bytes32"
        }
      ],
      "stateMutability": "view",
      "type": "function"
    },
    {
      "inputs": [],
      "name": "getStakePerNode",
      "outputs": [
        {
          "internalType": "uint256",
          "name": "",
          "type": "uint256"
        }
      ],
      "stateMutability": "view",
      "type": "function"
    },
    {
      "inputs": [
        {
          "internalType": "bytes32",
          "name": "role",
          "type": "bytes32"
        },
        {
          "internalType": "address",
          "name": "account",
          "type": "address"
        }
      ],
      "name": "grantRole",
      "outputs": [],
      "stateMutability": "nonpayable",
      "type": "function"
    },
    {
      "inputs": [
        {
          "internalType": "bytes32",
          "name": "role",
          "type": "bytes32"
        },
        {
          "internalType": "address",
          "name": "account",
          "type": "address"
        }
      ],
      "name": "hasRole",
      "outputs": [
        {
          "internalType": "bool",
          "name": "",
          "type": "bool"
        }
      ],
      "stateMutability": "view",
      "type": "function"
    },
    {
      "inputs": [
        {
          "internalType": "address[]",
          "name": "admins",
          "type": "address[]"
        },
        {
          "internalType": "contract EarthfastRegistry",
          "name": "registry",
          "type": "address"
        },
        {
          "internalType": "uint256",
          "name": "stakePerNode",
          "type": "uint256"
        },
        {
          "internalType": "bool",
          "name": "grantImporterRole",
          "type": "bool"
        }
      ],
      "name": "initialize",
      "outputs": [],
      "stateMutability": "nonpayable",
      "type": "function"
    },
    {
      "inputs": [],
      "name": "pause",
      "outputs": [],
      "stateMutability": "nonpayable",
      "type": "function"
    },
    {
      "inputs": [],
      "name": "paused",
      "outputs": [
        {
          "internalType": "bool",
          "name": "",
          "type": "bool"
        }
      ],
      "stateMutability": "view",
      "type": "function"
    },
    {
      "inputs": [],
      "name": "proxiableUUID",
      "outputs": [
        {
          "internalType": "bytes32",
          "name": "",
          "type": "bytes32"
        }
      ],
      "stateMutability": "view",
      "type": "function"
    },
    {
      "inputs": [
        {
          "internalType": "bytes32",
          "name": "role",
          "type": "bytes32"
        },
        {
          "internalType": "address",
          "name": "account",
          "type": "address"
        }
      ],
      "name": "renounceRole",
      "outputs": [],
      "stateMutability": "nonpayable",
      "type": "function"
    },
    {
      "inputs": [
        {
          "internalType": "bytes32",
          "name": "role",
          "type": "bytes32"
        },
        {
          "internalType": "address",
          "name": "account",
          "type": "address"
        }
      ],
      "name": "revokeRole",
      "outputs": [],
      "stateMutability": "nonpayable",
      "type": "function"
    },
    {
      "inputs": [
        {
          "internalType": "bytes32",
          "name": "operatorId",
          "type": "bytes32"
        },
        {
          "internalType": "uint256",
          "name": "decrease",
          "type": "uint256"
        },
        {
          "internalType": "uint256",
          "name": "increase",
          "type": "uint256"
        }
      ],
      "name": "setOperatorBalanceImpl",
      "outputs": [],
      "stateMutability": "nonpayable",
      "type": "function"
    },
    {
      "inputs": [
        {
          "internalType": "bytes32",
          "name": "operatorId",
          "type": "bytes32"
        },
        {
          "internalType": "address",
          "name": "owner",
          "type": "address"
        }
      ],
      "name": "setOperatorOwner",
      "outputs": [],
      "stateMutability": "nonpayable",
      "type": "function"
    },
    {
      "inputs": [
        {
          "internalType": "bytes32",
          "name": "operatorId",
          "type": "bytes32"
        },
        {
          "internalType": "string",
          "name": "name",
          "type": "string"
        },
        {
          "internalType": "string",
          "name": "email",
          "type": "string"
        }
      ],
      "name": "setOperatorProps",
      "outputs": [],
      "stateMutability": "nonpayable",
      "type": "function"
    },
    {
      "inputs": [
        {
          "internalType": "uint256",
          "name": "stake",
          "type": "uint256"
        }
      ],
      "name": "setStakePerNode",
      "outputs": [],
      "stateMutability": "nonpayable",
      "type": "function"
    },
    {
      "inputs": [
        {
          "internalType": "bytes4",
          "name": "interfaceId",
          "type": "bytes4"
        }
      ],
      "name": "supportsInterface",
      "outputs": [
        {
          "internalType": "bool",
          "name": "",
          "type": "bool"
        }
      ],
      "stateMutability": "view",
      "type": "function"
    },
    {
      "inputs": [],
      "name": "unpause",
      "outputs": [],
      "stateMutability": "nonpayable",
      "type": "function"
    },
    {
      "inputs": [
        {
          "components": [
            {
              "internalType": "bytes32",
              "name": "id",
              "type": "bytes32"
            },
            {
              "internalType": "address",
              "name": "owner",
              "type": "address"
            },
            {
              "internalType": "string",
              "name": "name",
              "type": "string"
            },
            {
              "internalType": "string",
              "name": "email",
              "type": "string"
            },
            {
              "internalType": "uint256",
              "name": "stake",
              "type": "uint256"
            },
            {
              "internalType": "uint256",
              "name": "balance",
              "type": "uint256"
            }
          ],
          "internalType": "struct EarthfastOperator[]",
          "name": "operators",
          "type": "tuple[]"
        },
        {
          "internalType": "bool",
          "name": "revokeImporterRole",
          "type": "bool"
        }
      ],
      "name": "unsafeImportData",
      "outputs": [],
      "stateMutability": "nonpayable",
      "type": "function"
    },
    {
      "inputs": [
        {
          "internalType": "uint256",
          "name": "skip",
          "type": "uint256"
        },
        {
          "internalType": "uint256",
          "name": "size",
          "type": "uint256"
        },
        {
          "internalType": "uint256",
          "name": "mul",
          "type": "uint256"
        },
        {
          "internalType": "uint256",
          "name": "div",
          "type": "uint256"
        }
      ],
      "name": "unsafeSetBalances",
      "outputs": [],
      "stateMutability": "nonpayable",
      "type": "function"
    },
    {
      "inputs": [
        {
          "internalType": "contract EarthfastRegistry",
          "name": "registry",
          "type": "address"
        }
      ],
      "name": "unsafeSetRegistry",
      "outputs": [],
      "stateMutability": "nonpayable",
      "type": "function"
    },
    {
      "inputs": [
        {
          "internalType": "address",
          "name": "newImplementation",
          "type": "address"
        }
      ],
      "name": "upgradeTo",
      "outputs": [],
      "stateMutability": "nonpayable",
      "type": "function"
    },
    {
      "inputs": [
        {
          "internalType": "address",
          "name": "newImplementation",
          "type": "address"
        },
        {
          "internalType": "bytes",
          "name": "data",
          "type": "bytes"
        }
      ],
      "name": "upgradeToAndCall",
      "outputs": [],
      "stateMutability": "payable",
      "type": "function"
    },
    {
      "inputs": [
        {
          "internalType": "bytes32",
          "name": "operatorId",
          "type": "bytes32"
        },
        {
          "internalType": "uint256",
          "name": "amount",
          "type": "uint256"
        },
        {
          "internalType": "address",
          "name": "to",
          "type": "address"
        }
      ],
      "name": "withdrawOperatorBalance",
      "outputs": [],
      "stateMutability": "nonpayable",
      "type": "function"
    },
    {
      "inputs": [
        {
          "internalType": "bytes32",
          "name": "operatorId",
          "type": "bytes32"
        },
        {
          "internalType": "uint256",
          "name": "amount",
          "type": "uint256"
        },
        {
          "internalType": "address",
          "name": "to",
          "type": "address"
        }
      ],
      "name": "withdrawOperatorStake",
      "outputs": [],
      "stateMutability": "nonpayable",
      "type": "function"
    }
  ],
  "numDeployments": 1,
  "solcInputHash": "bd734fc5ac02d01254db171a3c771404",
  "bytecode": "0x60a06040523060805234801561001457600080fd5b50608051614a9261004c6000396000818161152e0152818161156e01528181611f2b01528181611f6b0152611ffa0152614a926000f3fe6080604052600436106101ee5760003560e01c80635ab1bd531161010d578063a5f83733116100a0578063d547741f1161006f578063d547741f14610574578063e907057414610594578063ea4dd2b9146105b4578063f7d1f6d8146105e1578063fd6313fc146105f757600080fd5b8063a5f83733146104e7578063a96a5f9414610507578063b9a2adf014610534578063be0396381461055457600080fd5b80638456cb59116100dc5780638456cb591461047d5780638dd0d6a81461049257806391d14854146104b2578063a217fddf146104d257600080fd5b80635ab1bd53146103fa5780635c975abb146104235780636fa2a0671461043b5780636ffa072e1461045d57600080fd5b806336568abe116101855780633f4ba83a116101545780633f4ba83a1461039d5780634d60dead146103b25780634f1ef286146103d257806352d1902d146103e557600080fd5b806336568abe1461031d5780633659cfe61461033d57806339b035711461035d57806339d7a3ef1461037d57600080fd5b806322aba718116101c157806322aba7181461028d578063248a9ca3146102ad5780632f2ff15d146102dd5780632fd3f4ff146102fd57600080fd5b806301ffc9a7146101f3578063059c1cf7146102285780631a4a7c611461024a5780631c692cc61461026d575b600080fd5b3480156101ff57600080fd5b5061021361020e366004613d5a565b610617565b60405190151581526020015b60405180910390f35b34801561023457600080fd5b50610248610243366004613d99565b61064e565b005b34801561025657600080fd5b5061025f610a36565b60405190815260200161021f565b34801561027957600080fd5b5061025f610288366004613e1b565b610a48565b34801561029957600080fd5b506102486102a8366004613e9e565b610ded565b3480156102b957600080fd5b5061025f6102c8366004613ece565b60009081526065602052604090206001015490565b3480156102e957600080fd5b506102486102f8366004613e9e565b610f86565b34801561030957600080fd5b50610248610318366004613ece565b610fab565b34801561032957600080fd5b50610248610338366004613e9e565b6114a5565b34801561034957600080fd5b50610248610358366004613ee7565b611523565b34801561036957600080fd5b50610248610378366004613f57565b611603565b34801561038957600080fd5b50610248610398366004613fcb565b611894565b3480156103a957600080fd5b50610248611bed565b3480156103be57600080fd5b506102486103cd366004614002565b611c1e565b6102486103e0366004614071565b611f20565b3480156103f157600080fd5b5061025f611fed565b34801561040657600080fd5b5061015f546040516001600160a01b03909116815260200161021f565b34801561042f57600080fd5b5060975460ff16610213565b34801561044757600080fd5b5061025f600080516020614a3d83398151915281565b34801561046957600080fd5b50610248610478366004614135565b6120a0565b34801561048957600080fd5b506102486123c7565b34801561049e57600080fd5b506102486104ad366004614161565b6123f6565b3480156104be57600080fd5b506102136104cd366004613e9e565b6124fc565b3480156104de57600080fd5b5061025f600081565b3480156104f357600080fd5b50610248610502366004613d99565b612527565b34801561051357600080fd5b50610527610522366004613ece565b6127ea565b60405161021f9190614256565b34801561054057600080fd5b5061024861054f366004613ee7565b612988565b34801561056057600080fd5b5061024861056f366004614002565b6129d2565b34801561058057600080fd5b5061024861058f366004613e9e565b612cc2565b3480156105a057600080fd5b506102486105af366004613ece565b612ce7565b3480156105c057600080fd5b506105d46105cf366004614269565b612d14565b60405161021f919061428b565b3480156105ed57600080fd5b506101605461025f565b34801561060357600080fd5b506102486106123660046142ed565b612f60565b60006001600160e01b03198216637965db0b60e01b148061064857506301ffc9a760e01b6001600160e01b03198316145b92915050565b610656613091565b600083815261016160205260409020805484919061068f5760405162461bcd60e51b815260040161068690614339565b60405180910390fd5b61069a6000336124fc565b806106b1575060018101546001600160a01b031633145b6106cd5760405162461bcd60e51b815260040161068690614363565b61015f60009054906101000a90046001600160a01b03166001600160a01b031663bb1f47406040518163ffffffff1660e01b8152600401600060405180830381600087803b15801561071e57600080fd5b505af1158015610732573d6000803e3d6000fd5b5050505061073e6130eb565b600085815261016160205260409020805461075b5761075b614392565b61015f546040805163714ac0d560e11b815290516000926001600160a01b03169163e29581aa916004808301926020929190829003018186803b1580156107a157600080fd5b505afa1580156107b5573d6000803e3d6000fd5b505050506040513d601f19601f820116820180604052508101906107d991906143a8565b6101605460405163da0549ab60e01b8152600481018a90529192506000916001600160a01b0384169063da0549ab9060240160206040518083038186803b15801561082357600080fd5b505afa158015610837573d6000803e3d6000fd5b505050506040513d601f19601f8201168201806040525081019061085b91906143c5565b61086591906143f4565b9050808784600401546108789190614413565b10156108b95760405162461bcd60e51b815260206004820152601060248201526f6e6f7420656e6f756768207374616b6560801b6044820152606401610686565b60048301805490889060006108ce8385614413565b909155505061015f54604080516321df0da760e01b815290516001600160a01b03909216916321df0da791600480820192602092909190829003018186803b15801561091957600080fd5b505afa15801561092d573d6000803e3d6000fd5b505050506040513d601f19601f8201168201806040525081019061095191906143a8565b61015f546040516323b872dd60e01b81526001600160a01b03928316926323b872dd92610987929116908b908d9060040161442a565b602060405180830381600087803b1580156109a157600080fd5b505af11580156109b5573d6000803e3d6000fd5b505050506040513d601f19601f820116820180604052508101906109d9919061444e565b50887fff347b3ef13668fb2b608008fa7144e3a786de63377f6eb766ab91cf1ab9fe99828660040154604051610a19929190918252602082015260400190565b60405180910390a2505050505050610a31600160c955565b505050565b6000610a43610162613138565b905090565b61015f54604080516302ec7d1d60e61b815290516000926001600160a01b03169163bb1f4740916004808301928692919082900301818387803b158015610a8e57600080fd5b505af1158015610aa2573d6000803e3d6000fd5b50505050610aae6130eb565b6001600160a01b038616610af15760405162461bcd60e51b815260206004820152600a6024820152693d32b9379037bbb732b960b11b6044820152606401610686565b83610b2b5760405162461bcd60e51b815260206004820152600a602482015269656d707479206e616d6560b01b6044820152606401610686565b610100841115610b6d5760405162461bcd60e51b815260206004820152600d60248201526c6e616d6520746f6f206c6f6e6760981b6044820152606401610686565b610100821115610bb05760405162461bcd60e51b815260206004820152600e60248201526d656d61696c20746f6f206c6f6e6760901b6044820152606401610686565b61015f60009054906101000a90046001600160a01b03166001600160a01b03166379a6a3a56040518163ffffffff1660e01b8152600401602060405180830381600087803b158015610c0157600080fd5b505af1158015610c15573d6000803e3d6000fd5b505050506040513d601f19601f82011682018060405250810190610c3991906143c5565b604051602001610c4b91815260200190565b6040516020818303038152906040528051906020012090506040518060c00160405280828152602001876001600160a01b0316815260200186868080601f016020809104026020016040519081016040528093929190818152602001838380828437600092019190915250505090825250604080516020601f87018190048102820181019092528581529181019190869086908190840183828082843760009201829052509385525050506020808301829052604092830182905284825261016181529082902083518155838201516001820180546001600160a01b0319166001600160a01b03909216919091179055918301518051610d519260028501920190613bd1565b5060608201518051610d6d916003840191602090910190613bd1565b506080820151600482015560a090910151600590910155610d9061016282613142565b610d9c57610d9c614392565b856001600160a01b0316817fb69d73b1d17f5aeee20a448e7c6b20e50bff49b8b42a4cd1c7bad3ba9151328587878787604051610ddc9493929190614494565b60405180910390a395945050505050565b6000828152610161602052604090208054839190610e1d5760405162461bcd60e51b815260040161068690614339565b610e286000336124fc565b80610e3f575060018101546001600160a01b031633145b610e5b5760405162461bcd60e51b815260040161068690614363565b61015f60009054906101000a90046001600160a01b03166001600160a01b031663bb1f47406040518163ffffffff1660e01b8152600401600060405180830381600087803b158015610eac57600080fd5b505af1158015610ec0573d6000803e3d6000fd5b50505050610ecc6130eb565b6001600160a01b038316610f0f5760405162461bcd60e51b815260206004820152600a6024820152693d32b9379037bbb732b960b11b6044820152606401610686565b6000848152610161602052604090208054610f2c57610f2c614392565b6001810180546001600160a01b038681166001600160a01b03198316811790935560405191169190829088907fcf0cd5f1c87e8fdf7da54eae19fcf4bc1c7efb862da39f2ec343f964433cf12990600090a4505050505050565b600082815260656020526040902060010154610fa181613155565b610a31838361315f565b6000818152610161602052604090208054829190610fdb5760405162461bcd60e51b815260040161068690614339565b610fe66000336124fc565b80610ffd575060018101546001600160a01b031633145b6110195760405162461bcd60e51b815260040161068690614363565b61015f60009054906101000a90046001600160a01b03166001600160a01b031663bb1f47406040518163ffffffff1660e01b8152600401600060405180830381600087803b15801561106a57600080fd5b505af115801561107e573d6000803e3d6000fd5b5050505061108a6130eb565b600083815261016160209081526040808320815160c0810183528154815260018201546001600160a01b03169381019390935260028101805491928401916110d1906144c6565b80601f01602080910402602001604051908101604052809291908181526020018280546110fd906144c6565b801561114a5780601f1061111f5761010080835404028352916020019161114a565b820191906000526020600020905b81548152906001019060200180831161112d57829003601f168201915b50505050508152602001600382018054611163906144c6565b80601f016020809104026020016040519081016040528092919081815260200182805461118f906144c6565b80156111dc5780601f106111b1576101008083540402835291602001916111dc565b820191906000526020600020905b8154815290600101906020018083116111bf57829003601f168201915b505050918352505060048201546020820152600590910154604090910152805190915061121b5760405162461bcd60e51b815260040161068690614339565b61015f546040805163714ac0d560e11b815290516000926001600160a01b03169163e29581aa916004808301926020929190829003018186803b15801561126157600080fd5b505afa158015611275573d6000803e3d6000fd5b505050506040513d601f19601f8201168201806040525081019061129991906143a8565b60405163da0549ab60e01b8152600481018790529091506001600160a01b0382169063da0549ab9060240160206040518083038186803b1580156112dc57600080fd5b505afa1580156112f0573d6000803e3d6000fd5b505050506040513d601f19601f8201168201806040525081019061131491906143c5565b156113565760405162461bcd60e51b81526020600482015260126024820152716f70657261746f7220686173206e6f64657360701b6044820152606401610686565b60808201511561139d5760405162461bcd60e51b81526020600482015260126024820152716f70657261746f7220686173207374616b6560701b6044820152606401610686565b60a0820151156113e65760405162461bcd60e51b81526020600482015260146024820152736f70657261746f72206861732062616c616e636560601b6044820152606401610686565b6000858152610161602052604081208181556001810180546001600160a01b0319169055906114186002830182613c55565b611426600383016000613c55565b50600060048201819055600590910155611442610162866131e5565b61144e5761144e614392565b81602001516001600160a01b0316857f47a82ad5da4f4bfefb8f774802d2eee3406e1275298e00871e43b021b6d7a8d584604001518560600151604051611496929190614501565b60405180910390a35050505050565b6001600160a01b03811633146115155760405162461bcd60e51b815260206004820152602f60248201527f416363657373436f6e74726f6c3a2063616e206f6e6c792072656e6f756e636560448201526e103937b632b9903337b91039b2b63360891b6064820152608401610686565b61151f82826131f1565b5050565b306001600160a01b037f000000000000000000000000000000000000000000000000000000000000000016141561156c5760405162461bcd60e51b81526004016106869061452f565b7f00000000000000000000000000000000000000000000000000000000000000006001600160a01b03166115b56000805160206149f6833981519152546001600160a01b031690565b6001600160a01b0316146115db5760405162461bcd60e51b81526004016106869061457b565b6115e481613258565b604080516000808252602082019092526116009183919061327f565b50565b600054610100900460ff16158080156116235750600054600160ff909116105b8061163d5750303b15801561163d575060005460ff166001145b6116a05760405162461bcd60e51b815260206004820152602e60248201527f496e697469616c697a61626c653a20636f6e747261637420697320616c72656160448201526d191e481a5b9a5d1a585b1a5e995960921b6064820152608401610686565b6000805460ff1916600117905580156116c3576000805461ff0019166101001790555b6116cb6133f9565b6116d36133f9565b6116db6133f9565b6116e36133f9565b6116eb613420565b6116f361344f565b6116fb6133f9565b61015f80546001600160a01b0319166001600160a01b038616179055610160839055846117565760405162461bcd60e51b81526020600482015260096024820152686e6f2061646d696e7360b81b6044820152606401610686565b60005b8581101561180f576000878783818110611775576117756145c7565b905060200201602081019061178a9190613ee7565b6001600160a01b031614156117ce5760405162461bcd60e51b815260206004820152600a6024820152693d32b9379030b236b4b760b11b6044820152606401610686565b6117ff60008888848181106117e5576117e56145c7565b90506020020160208101906117fa9190613ee7565b61315f565b611808816145dd565b9050611759565b5081156118465761182e600080516020614a3d8339815191523261315f565b611846600080516020614a3d8339815191528061347e565b801561188c576000805461ff0019169055604051600181527f7f26b83ff96e1f2b6a682f133852f6798a09c465da95921460cefb38474024989060200160405180910390a15b505050505050565b60008581526101616020526040902080548691906118c45760405162461bcd60e51b815260040161068690614339565b60018101546001600160a01b0316331461190f5760405162461bcd60e51b815260206004820152600c60248201526b3737ba1037b832b930ba37b960a11b6044820152606401610686565b61015f60009054906101000a90046001600160a01b03166001600160a01b031663bb1f47406040518163ffffffff1660e01b8152600401600060405180830381600087803b15801561196057600080fd5b505af1158015611974573d6000803e3d6000fd5b505050506119806130eb565b846119ba5760405162461bcd60e51b815260206004820152600a602482015269656d707479206e616d6560b01b6044820152606401610686565b6101008511156119fc5760405162461bcd60e51b815260206004820152600d60248201526c6e616d6520746f6f206c6f6e6760981b6044820152606401610686565b610100831115611a3f5760405162461bcd60e51b815260206004820152600e60248201526d656d61696c20746f6f206c6f6e6760901b6044820152606401610686565b6000878152610161602052604090208054611a5c57611a5c614392565b6000816002018054611a6d906144c6565b80601f0160208091040260200160405190810160405280929190818152602001828054611a99906144c6565b8015611ae65780601f10611abb57610100808354040283529160200191611ae6565b820191906000526020600020905b815481529060010190602001808311611ac957829003601f168201915b505050505090506000826003018054611afe906144c6565b80601f0160208091040260200160405190810160405280929190818152602001828054611b2a906144c6565b8015611b775780601f10611b4c57610100808354040283529160200191611b77565b820191906000526020600020905b815481529060010190602001808311611b5a57829003601f168201915b50939450611b8f935050506002850190508a8a613c8f565b50611b9e600384018888613c8f565b50897f42478da6f365394de83444b3d922d94b6aec68bcf0961b9acd1fe05ed84c908a83838c8c8c8c604051611bd9969594939291906145f8565b60405180910390a250505050505050505050565b611bf86000336124fc565b611c145760405162461bcd60e51b815260040161068690614654565b611c1c6134c9565b565b611c266130eb565b6000868152610161602052604090208054611c535760405162461bcd60e51b815260040161068690614339565b6005810180549087906000611c688385614677565b90915550508215611d685761015f60009054906101000a90046001600160a01b03166001600160a01b0316631bf01e9b6040518163ffffffff1660e01b815260040160206040518083038186803b158015611cc257600080fd5b505afa158015611cd6573d6000803e3d6000fd5b505050506040513d601f19601f82011682018060405250810190611cfa91906143a8565b6001600160a01b031663d505accf33308a8a8a8a8a6040518863ffffffff1660e01b8152600401611d31979695949392919061468f565b600060405180830381600087803b158015611d4b57600080fd5b505af1158015611d5f573d6000803e3d6000fd5b50505050611dbe565b85158015611d77575060ff8516155b8015611d81575083155b611dbe5760405162461bcd60e51b815260206004820152600e60248201526d1a5b9d985b1a59081c195c9b5a5d60921b6044820152606401610686565b61015f60009054906101000a90046001600160a01b03166001600160a01b0316631bf01e9b6040518163ffffffff1660e01b815260040160206040518083038186803b158015611e0d57600080fd5b505afa158015611e21573d6000803e3d6000fd5b505050506040513d601f19601f82011682018060405250810190611e4591906143a8565b61015f546040516323b872dd60e01b81526001600160a01b03928316926323b872dd92611e7c923392909116908c9060040161442a565b602060405180830381600087803b158015611e9657600080fd5b505af1158015611eaa573d6000803e3d6000fd5b505050506040513d601f19601f82011682018060405250810190611ece919061444e565b50877f785b2848c05c2f0d9bfe93d39a82b1f786de7840ab58adf840e13b98ed158232828460050154604051611f0e929190918252602082015260400190565b60405180910390a25050505050505050565b306001600160a01b037f0000000000000000000000000000000000000000000000000000000000000000161415611f695760405162461bcd60e51b81526004016106869061452f565b7f00000000000000000000000000000000000000000000000000000000000000006001600160a01b0316611fb26000805160206149f6833981519152546001600160a01b031690565b6001600160a01b031614611fd85760405162461bcd60e51b81526004016106869061457b565b611fe182613258565b61151f8282600161327f565b6000306001600160a01b037f0000000000000000000000000000000000000000000000000000000000000000161461208d5760405162461bcd60e51b815260206004820152603860248201527f555550535570677261646561626c653a206d757374206e6f742062652063616c60448201527f6c6564207468726f7567682064656c656761746563616c6c00000000000000006064820152608401610686565b506000805160206149f683398151915290565b61015f60009054906101000a90046001600160a01b03166001600160a01b031663299372686040518163ffffffff1660e01b815260040160206040518083038186803b1580156120ef57600080fd5b505afa158015612103573d6000803e3d6000fd5b505050506040513d601f19601f8201168201806040525081019061212791906143a8565b6001600160a01b0316336001600160a01b031614806121dd575061015f60009054906101000a90046001600160a01b03166001600160a01b031663e29581aa6040518163ffffffff1660e01b815260040160206040518083038186803b15801561219057600080fd5b505afa1580156121a4573d6000803e3d6000fd5b505050506040513d601f19601f820116820180604052508101906121c891906143a8565b6001600160a01b0316336001600160a01b0316145b8061227f575061015f60009054906101000a90046001600160a01b03166001600160a01b031663dcc601286040518163ffffffff1660e01b815260040160206040518083038186803b15801561223257600080fd5b505afa158015612246573d6000803e3d6000fd5b505050506040513d601f19601f8201168201806040525081019061226a91906143a8565b6001600160a01b0316336001600160a01b0316145b80612321575061015f60009054906101000a90046001600160a01b03166001600160a01b0316639c200b886040518163ffffffff1660e01b815260040160206040518083038186803b1580156122d457600080fd5b505afa1580156122e8573d6000803e3d6000fd5b505050506040513d601f19601f8201168201806040525081019061230c91906143a8565b6001600160a01b0316336001600160a01b0316145b6123585760405162461bcd60e51b81526020600482015260086024820152671b9bdd081a5b5c1b60c21b6044820152606401610686565b6123606130eb565b600083815261016160205260409020805461238d5760405162461bcd60e51b815260040161068690614339565b828160050160008282546123a19190614413565b92505081905550818160050160008282546123bc9190614677565b909155505050505050565b6123d26000336124fc565b6123ee5760405162461bcd60e51b815260040161068690614654565b611c1c61351b565b6124016000336124fc565b61241d5760405162461bcd60e51b815260040161068690614654565b816124555760405162461bcd60e51b81526020600482015260086024820152671e995c9bc81b5d5b60c21b6044820152606401610686565b6000612462610162613138565b9050600061248785878411612478576000613558565b6124828885614413565b613558565b905060005b818110156124f3576000610161816124b06124a7858c614677565b6101629061356e565b81526020019081526020016000209050848682600501546124d191906143f4565b6124db91906146d0565b600590910155806124eb816145dd565b91505061248c565b50505050505050565b60009182526065602090815260408084206001600160a01b0393909316845291905290205460ff1690565b61252f613091565b600083815261016160205260409020805484919061255f5760405162461bcd60e51b815260040161068690614339565b61256a6000336124fc565b80612581575060018101546001600160a01b031633145b61259d5760405162461bcd60e51b815260040161068690614363565b61015f60009054906101000a90046001600160a01b03166001600160a01b031663bb1f47406040518163ffffffff1660e01b8152600401600060405180830381600087803b1580156125ee57600080fd5b505af1158015612602573d6000803e3d6000fd5b5050505061260e6130eb565b600085815261016160205260409020805461262b5761262b614392565b84816005015410156126745760405162461bcd60e51b81526020600482015260126024820152716e6f7420656e6f7567682062616c616e636560701b6044820152606401610686565b60058101805490869060006126898385614413565b909155505061015f5460408051631bf01e9b60e01b815290516001600160a01b0390921691631bf01e9b91600480820192602092909190829003018186803b1580156126d457600080fd5b505afa1580156126e8573d6000803e3d6000fd5b505050506040513d601f19601f8201168201806040525081019061270c91906143a8565b61015f546040516323b872dd60e01b81526001600160a01b03928316926323b872dd926127429291169089908b9060040161442a565b602060405180830381600087803b15801561275c57600080fd5b505af1158015612770573d6000803e3d6000fd5b505050506040513d601f19601f82011682018060405250810190612794919061444e565b50867f785b2848c05c2f0d9bfe93d39a82b1f786de7840ab58adf840e13b98ed1582328284600501546040516127d4929190918252602082015260400190565b60405180910390a250505050610a31600160c955565b6127f2613d03565b600082815261016160205260409020805461281f5760405162461bcd60e51b815260040161068690614339565b6040805160c0810182528254815260018301546001600160a01b03166020820152600283018054919284929084019190612858906144c6565b80601f0160208091040260200160405190810160405280929190818152602001828054612884906144c6565b80156128d15780601f106128a6576101008083540402835291602001916128d1565b820191906000526020600020905b8154815290600101906020018083116128b457829003601f168201915b505050505081526020016003820180546128ea906144c6565b80601f0160208091040260200160405190810160405280929190818152602001828054612916906144c6565b80156129635780601f1061293857610100808354040283529160200191612963565b820191906000526020600020905b81548152906001019060200180831161294657829003601f168201915b5050505050815260200160048201548152602001600582015481525050915050919050565b6129936000336124fc565b6129af5760405162461bcd60e51b815260040161068690614654565b61015f80546001600160a01b0319166001600160a01b0392909216919091179055565b6129da6130eb565b6000868152610161602052604090208054612a075760405162461bcd60e51b815260040161068690614339565b6004810180549087906000612a1c8385614677565b90915550508215612b1c5761015f60009054906101000a90046001600160a01b03166001600160a01b03166321df0da76040518163ffffffff1660e01b815260040160206040518083038186803b158015612a7657600080fd5b505afa158015612a8a573d6000803e3d6000fd5b505050506040513d601f19601f82011682018060405250810190612aae91906143a8565b6001600160a01b031663d505accf33308a8a8a8a8a6040518863ffffffff1660e01b8152600401612ae5979695949392919061468f565b600060405180830381600087803b158015612aff57600080fd5b505af1158015612b13573d6000803e3d6000fd5b50505050612b72565b85158015612b2b575060ff8516155b8015612b35575083155b612b725760405162461bcd60e51b815260206004820152600e60248201526d1a5b9d985b1a59081c195c9b5a5d60921b6044820152606401610686565b61015f60009054906101000a90046001600160a01b03166001600160a01b03166321df0da76040518163ffffffff1660e01b815260040160206040518083038186803b158015612bc157600080fd5b505afa158015612bd5573d6000803e3d6000fd5b505050506040513d601f19601f82011682018060405250810190612bf991906143a8565b61015f546040516323b872dd60e01b81526001600160a01b03928316926323b872dd92612c30923392909116908c9060040161442a565b602060405180830381600087803b158015612c4a57600080fd5b505af1158015612c5e573d6000803e3d6000fd5b505050506040513d601f19601f82011682018060405250810190612c82919061444e565b50877fff347b3ef13668fb2b608008fa7144e3a786de63377f6eb766ab91cf1ab9fe99828460040154604051611f0e929190918252602082015260400190565b600082815260656020526040902060010154612cdd81613155565b610a3183836131f1565b612cf26000336124fc565b612d0e5760405162461bcd60e51b815260040161068690614654565b61016055565b60606000612d23610162613138565b90506000612d4384868411612d39576000613558565b6124828785614413565b90508067ffffffffffffffff811115612d5e57612d5e61405b565b604051908082528060200260200182016040528015612d9757816020015b612d84613d03565b815260200190600190039081612d7c5790505b50925060005b81811015612f57576101616000612db76124a7848a614677565b81526020808201929092526040908101600020815160c0810183528154815260018201546001600160a01b0316938101939093526002810180549192840191612dff906144c6565b80601f0160208091040260200160405190810160405280929190818152602001828054612e2b906144c6565b8015612e785780601f10612e4d57610100808354040283529160200191612e78565b820191906000526020600020905b815481529060010190602001808311612e5b57829003601f168201915b50505050508152602001600382018054612e91906144c6565b80601f0160208091040260200160405190810160405280929190818152602001828054612ebd906144c6565b8015612f0a5780601f10612edf57610100808354040283529160200191612f0a565b820191906000526020600020905b815481529060010190602001808311612eed57829003601f168201915b5050505050815260200160048201548152602001600582015481525050848281518110612f3957612f396145c7565b60200260200101819052508080612f4f906145dd565b915050612d9d565b50505092915050565b600080516020614a3d833981519152612f7881613155565b60005b8381101561306c57848482818110612f9557612f956145c7565b9050602002810190612fa791906146f2565b6101616000878785818110612fbe57612fbe6145c7565b9050602002810190612fd091906146f2565b3581526020810191909152604001600020612feb8282614860565b90505061301f858583818110613003576130036145c7565b905060200281019061301591906146f2565b6101629035613142565b61305a5760405162461bcd60e51b815260206004820152600c60248201526b191d5c1b1a58d85d19481a5960a21b6044820152606401610686565b80613064816145dd565b915050612f7b565b50811561308b5761308b600080516020614a3d833981519152336131f1565b50505050565b600260c95414156130e45760405162461bcd60e51b815260206004820152601f60248201527f5265656e7472616e637947756172643a207265656e7472616e742063616c6c006044820152606401610686565b600260c955565b60975460ff1615611c1c5760405162461bcd60e51b815260206004820152601060248201526f14185d5cd8589b194e881c185d5cd95960821b6044820152606401610686565b600160c955565b6000610648825490565b600061314e838361357a565b9392505050565b61160081336135c9565b61316982826124fc565b61151f5760008281526065602090815260408083206001600160a01b03851684529091529020805460ff191660011790556131a13390565b6001600160a01b0316816001600160a01b0316837f2f8788117e7eff1d82e926ec794901d17c78024a50270940304540a733656f0d60405160405180910390a45050565b600061314e8383613622565b6131fb82826124fc565b1561151f5760008281526065602090815260408083206001600160a01b0385168085529252808320805460ff1916905551339285917ff6391f5c32d9c69d2a47ea670b442974b53935d1edc7fd64eb21e047a839171b9190a45050565b6132636000336124fc565b6116005760405162461bcd60e51b815260040161068690614654565b7f4910fdfa16fed3260ed0e7147f7cc6da11a60208b5b9406d12a635614ffd91435460ff16156132b257610a3183613715565b826001600160a01b03166352d1902d6040518163ffffffff1660e01b815260040160206040518083038186803b1580156132eb57600080fd5b505afa92505050801561331b575060408051601f3d908101601f19168201909252613318918101906143c5565b60015b61337e5760405162461bcd60e51b815260206004820152602e60248201527f45524331393637557067726164653a206e657720696d706c656d656e7461746960448201526d6f6e206973206e6f74205555505360901b6064820152608401610686565b6000805160206149f683398151915281146133ed5760405162461bcd60e51b815260206004820152602960248201527f45524331393637557067726164653a20756e737570706f727465642070726f786044820152681a58589b195555525160ba1b6064820152608401610686565b50610a318383836137b1565b600054610100900460ff16611c1c5760405162461bcd60e51b8152600401610686906148e3565b600054610100900460ff166134475760405162461bcd60e51b8152600401610686906148e3565b611c1c6137d6565b600054610100900460ff166134765760405162461bcd60e51b8152600401610686906148e3565b611c1c613809565b600082815260656020526040808220600101805490849055905190918391839186917fbd79b86ffe0ab8e8776151514217cd7cacd52c909f66475c3af44e129f0b00ff9190a4505050565b6134d1613830565b6097805460ff191690557f5db9ee0a495bf2e6ff9c91a7834c1ba4fdd244a5e8aa4e537bd38aeae4b073aa335b6040516001600160a01b03909116815260200160405180910390a1565b6135236130eb565b6097805460ff191660011790557f62e78cea01bee320cd4e420270b5ea74000d11b0c9f74754ebdbfc544b05a2586134fe3390565b6000818310613567578161314e565b5090919050565b600061314e8383613879565b60008181526001830160205260408120546135c157508154600181810184556000848152602080822090930184905584548482528286019093526040902091909155610648565b506000610648565b6135d382826124fc565b61151f576135e0816138a3565b6135eb8360206138b5565b6040516020016135fc92919061492e565b60408051601f198184030181529082905262461bcd60e51b8252610686916004016149a3565b6000818152600183016020526040812054801561370b576000613646600183614413565b855490915060009061365a90600190614413565b90508181146136bf57600086600001828154811061367a5761367a6145c7565b906000526020600020015490508087600001848154811061369d5761369d6145c7565b6000918252602080832090910192909255918252600188019052604090208390555b85548690806136d0576136d06149b6565b600190038181906000526020600020016000905590558560010160008681526020019081526020016000206000905560019350505050610648565b6000915050610648565b6001600160a01b0381163b6137825760405162461bcd60e51b815260206004820152602d60248201527f455243313936373a206e657720696d706c656d656e746174696f6e206973206e60448201526c1bdd08184818dbdb9d1c9858dd609a1b6064820152608401610686565b6000805160206149f683398151915280546001600160a01b0319166001600160a01b0392909216919091179055565b6137ba83613a51565b6000825111806137c75750805b15610a315761308b8383613a91565b600054610100900460ff166137fd5760405162461bcd60e51b8152600401610686906148e3565b6097805460ff19169055565b600054610100900460ff166131315760405162461bcd60e51b8152600401610686906148e3565b60975460ff16611c1c5760405162461bcd60e51b815260206004820152601460248201527314185d5cd8589b194e881b9bdd081c185d5cd95960621b6044820152606401610686565b6000826000018281548110613890576138906145c7565b9060005260206000200154905092915050565b60606106486001600160a01b03831660145b606060006138c48360026143f4565b6138cf906002614677565b67ffffffffffffffff8111156138e7576138e761405b565b6040519080825280601f01601f191660200182016040528015613911576020820181803683370190505b509050600360fc1b8160008151811061392c5761392c6145c7565b60200101906001600160f81b031916908160001a905350600f60fb1b8160018151811061395b5761395b6145c7565b60200101906001600160f81b031916908160001a905350600061397f8460026143f4565b61398a906001614677565b90505b6001811115613a02576f181899199a1a9b1b9c1cb0b131b232b360811b85600f16601081106139be576139be6145c7565b1a60f81b8282815181106139d4576139d46145c7565b60200101906001600160f81b031916908160001a90535060049490941c936139fb816149cc565b905061398d565b50831561314e5760405162461bcd60e51b815260206004820181905260248201527f537472696e67733a20686578206c656e67746820696e73756666696369656e746044820152606401610686565b613a5a81613715565b6040516001600160a01b038216907fbc7cd75a20ee27fd9adebab32041f755214dbc6bffa90cc0225b39da2e5c2d3b90600090a250565b606061314e8383604051806060016040528060278152602001614a16602791396060600080856001600160a01b031685604051613ace91906149e3565b600060405180830381855af49150503d8060008114613b09576040519150601f19603f3d011682016040523d82523d6000602084013e613b0e565b606091505b5091509150613b1f86838387613b29565b9695505050505050565b60608315613b95578251613b8e576001600160a01b0385163b613b8e5760405162461bcd60e51b815260206004820152601d60248201527f416464726573733a2063616c6c20746f206e6f6e2d636f6e74726163740000006044820152606401610686565b5081613b9f565b613b9f8383613ba7565b949350505050565b815115613bb75781518083602001fd5b8060405162461bcd60e51b815260040161068691906149a3565b828054613bdd906144c6565b90600052602060002090601f016020900481019282613bff5760008555613c45565b82601f10613c1857805160ff1916838001178555613c45565b82800160010185558215613c45579182015b82811115613c45578251825591602001919060010190613c2a565b50613c51929150613d45565b5090565b508054613c61906144c6565b6000825580601f10613c71575050565b601f0160209004906000526020600020908101906116009190613d45565b828054613c9b906144c6565b90600052602060002090601f016020900481019282613cbd5760008555613c45565b82601f10613cd65782800160ff19823516178555613c45565b82800160010185558215613c45579182015b82811115613c45578235825591602001919060010190613ce8565b6040518060c001604052806000801916815260200160006001600160a01b03168152602001606081526020016060815260200160008152602001600081525090565b5b80821115613c515760008155600101613d46565b600060208284031215613d6c57600080fd5b81356001600160e01b03198116811461314e57600080fd5b6001600160a01b038116811461160057600080fd5b600080600060608486031215613dae57600080fd5b83359250602084013591506040840135613dc781613d84565b809150509250925092565b60008083601f840112613de457600080fd5b50813567ffffffffffffffff811115613dfc57600080fd5b602083019150836020828501011115613e1457600080fd5b9250929050565b600080600080600060608688031215613e3357600080fd5b8535613e3e81613d84565b9450602086013567ffffffffffffffff80821115613e5b57600080fd5b613e6789838a01613dd2565b90965094506040880135915080821115613e8057600080fd5b50613e8d88828901613dd2565b969995985093965092949392505050565b60008060408385031215613eb157600080fd5b823591506020830135613ec381613d84565b809150509250929050565b600060208284031215613ee057600080fd5b5035919050565b600060208284031215613ef957600080fd5b813561314e81613d84565b60008083601f840112613f1657600080fd5b50813567ffffffffffffffff811115613f2e57600080fd5b6020830191508360208260051b8501011115613e1457600080fd5b801515811461160057600080fd5b600080600080600060808688031215613f6f57600080fd5b853567ffffffffffffffff811115613f8657600080fd5b613f9288828901613f04565b9096509450506020860135613fa681613d84565b9250604086013591506060860135613fbd81613f49565b809150509295509295909350565b600080600080600060608688031215613fe357600080fd5b85359450602086013567ffffffffffffffff80821115613e5b57600080fd5b60008060008060008060c0878903121561401b57600080fd5b863595506020870135945060408701359350606087013560ff8116811461404157600080fd5b9598949750929560808101359460a0909101359350915050565b634e487b7160e01b600052604160045260246000fd5b6000806040838503121561408457600080fd5b823561408f81613d84565b9150602083013567ffffffffffffffff808211156140ac57600080fd5b818501915085601f8301126140c057600080fd5b8135818111156140d2576140d261405b565b604051601f8201601f19908116603f011681019083821181831017156140fa576140fa61405b565b8160405282815288602084870101111561411357600080fd5b8260208601602083013760006020848301015280955050505050509250929050565b60008060006060848603121561414a57600080fd5b505081359360208301359350604090920135919050565b6000806000806080858703121561417757600080fd5b5050823594602084013594506040840135936060013592509050565b60005b838110156141ae578181015183820152602001614196565b8381111561308b5750506000910152565b600081518084526141d7816020860160208601614193565b601f01601f19169290920160200192915050565b8051825260018060a01b0360208201511660208301526000604082015160c0604085015261421c60c08501826141bf565b90506060830151848203606086015261423582826141bf565b9150506080830151608085015260a083015160a08501528091505092915050565b60208152600061314e60208301846141eb565b6000806040838503121561427c57600080fd5b50508035926020909101359150565b6000602080830181845280855180835260408601915060408160051b870101925083870160005b828110156142e057603f198886030184526142ce8583516141eb565b945092850192908501906001016142b2565b5092979650505050505050565b60008060006040848603121561430257600080fd5b833567ffffffffffffffff81111561431957600080fd5b61432586828701613f04565b9094509250506020840135613dc781613f49565b60208082526010908201526f3ab735b737bbb71037b832b930ba37b960811b604082015260600190565b6020808252601590820152743737ba1030b236b4b71037b91037b832b930ba37b960591b604082015260600190565b634e487b7160e01b600052600160045260246000fd5b6000602082840312156143ba57600080fd5b815161314e81613d84565b6000602082840312156143d757600080fd5b5051919050565b634e487b7160e01b600052601160045260246000fd5b600081600019048311821515161561440e5761440e6143de565b500290565b600082821015614425576144256143de565b500390565b6001600160a01b039384168152919092166020820152604081019190915260600190565b60006020828403121561446057600080fd5b815161314e81613f49565b81835281816020850137506000828201602090810191909152601f909101601f19169091010190565b6040815260006144a860408301868861446b565b82810360208401526144bb81858761446b565b979650505050505050565b600181811c908216806144da57607f821691505b602082108114156144fb57634e487b7160e01b600052602260045260246000fd5b50919050565b60408152600061451460408301856141bf565b828103602084015261452681856141bf565b95945050505050565b6020808252602c908201527f46756e6374696f6e206d7573742062652063616c6c6564207468726f7567682060408201526b19195b1959d85d1958d85b1b60a21b606082015260800190565b6020808252602c908201527f46756e6374696f6e206d7573742062652063616c6c6564207468726f7567682060408201526b6163746976652070726f787960a01b606082015260800190565b634e487b7160e01b600052603260045260246000fd5b60006000198214156145f1576145f16143de565b5060010190565b60808152600061460b60808301896141bf565b828103602084015261461d81896141bf565b9050828103604084015261463281878961446b565b9050828103606084015261464781858761446b565b9998505050505050505050565b6020808252600990820152683737ba1030b236b4b760b91b604082015260600190565b6000821982111561468a5761468a6143de565b500190565b6001600160a01b0397881681529590961660208601526040850193909352606084019190915260ff16608083015260a082015260c081019190915260e00190565b6000826146ed57634e487b7160e01b600052601260045260246000fd5b500490565b6000823560be1983360301811261470857600080fd5b9190910192915050565b6000808335601e1984360301811261472957600080fd5b83018035915067ffffffffffffffff82111561474457600080fd5b602001915036819003821315613e1457600080fd5b601f821115610a3157600081815260208120601f850160051c810160208610156147805750805b601f850160051c820191505b8181101561188c5782815560010161478c565b67ffffffffffffffff8311156147b7576147b761405b565b6147cb836147c583546144c6565b83614759565b6000601f8411600181146147ff57600085156147e75750838201355b600019600387901b1c1916600186901b178355614859565b600083815260209020601f19861690835b828110156148305786850135825560209485019460019092019101614810565b508682101561484d5760001960f88860031b161c19848701351681555b505060018560011b0183555b5050505050565b8135815560018101602083013561487681613d84565b81546001600160a01b0319166001600160a01b039190911617905561489e6040830183614712565b6148ac81836002860161479f565b50506148bb6060830183614712565b6148c981836003860161479f565b50506080820135600482015560a082013560058201555050565b6020808252602b908201527f496e697469616c697a61626c653a20636f6e7472616374206973206e6f74206960408201526a6e697469616c697a696e6760a81b606082015260800190565b7f416363657373436f6e74726f6c3a206163636f756e7420000000000000000000815260008351614966816017850160208801614193565b7001034b99036b4b9b9b4b733903937b6329607d1b6017918401918201528351614997816028840160208801614193565b01602801949350505050565b60208152600061314e60208301846141bf565b634e487b7160e01b600052603160045260246000fd5b6000816149db576149db6143de565b506000190190565b6000825161470881846020870161419356fe360894a13ba1a3210667c828492db98dca3e2076cc3735a920a3ca505d382bbc416464726573733a206c6f772d6c6576656c2064656c65676174652063616c6c206661696c65649dd0c3bd9bb5e1c820c362d05d5cb38480246edb10ff416751bc3dcaccab86fea26469706673582212205929c82c9586a32ce9edd2f5fddfdb79ee9121b72803f0f2c634454f1c289c5a64736f6c63430008090033",
  "devdoc": {
    "kind": "dev",
    "methods": {
      "createOperator(address,string,string)": {
        "details": "Does not check name or email for validity or uniqueness"
      },
      "depositOperatorBalance(bytes32,uint256,uint256,uint8,bytes32,bytes32)": {
        "details": "Needs either a token allowance from msg.sender, or a gasless approval (v/r/s != 0).CAUTION: To avoid loss of funds, do NOT deposit to this contract by token.transfer()."
      },
      "depositOperatorStake(bytes32,uint256,uint256,uint8,bytes32,bytes32)": {
        "details": "Needs either a token allowance from msg.sender, or a gasless approval (v/r/s != 0).CAUTION: To avoid loss of funds, do NOT deposit to this contract by token.transfer()."
      },
      "getOperator(bytes32)": {
        "details": "Reverts if the id is unknown"
      },
      "getOperators(uint256,uint256)": {
        "details": "Truncates the results if skip or size are out of bounds"
      },
      "getRoleAdmin(bytes32)": {
        "details": "Returns the admin role that controls `role`. See {grantRole} and {revokeRole}. To change a role's admin, use {_setRoleAdmin}."
      },
      "grantRole(bytes32,address)": {
        "details": "Grants `role` to `account`. If `account` had not been already granted `role`, emits a {RoleGranted} event. Requirements: - the caller must have ``role``'s admin role. May emit a {RoleGranted} event."
      },
      "hasRole(bytes32,address)": {
        "details": "Returns `true` if `account` has been granted `role`."
      },
      "initialize(address[],address,uint256,bool)": {
        "details": "Called once to set up the contract. Not called during proxy upgrades.",
        "params": {
          "grantImporterRole": "allows the contract deployer to import initial data into the contract using unsafeImport* functions, which is used for proxy-less upgrades. CAUTION: Once import is finished, the importer role should be explicitly revoked."
        }
      },
      "paused()": {
        "details": "Returns true if the contract is paused, and false otherwise."
      },
      "proxiableUUID()": {
        "details": "Implementation of the ERC1822 {proxiableUUID} function. This returns the storage slot used by the implementation. It is used to validate the implementation's compatibility when performing an upgrade. IMPORTANT: A proxy pointing at a proxiable contract should not be considered proxiable itself, because this risks bricking a proxy that upgrades to it, by delegating to itself until out of gas. Thus it is critical that this function revert if invoked through a proxy. This is guaranteed by the `notDelegated` modifier."
      },
      "renounceRole(bytes32,address)": {
        "details": "Revokes `role` from the calling account. Roles are often managed via {grantRole} and {revokeRole}: this function's purpose is to provide a mechanism for accounts to lose their privileges if they are compromised (such as when a trusted device is misplaced). If the calling account had been revoked `role`, emits a {RoleRevoked} event. Requirements: - the caller must be `account`. May emit a {RoleRevoked} event."
      },
      "revokeRole(bytes32,address)": {
        "details": "Revokes `role` from `account`. If `account` had been granted `role`, emits a {RoleRevoked} event. Requirements: - the caller must have ``role``'s admin role. May emit a {RoleRevoked} event."
      },
      "setOperatorProps(bytes32,string,string)": {
        "details": "Does not check name or email for validity or uniqueness"
      },
      "supportsInterface(bytes4)": {
        "details": "See {IERC165-supportsInterface}."
      },
      "unsafeImportData((bytes32,address,string,string,uint256,uint256)[],bool)": {
        "details": "Allows to import initial contract data. Used for proxy-less upgrades.",
        "params": {
          "revokeImporterRole": "stops further data import by revoking the role. CAUTION: Once import is finished, the role should be explicitly revoked."
        }
      },
      "unsafeSetBalances(uint256,uint256,uint256,uint256)": {
        "details": "Adjusts multiple operators balances relative to their current values.CAUTION: This can break data consistency. Used for proxy-less upgrades."
      },
      "unsafeSetRegistry(address)": {
        "details": "CAUTION: This can break data consistency. Used for proxy-less upgrades."
      },
      "upgradeTo(address)": {
        "custom:oz-upgrades-unsafe-allow-reachable": "delegatecall",
        "details": "Upgrade the implementation of the proxy to `newImplementation`. Calls {_authorizeUpgrade}. Emits an {Upgraded} event."
      },
      "upgradeToAndCall(address,bytes)": {
        "custom:oz-upgrades-unsafe-allow-reachable": "delegatecall",
        "details": "Upgrade the implementation of the proxy to `newImplementation`, and subsequently execute the function call encoded in `data`. Calls {_authorizeUpgrade}. Emits an {Upgraded} event."
      }
    },
    "title": "Entry point for managing network node operators",
    "version": 1
  },
  "userdoc": {
    "kind": "user",
    "methods": {
      "createOperator(address,string,string)": {
        "notice": "Registers a new network operator. Only admin can do this."
      },
      "deleteOperator(bytes32)": {
        "notice": "Unregisters a network operator. Reverts if operator has stake or nodes."
      },
      "depositOperatorBalance(bytes32,uint256,uint256,uint8,bytes32,bytes32)": {
        "notice": "Transfers USDC into the contract and applies them toward given operator balance."
      },
      "depositOperatorStake(bytes32,uint256,uint256,uint8,bytes32,bytes32)": {
        "notice": "Transfers tokens into the contract and applies them toward given operator stake."
      },
      "withdrawOperatorBalance(bytes32,uint256,address)": {
        "notice": "Transfers earned USDC from contract to given recipient."
      },
      "withdrawOperatorStake(bytes32,uint256,address)": {
        "notice": "Transfers stake from contract to given recipient. Reverts if stake is locked."
      }
    },
    "version": 1
  },
  "storageLayout": {
    "storage": [
      {
        "astId": 782,
        "contract": "contracts/EarthfastOperators.sol:EarthfastOperators",
        "label": "_initialized",
        "offset": 0,
        "slot": "0",
        "type": "t_uint8"
      },
      {
        "astId": 785,
        "contract": "contracts/EarthfastOperators.sol:EarthfastOperators",
        "label": "_initializing",
        "offset": 1,
        "slot": "0",
        "type": "t_bool"
      },
      {
        "astId": 1674,
        "contract": "contracts/EarthfastOperators.sol:EarthfastOperators",
        "label": "__gap",
        "offset": 0,
        "slot": "1",
        "type": "t_array(t_uint256)50_storage"
      },
      {
        "astId": 2058,
        "contract": "contracts/EarthfastOperators.sol:EarthfastOperators",
        "label": "__gap",
        "offset": 0,
        "slot": "51",
        "type": "t_array(t_uint256)50_storage"
      },
      {
        "astId": 28,
        "contract": "contracts/EarthfastOperators.sol:EarthfastOperators",
        "label": "_roles",
        "offset": 0,
        "slot": "101",
        "type": "t_mapping(t_bytes32,t_struct(RoleData)23_storage)"
      },
      {
        "astId": 335,
        "contract": "contracts/EarthfastOperators.sol:EarthfastOperators",
        "label": "__gap",
        "offset": 0,
        "slot": "102",
        "type": "t_array(t_uint256)49_storage"
      },
      {
        "astId": 1103,
        "contract": "contracts/EarthfastOperators.sol:EarthfastOperators",
        "label": "_paused",
        "offset": 0,
        "slot": "151",
        "type": "t_bool"
      },
      {
        "astId": 1208,
        "contract": "contracts/EarthfastOperators.sol:EarthfastOperators",
        "label": "__gap",
        "offset": 0,
        "slot": "152",
        "type": "t_array(t_uint256)49_storage"
      },
      {
        "astId": 1224,
        "contract": "contracts/EarthfastOperators.sol:EarthfastOperators",
        "label": "_status",
        "offset": 0,
        "slot": "201",
        "type": "t_uint256"
      },
      {
        "astId": 1293,
        "contract": "contracts/EarthfastOperators.sol:EarthfastOperators",
        "label": "__gap",
        "offset": 0,
        "slot": "202",
        "type": "t_array(t_uint256)49_storage"
      },
      {
        "astId": 764,
        "contract": "contracts/EarthfastOperators.sol:EarthfastOperators",
        "label": "__gap",
        "offset": 0,
        "slot": "251",
        "type": "t_array(t_uint256)50_storage"
      },
      {
        "astId": 1080,
        "contract": "contracts/EarthfastOperators.sol:EarthfastOperators",
        "label": "__gap",
        "offset": 0,
        "slot": "301",
        "type": "t_array(t_uint256)50_storage"
      },
      {
        "astId": 18813,
        "contract": "contracts/EarthfastOperators.sol:EarthfastOperators",
        "label": "_registry",
        "offset": 0,
        "slot": "351",
        "type": "t_contract(EarthfastRegistry)22674"
      },
      {
        "astId": 18815,
        "contract": "contracts/EarthfastOperators.sol:EarthfastOperators",
        "label": "_stakePerNode",
        "offset": 0,
        "slot": "352",
        "type": "t_uint256"
      },
      {
        "astId": 18820,
        "contract": "contracts/EarthfastOperators.sol:EarthfastOperators",
        "label": "_operators",
        "offset": 0,
        "slot": "353",
        "type": "t_mapping(t_bytes32,t_struct(EarthfastOperator)24193_storage)"
      },
      {
        "astId": 18823,
        "contract": "contracts/EarthfastOperators.sol:EarthfastOperators",
        "label": "_operatorIds",
        "offset": 0,
        "slot": "354",
        "type": "t_struct(Bytes32Set)15558_storage"
      },
      {
        "astId": 20178,
        "contract": "contracts/EarthfastOperators.sol:EarthfastOperators",
        "label": "__gap",
        "offset": 0,
        "slot": "356",
        "type": "t_array(t_uint256)10_storage"
      }
    ],
    "types": {
      "t_address": {
        "encoding": "inplace",
        "label": "address",
        "numberOfBytes": "20"
      },
      "t_array(t_bytes32)dyn_storage": {
        "base": "t_bytes32",
        "encoding": "dynamic_array",
        "label": "bytes32[]",
        "numberOfBytes": "32"
      },
      "t_array(t_uint256)10_storage": {
        "base": "t_uint256",
        "encoding": "inplace",
        "label": "uint256[10]",
        "numberOfBytes": "320"
      },
      "t_array(t_uint256)49_storage": {
        "base": "t_uint256",
        "encoding": "inplace",
        "label": "uint256[49]",
        "numberOfBytes": "1568"
      },
      "t_array(t_uint256)50_storage": {
        "base": "t_uint256",
        "encoding": "inplace",
        "label": "uint256[50]",
        "numberOfBytes": "1600"
      },
      "t_bool": {
        "encoding": "inplace",
        "label": "bool",
        "numberOfBytes": "1"
      },
      "t_bytes32": {
        "encoding": "inplace",
        "label": "bytes32",
        "numberOfBytes": "32"
      },
      "t_contract(EarthfastRegistry)22674": {
        "encoding": "inplace",
        "label": "contract EarthfastRegistry",
        "numberOfBytes": "20"
      },
      "t_mapping(t_address,t_bool)": {
        "encoding": "mapping",
        "key": "t_address",
        "label": "mapping(address => bool)",
        "numberOfBytes": "32",
        "value": "t_bool"
      },
      "t_mapping(t_bytes32,t_struct(EarthfastOperator)24193_storage)": {
        "encoding": "mapping",
        "key": "t_bytes32",
        "label": "mapping(bytes32 => struct EarthfastOperator)",
        "numberOfBytes": "32",
        "value": "t_struct(EarthfastOperator)24193_storage"
      },
      "t_mapping(t_bytes32,t_struct(RoleData)23_storage)": {
        "encoding": "mapping",
        "key": "t_bytes32",
        "label": "mapping(bytes32 => struct AccessControlUpgradeable.RoleData)",
        "numberOfBytes": "32",
        "value": "t_struct(RoleData)23_storage"
      },
      "t_mapping(t_bytes32,t_uint256)": {
        "encoding": "mapping",
        "key": "t_bytes32",
        "label": "mapping(bytes32 => uint256)",
        "numberOfBytes": "32",
        "value": "t_uint256"
      },
      "t_string_storage": {
        "encoding": "bytes",
        "label": "string",
        "numberOfBytes": "32"
      },
      "t_struct(Bytes32Set)15558_storage": {
        "encoding": "inplace",
        "label": "struct EnumerableSet.Bytes32Set",
        "members": [
          {
            "astId": 15557,
            "contract": "contracts/EarthfastOperators.sol:EarthfastOperators",
            "label": "_inner",
            "offset": 0,
            "slot": "0",
            "type": "t_struct(Set)15364_storage"
          }
        ],
        "numberOfBytes": "64"
      },
      "t_struct(EarthfastOperator)24193_storage": {
        "encoding": "inplace",
        "label": "struct EarthfastOperator",
        "members": [
          {
            "astId": 24182,
            "contract": "contracts/EarthfastOperators.sol:EarthfastOperators",
            "label": "id",
            "offset": 0,
            "slot": "0",
            "type": "t_bytes32"
          },
          {
            "astId": 24184,
            "contract": "contracts/EarthfastOperators.sol:EarthfastOperators",
            "label": "owner",
            "offset": 0,
            "slot": "1",
            "type": "t_address"
          },
          {
            "astId": 24186,
            "contract": "contracts/EarthfastOperators.sol:EarthfastOperators",
            "label": "name",
            "offset": 0,
            "slot": "2",
            "type": "t_string_storage"
          },
          {
            "astId": 24188,
            "contract": "contracts/EarthfastOperators.sol:EarthfastOperators",
            "label": "email",
            "offset": 0,
            "slot": "3",
            "type": "t_string_storage"
          },
          {
            "astId": 24190,
            "contract": "contracts/EarthfastOperators.sol:EarthfastOperators",
            "label": "stake",
            "offset": 0,
            "slot": "4",
            "type": "t_uint256"
          },
          {
            "astId": 24192,
            "contract": "contracts/EarthfastOperators.sol:EarthfastOperators",
            "label": "balance",
            "offset": 0,
            "slot": "5",
            "type": "t_uint256"
          }
        ],
        "numberOfBytes": "192"
      },
      "t_struct(RoleData)23_storage": {
        "encoding": "inplace",
        "label": "struct AccessControlUpgradeable.RoleData",
        "members": [
          {
            "astId": 20,
            "contract": "contracts/EarthfastOperators.sol:EarthfastOperators",
            "label": "members",
            "offset": 0,
            "slot": "0",
            "type": "t_mapping(t_address,t_bool)"
          },
          {
            "astId": 22,
            "contract": "contracts/EarthfastOperators.sol:EarthfastOperators",
            "label": "adminRole",
            "offset": 0,
            "slot": "1",
            "type": "t_bytes32"
          }
        ],
        "numberOfBytes": "64"
      },
      "t_struct(Set)15364_storage": {
        "encoding": "inplace",
        "label": "struct EnumerableSet.Set",
        "members": [
          {
            "astId": 15359,
            "contract": "contracts/EarthfastOperators.sol:EarthfastOperators",
            "label": "_values",
            "offset": 0,
            "slot": "0",
            "type": "t_array(t_bytes32)dyn_storage"
          },
          {
            "astId": 15363,
            "contract": "contracts/EarthfastOperators.sol:EarthfastOperators",
            "label": "_indexes",
            "offset": 0,
            "slot": "1",
            "type": "t_mapping(t_bytes32,t_uint256)"
          }
        ],
        "numberOfBytes": "64"
      },
      "t_uint256": {
        "encoding": "inplace",
        "label": "uint256",
        "numberOfBytes": "32"
      },
      "t_uint8": {
        "encoding": "inplace",
        "label": "uint8",
        "numberOfBytes": "1"
      }
    }
  }
}