{
  "address": "0x0DCd1Bf9A1b36cE34237eEaFef220932846BCD82",
  "abi": [
    {
      "anonymous": false,
      "inputs": [
        {
          "indexed": false,
          "internalType": "address",
          "name": "previousAdmin",
          "type": "address"
        },
        {
          "indexed": false,
          "internalType": "address",
          "name": "newAdmin",
          "type": "address"
        }
      ],
      "name": "AdminChanged",
      "type": "event"
    },
    {
      "anonymous": false,
      "inputs": [
        {
          "indexed": true,
          "internalType": "address",
          "name": "beacon",
          "type": "address"
        }
      ],
      "name": "BeaconUpgraded",
      "type": "event"
    },
    {
      "anonymous": false,
      "inputs": [
        {
          "indexed": false,
          "internalType": "uint8",
          "name": "version",
          "type": "uint8"
        }
      ],
      "name": "Initialized",
      "type": "event"
    },
    {
      "anonymous": false,
      "inputs": [
        {
          "indexed": true,
          "internalType": "bytes32",
          "name": "operatorId",
          "type": "bytes32"
        },
        {
          "indexed": false,
          "internalType": "uint256",
          "name": "oldBalance",
          "type": "uint256"
        },
        {
          "indexed": false,
          "internalType": "uint256",
          "name": "newBalance",
          "type": "uint256"
        }
      ],
      "name": "OperatorBalanceChanged",
      "type": "event"
    },
    {
      "anonymous": false,
      "inputs": [
        {
          "indexed": true,
          "internalType": "bytes32",
          "name": "operatorId",
          "type": "bytes32"
        },
        {
          "indexed": true,
          "internalType": "address",
          "name": "owner",
          "type": "address"
        },
        {
          "indexed": false,
          "internalType": "string",
          "name": "name",
          "type": "string"
        },
        {
          "indexed": false,
          "internalType": "string",
          "name": "email",
          "type": "string"
        }
      ],
      "name": "OperatorCreated",
      "type": "event"
    },
    {
      "anonymous": false,
      "inputs": [
        {
          "indexed": true,
          "internalType": "bytes32",
          "name": "operatorId",
          "type": "bytes32"
        },
        {
          "indexed": true,
          "internalType": "address",
          "name": "owner",
          "type": "address"
        },
        {
          "indexed": false,
          "internalType": "string",
          "name": "name",
          "type": "string"
        },
        {
          "indexed": false,
          "internalType": "string",
          "name": "email",
          "type": "string"
        }
      ],
      "name": "OperatorDeleted",
      "type": "event"
    },
    {
      "anonymous": false,
      "inputs": [
        {
          "indexed": true,
          "internalType": "bytes32",
          "name": "operatorId",
          "type": "bytes32"
        },
        {
          "indexed": true,
          "internalType": "address",
          "name": "oldOwner",
          "type": "address"
        },
        {
          "indexed": true,
          "internalType": "address",
          "name": "newOwner",
          "type": "address"
        }
      ],
      "name": "OperatorOwnerChanged",
      "type": "event"
    },
    {
      "anonymous": false,
      "inputs": [
        {
          "indexed": true,
          "internalType": "bytes32",
          "name": "operatorId",
          "type": "bytes32"
        },
        {
          "indexed": false,
          "internalType": "string",
          "name": "oldName",
          "type": "string"
        },
        {
          "indexed": false,
          "internalType": "string",
          "name": "oldEmail",
          "type": "string"
        },
        {
          "indexed": false,
          "internalType": "string",
          "name": "newName",
          "type": "string"
        },
        {
          "indexed": false,
          "internalType": "string",
          "name": "newEmail",
          "type": "string"
        }
      ],
      "name": "OperatorPropsChanged",
      "type": "event"
    },
    {
      "anonymous": false,
      "inputs": [
        {
          "indexed": true,
          "internalType": "bytes32",
          "name": "operatorId",
          "type": "bytes32"
        },
        {
          "indexed": false,
          "internalType": "uint256",
          "name": "oldStake",
          "type": "uint256"
        },
        {
          "indexed": false,
          "internalType": "uint256",
          "name": "newStake",
          "type": "uint256"
        }
      ],
      "name": "OperatorStakeChanged",
      "type": "event"
    },
    {
      "anonymous": false,
      "inputs": [
        {
          "indexed": false,
          "internalType": "address",
          "name": "account",
          "type": "address"
        }
      ],
      "name": "Paused",
      "type": "event"
    },
    {
      "anonymous": false,
      "inputs": [
        {
          "indexed": true,
          "internalType": "bytes32",
          "name": "role",
          "type": "bytes32"
        },
        {
          "indexed": true,
          "internalType": "bytes32",
          "name": "previousAdminRole",
          "type": "bytes32"
        },
        {
          "indexed": true,
          "internalType": "bytes32",
          "name": "newAdminRole",
          "type": "bytes32"
        }
      ],
      "name": "RoleAdminChanged",
      "type": "event"
    },
    {
      "anonymous": false,
      "inputs": [
        {
          "indexed": true,
          "internalType": "bytes32",
          "name": "role",
          "type": "bytes32"
        },
        {
          "indexed": true,
          "internalType": "address",
          "name": "account",
          "type": "address"
        },
        {
          "indexed": true,
          "internalType": "address",
          "name": "sender",
          "type": "address"
        }
      ],
      "name": "RoleGranted",
      "type": "event"
    },
    {
      "anonymous": false,
      "inputs": [
        {
          "indexed": true,
          "internalType": "bytes32",
          "name": "role",
          "type": "bytes32"
        },
        {
          "indexed": true,
          "internalType": "address",
          "name": "account",
          "type": "address"
        },
        {
          "indexed": true,
          "internalType": "address",
          "name": "sender",
          "type": "address"
        }
      ],
      "name": "RoleRevoked",
      "type": "event"
    },
    {
      "anonymous": false,
      "inputs": [
        {
          "indexed": false,
          "internalType": "address",
          "name": "account",
          "type": "address"
        }
      ],
      "name": "Unpaused",
      "type": "event"
    },
    {
      "anonymous": false,
      "inputs": [
        {
          "indexed": true,
          "internalType": "address",
          "name": "implementation",
          "type": "address"
        }
      ],
      "name": "Upgraded",
      "type": "event"
    },
    {
      "inputs": [],
      "name": "DEFAULT_ADMIN_ROLE",
      "outputs": [
        {
          "internalType": "bytes32",
          "name": "",
          "type": "bytes32"
        }
      ],
      "stateMutability": "view",
      "type": "function"
    },
    {
      "inputs": [],
      "name": "IMPORTER_ROLE",
      "outputs": [
        {
          "internalType": "bytes32",
          "name": "",
          "type": "bytes32"
        }
      ],
      "stateMutability": "view",
      "type": "function"
    },
    {
      "inputs": [
        {
          "internalType": "address",
          "name": "owner",
          "type": "address"
        },
        {
          "internalType": "string",
          "name": "name",
          "type": "string"
        },
        {
          "internalType": "string",
          "name": "email",
          "type": "string"
        }
      ],
      "name": "createOperator",
      "outputs": [
        {
          "internalType": "bytes32",
          "name": "operatorId",
          "type": "bytes32"
        }
      ],
      "stateMutability": "nonpayable",
      "type": "function"
    },
    {
      "inputs": [
        {
          "internalType": "bytes32",
          "name": "operatorId",
          "type": "bytes32"
        }
      ],
      "name": "deleteOperator",
      "outputs": [],
      "stateMutability": "nonpayable",
      "type": "function"
    },
    {
      "inputs": [
        {
          "internalType": "bytes32",
          "name": "operatorId",
          "type": "bytes32"
        },
        {
          "internalType": "uint256",
          "name": "amount",
          "type": "uint256"
        },
        {
          "internalType": "uint256",
          "name": "deadline",
          "type": "uint256"
        },
        {
          "internalType": "uint8",
          "name": "v",
          "type": "uint8"
        },
        {
          "internalType": "bytes32",
          "name": "r",
          "type": "bytes32"
        },
        {
          "internalType": "bytes32",
          "name": "s",
          "type": "bytes32"
        }
      ],
      "name": "depositOperatorBalance",
      "outputs": [],
      "stateMutability": "nonpayable",
      "type": "function"
    },
    {
      "inputs": [
        {
          "internalType": "bytes32",
          "name": "operatorId",
          "type": "bytes32"
        },
        {
          "internalType": "uint256",
          "name": "amount",
          "type": "uint256"
        },
        {
          "internalType": "uint256",
          "name": "deadline",
          "type": "uint256"
        },
        {
          "internalType": "uint8",
          "name": "v",
          "type": "uint8"
        },
        {
          "internalType": "bytes32",
          "name": "r",
          "type": "bytes32"
        },
        {
          "internalType": "bytes32",
          "name": "s",
          "type": "bytes32"
        }
      ],
      "name": "depositOperatorStake",
      "outputs": [],
      "stateMutability": "nonpayable",
      "type": "function"
    },
    {
      "inputs": [
        {
          "internalType": "bytes32",
          "name": "operatorId",
          "type": "bytes32"
        }
      ],
      "name": "getOperator",
      "outputs": [
        {
          "components": [
            {
              "internalType": "bytes32",
              "name": "id",
              "type": "bytes32"
            },
            {
              "internalType": "address",
              "name": "owner",
              "type": "address"
            },
            {
              "internalType": "string",
              "name": "name",
              "type": "string"
            },
            {
              "internalType": "string",
              "name": "email",
              "type": "string"
            },
            {
              "internalType": "uint256",
              "name": "stake",
              "type": "uint256"
            },
            {
              "internalType": "uint256",
              "name": "balance",
              "type": "uint256"
            }
          ],
          "internalType": "struct EarthfastOperator",
          "name": "",
          "type": "tuple"
        }
      ],
      "stateMutability": "view",
      "type": "function"
    },
    {
      "inputs": [],
      "name": "getOperatorCount",
      "outputs": [
        {
          "internalType": "uint256",
          "name": "",
          "type": "uint256"
        }
      ],
      "stateMutability": "view",
      "type": "function"
    },
    {
      "inputs": [
        {
          "internalType": "uint256",
          "name": "skip",
          "type": "uint256"
        },
        {
          "internalType": "uint256",
          "name": "size",
          "type": "uint256"
        }
      ],
      "name": "getOperators",
      "outputs": [
        {
          "components": [
            {
              "internalType": "bytes32",
              "name": "id",
              "type": "bytes32"
            },
            {
              "internalType": "address",
              "name": "owner",
              "type": "address"
            },
            {
              "internalType": "string",
              "name": "name",
              "type": "string"
            },
            {
              "internalType": "string",
              "name": "email",
              "type": "string"
            },
            {
              "internalType": "uint256",
              "name": "stake",
              "type": "uint256"
            },
            {
              "internalType": "uint256",
              "name": "balance",
              "type": "uint256"
            }
          ],
          "internalType": "struct EarthfastOperator[]",
          "name": "values",
          "type": "tuple[]"
        }
      ],
      "stateMutability": "view",
      "type": "function"
    },
    {
      "inputs": [],
      "name": "getRegistry",
      "outputs": [
        {
          "internalType": "contract EarthfastRegistry",
          "name": "",
          "type": "address"
        }
      ],
      "stateMutability": "view",
      "type": "function"
    },
    {
      "inputs": [
        {
          "internalType": "bytes32",
          "name": "role",
          "type": "bytes32"
        }
      ],
      "name": "getRoleAdmin",
      "outputs": [
        {
          "internalType": "bytes32",
          "name": "",
          "type": "bytes32"
        }
      ],
      "stateMutability": "view",
      "type": "function"
    },
    {
      "inputs": [],
      "name": "getStakePerNode",
      "outputs": [
        {
          "internalType": "uint256",
          "name": "",
          "type": "uint256"
        }
      ],
      "stateMutability": "view",
      "type": "function"
    },
    {
      "inputs": [
        {
          "internalType": "bytes32",
          "name": "role",
          "type": "bytes32"
        },
        {
          "internalType": "address",
          "name": "account",
          "type": "address"
        }
      ],
      "name": "grantRole",
      "outputs": [],
      "stateMutability": "nonpayable",
      "type": "function"
    },
    {
      "inputs": [
        {
          "internalType": "bytes32",
          "name": "role",
          "type": "bytes32"
        },
        {
          "internalType": "address",
          "name": "account",
          "type": "address"
        }
      ],
      "name": "hasRole",
      "outputs": [
        {
          "internalType": "bool",
          "name": "",
          "type": "bool"
        }
      ],
      "stateMutability": "view",
      "type": "function"
    },
    {
      "inputs": [
        {
          "internalType": "address[]",
          "name": "admins",
          "type": "address[]"
        },
        {
          "internalType": "contract EarthfastRegistry",
          "name": "registry",
          "type": "address"
        },
        {
          "internalType": "uint256",
          "name": "stakePerNode",
          "type": "uint256"
        },
        {
          "internalType": "bool",
          "name": "grantImporterRole",
          "type": "bool"
        }
      ],
      "name": "initialize",
      "outputs": [],
      "stateMutability": "nonpayable",
      "type": "function"
    },
    {
      "inputs": [],
      "name": "pause",
      "outputs": [],
      "stateMutability": "nonpayable",
      "type": "function"
    },
    {
      "inputs": [],
      "name": "paused",
      "outputs": [
        {
          "internalType": "bool",
          "name": "",
          "type": "bool"
        }
      ],
      "stateMutability": "view",
      "type": "function"
    },
    {
      "inputs": [],
      "name": "proxiableUUID",
      "outputs": [
        {
          "internalType": "bytes32",
          "name": "",
          "type": "bytes32"
        }
      ],
      "stateMutability": "view",
      "type": "function"
    },
    {
      "inputs": [
        {
          "internalType": "bytes32",
          "name": "role",
          "type": "bytes32"
        },
        {
          "internalType": "address",
          "name": "account",
          "type": "address"
        }
      ],
      "name": "renounceRole",
      "outputs": [],
      "stateMutability": "nonpayable",
      "type": "function"
    },
    {
      "inputs": [
        {
          "internalType": "bytes32",
          "name": "nodeId",
          "type": "bytes32"
        },
        {
          "internalType": "address",
          "name": "sender",
          "type": "address"
        }
      ],
      "name": "requireTopologyNode",
      "outputs": [],
      "stateMutability": "nonpayable",
      "type": "function"
    },
    {
      "inputs": [
        {
          "internalType": "bytes32",
          "name": "role",
          "type": "bytes32"
        },
        {
          "internalType": "address",
          "name": "account",
          "type": "address"
        }
      ],
      "name": "revokeRole",
      "outputs": [],
      "stateMutability": "nonpayable",
      "type": "function"
    },
    {
      "inputs": [
        {
          "internalType": "bytes32",
          "name": "operatorId",
          "type": "bytes32"
        },
        {
          "internalType": "uint256",
          "name": "decrease",
          "type": "uint256"
        },
        {
          "internalType": "uint256",
          "name": "increase",
          "type": "uint256"
        }
      ],
      "name": "setOperatorBalanceImpl",
      "outputs": [],
      "stateMutability": "nonpayable",
      "type": "function"
    },
    {
      "inputs": [
        {
          "internalType": "bytes32",
          "name": "operatorId",
          "type": "bytes32"
        },
        {
          "internalType": "address",
          "name": "owner",
          "type": "address"
        }
      ],
      "name": "setOperatorOwner",
      "outputs": [],
      "stateMutability": "nonpayable",
      "type": "function"
    },
    {
      "inputs": [
        {
          "internalType": "bytes32",
          "name": "operatorId",
          "type": "bytes32"
        },
        {
          "internalType": "string",
          "name": "name",
          "type": "string"
        },
        {
          "internalType": "string",
          "name": "email",
          "type": "string"
        }
      ],
      "name": "setOperatorProps",
      "outputs": [],
      "stateMutability": "nonpayable",
      "type": "function"
    },
    {
      "inputs": [
        {
          "internalType": "uint256",
          "name": "stake",
          "type": "uint256"
        }
      ],
      "name": "setStakePerNode",
      "outputs": [],
      "stateMutability": "nonpayable",
      "type": "function"
    },
    {
      "inputs": [
        {
          "internalType": "bytes4",
          "name": "interfaceId",
          "type": "bytes4"
        }
      ],
      "name": "supportsInterface",
      "outputs": [
        {
          "internalType": "bool",
          "name": "",
          "type": "bool"
        }
      ],
      "stateMutability": "view",
      "type": "function"
    },
    {
      "inputs": [],
      "name": "unpause",
      "outputs": [],
      "stateMutability": "nonpayable",
      "type": "function"
    },
    {
      "inputs": [
        {
          "components": [
            {
              "internalType": "bytes32",
              "name": "id",
              "type": "bytes32"
            },
            {
              "internalType": "address",
              "name": "owner",
              "type": "address"
            },
            {
              "internalType": "string",
              "name": "name",
              "type": "string"
            },
            {
              "internalType": "string",
              "name": "email",
              "type": "string"
            },
            {
              "internalType": "uint256",
              "name": "stake",
              "type": "uint256"
            },
            {
              "internalType": "uint256",
              "name": "balance",
              "type": "uint256"
            }
          ],
          "internalType": "struct EarthfastOperator[]",
          "name": "operators",
          "type": "tuple[]"
        },
        {
          "internalType": "bool",
          "name": "revokeImporterRole",
          "type": "bool"
        }
      ],
      "name": "unsafeImportData",
      "outputs": [],
      "stateMutability": "nonpayable",
      "type": "function"
    },
    {
      "inputs": [
        {
          "internalType": "uint256",
          "name": "skip",
          "type": "uint256"
        },
        {
          "internalType": "uint256",
          "name": "size",
          "type": "uint256"
        },
        {
          "internalType": "uint256",
          "name": "mul",
          "type": "uint256"
        },
        {
          "internalType": "uint256",
          "name": "div",
          "type": "uint256"
        }
      ],
      "name": "unsafeSetBalances",
      "outputs": [],
      "stateMutability": "nonpayable",
      "type": "function"
    },
    {
      "inputs": [
        {
          "internalType": "contract EarthfastRegistry",
          "name": "registry",
          "type": "address"
        }
      ],
      "name": "unsafeSetRegistry",
      "outputs": [],
      "stateMutability": "nonpayable",
      "type": "function"
    },
    {
      "inputs": [
        {
          "internalType": "address",
          "name": "newImplementation",
          "type": "address"
        }
      ],
      "name": "upgradeTo",
      "outputs": [],
      "stateMutability": "nonpayable",
      "type": "function"
    },
    {
      "inputs": [
        {
          "internalType": "address",
          "name": "newImplementation",
          "type": "address"
        },
        {
          "internalType": "bytes",
          "name": "data",
          "type": "bytes"
        }
      ],
      "name": "upgradeToAndCall",
      "outputs": [],
      "stateMutability": "payable",
      "type": "function"
    },
    {
      "inputs": [
        {
          "internalType": "bytes32",
          "name": "operatorId",
          "type": "bytes32"
        },
        {
          "internalType": "uint256",
          "name": "amount",
          "type": "uint256"
        },
        {
          "internalType": "address",
          "name": "to",
          "type": "address"
        }
      ],
      "name": "withdrawOperatorBalance",
      "outputs": [],
      "stateMutability": "nonpayable",
      "type": "function"
    },
    {
      "inputs": [
        {
          "internalType": "bytes32",
          "name": "operatorId",
          "type": "bytes32"
        },
        {
          "internalType": "uint256",
          "name": "amount",
          "type": "uint256"
        },
        {
          "internalType": "address",
          "name": "to",
          "type": "address"
        }
      ],
      "name": "withdrawOperatorStake",
      "outputs": [],
      "stateMutability": "nonpayable",
      "type": "function"
    }
  ],
  "numDeployments": 1,
  "solcInputHash": "2cce3c1ea0d7713380545e2b048932d0",
  "bytecode": "0x60a06040523060805234801561001457600080fd5b50608051614f2861004c6000396000818161162701528181611667015281816120050152818161204501526120d40152614f286000f3fe6080604052600436106101f95760003560e01c80635c975abb1161010d578063a96a5f94116100a0578063e90705741161006f578063e90705741461059f578063ea4dd2b9146105bf578063ef96e2cb146105ec578063f7d1f6d81461060c578063fd6313fc1461062257600080fd5b8063a96a5f9414610512578063b9a2adf01461053f578063be0396381461055f578063d547741f1461057f57600080fd5b80638dd0d6a8116100dc5780638dd0d6a81461049d57806391d14854146104bd578063a217fddf146104dd578063a5f83733146104f257600080fd5b80635c975abb1461042e5780636fa2a067146104465780636ffa072e146104685780638456cb591461048857600080fd5b806336568abe116101905780633f4ba83a1161015f5780633f4ba83a146103a85780634d60dead146103bd5780634f1ef286146103dd57806352d1902d146103f05780635ab1bd531461040557600080fd5b806336568abe146103285780633659cfe61461034857806339b035711461036857806339d7a3ef1461038857600080fd5b806322aba718116101cc57806322aba71814610298578063248a9ca3146102b85780632f2ff15d146102e85780632fd3f4ff1461030857600080fd5b806301ffc9a7146101fe578063059c1cf7146102335780631a4a7c61146102555780631c692cc614610278575b600080fd5b34801561020a57600080fd5b5061021e610219366004614004565b610642565b60405190151581526020015b60405180910390f35b34801561023f57600080fd5b5061025361024e366004614043565b610679565b005b34801561026157600080fd5b5061026a610a55565b60405190815260200161022a565b34801561028457600080fd5b5061026a6102933660046140c4565b610a67565b3480156102a457600080fd5b506102536102b3366004614146565b610e3f565b3480156102c457600080fd5b5061026a6102d3366004614176565b60009081526065602052604090206001015490565b3480156102f457600080fd5b50610253610303366004614146565b611000565b34801561031457600080fd5b50610253610323366004614176565b611025565b34801561033457600080fd5b50610253610343366004614146565b61159e565b34801561035457600080fd5b5061025361036336600461418f565b61161c565b34801561037457600080fd5b506102536103833660046141fe565b6116fc565b34801561039457600080fd5b506102536103a3366004614271565b61198d565b3480156103b457600080fd5b50610253611cc7565b3480156103c957600080fd5b506102536103d83660046142a7565b611cf8565b6102536103eb366004614396565b611ffa565b3480156103fc57600080fd5b5061026a6120c7565b34801561041157600080fd5b5061015f546040516001600160a01b03909116815260200161022a565b34801561043a57600080fd5b5060975460ff1661021e565b34801561045257600080fd5b5061026a600080516020614ed383398151915281565b34801561047457600080fd5b50610253610483366004614428565b61217a565b34801561049457600080fd5b506102536124a1565b3480156104a957600080fd5b506102536104b8366004614454565b6124d0565b3480156104c957600080fd5b5061021e6104d8366004614146565b6125d6565b3480156104e957600080fd5b5061026a600081565b3480156104fe57600080fd5b5061025361050d366004614043565b612601565b34801561051e57600080fd5b5061053261052d366004614176565b6128b2565b60405161022a9190614549565b34801561054b57600080fd5b5061025361055a36600461418f565b612a50565b34801561056b57600080fd5b5061025361057a3660046142a7565b612a9a565b34801561058b57600080fd5b5061025361059a366004614146565b612d8a565b3480156105ab57600080fd5b506102536105ba366004614176565b612daf565b3480156105cb57600080fd5b506105df6105da36600461455c565b612ddc565b60405161022a919061457e565b3480156105f857600080fd5b50610253610607366004614146565b613027565b34801561061857600080fd5b506101605461026a565b34801561062e57600080fd5b5061025361063d3660046145e0565b61320b565b60006001600160e01b03198216637965db0b60e01b148061067357506301ffc9a760e01b6001600160e01b03198316145b92915050565b61068161333c565b60008381526101616020526040902080548491906106ba5760405162461bcd60e51b81526004016106b19061462b565b60405180910390fd5b60018101546001600160a01b031633146106e65760405162461bcd60e51b81526004016106b190614655565b61015f60009054906101000a90046001600160a01b03166001600160a01b031663bb1f47406040518163ffffffff1660e01b8152600401600060405180830381600087803b15801561073757600080fd5b505af115801561074b573d6000803e3d6000fd5b50505050610757613396565b60008581526101616020526040902080546107745761077461467b565b61015f546040805163714ac0d560e11b815290516000926001600160a01b03169163e29581aa916004808301926020929190829003018186803b1580156107ba57600080fd5b505afa1580156107ce573d6000803e3d6000fd5b505050506040513d601f19601f820116820180604052508101906107f29190614691565b6101605460405163f0a9e52760e01b8152600481018a90526000602482018190529293506001600160a01b0384169063f0a9e5279060440160206040518083038186803b15801561084257600080fd5b505afa158015610856573d6000803e3d6000fd5b505050506040513d601f19601f8201168201806040525081019061087a91906146ae565b61088491906146dd565b90508087846004015461089791906146fc565b10156108d85760405162461bcd60e51b815260206004820152601060248201526f6e6f7420656e6f756768207374616b6560801b60448201526064016106b1565b60048301805490889060006108ed83856146fc565b909155505061015f54604080516321df0da760e01b815290516001600160a01b03909216916321df0da791600480820192602092909190829003018186803b15801561093857600080fd5b505afa15801561094c573d6000803e3d6000fd5b505050506040513d601f19601f820116820180604052508101906109709190614691565b61015f546040516323b872dd60e01b81526001600160a01b03928316926323b872dd926109a6929116908b908d90600401614713565b602060405180830381600087803b1580156109c057600080fd5b505af11580156109d4573d6000803e3d6000fd5b505050506040513d601f19601f820116820180604052508101906109f89190614747565b50887fff347b3ef13668fb2b608008fa7144e3a786de63377f6eb766ab91cf1ab9fe99828660040154604051610a38929190918252602082015260400190565b60405180910390a2505050505050610a50600160c955565b505050565b6000610a626101626133e3565b905090565b6000610a7381336125d6565b610a8f5760405162461bcd60e51b81526004016106b190614764565b61015f60009054906101000a90046001600160a01b03166001600160a01b031663bb1f47406040518163ffffffff1660e01b8152600401600060405180830381600087803b158015610ae057600080fd5b505af1158015610af4573d6000803e3d6000fd5b50505050610b00613396565b6001600160a01b038616610b435760405162461bcd60e51b815260206004820152600a6024820152693d32b9379037bbb732b960b11b60448201526064016106b1565b83610b7d5760405162461bcd60e51b815260206004820152600a602482015269656d707479206e616d6560b01b60448201526064016106b1565b610100841115610bbf5760405162461bcd60e51b815260206004820152600d60248201526c6e616d6520746f6f206c6f6e6760981b60448201526064016106b1565b610100821115610c025760405162461bcd60e51b815260206004820152600e60248201526d656d61696c20746f6f206c6f6e6760901b60448201526064016106b1565b61015f60009054906101000a90046001600160a01b03166001600160a01b03166379a6a3a56040518163ffffffff1660e01b8152600401602060405180830381600087803b158015610c5357600080fd5b505af1158015610c67573d6000803e3d6000fd5b505050506040513d601f19601f82011682018060405250810190610c8b91906146ae565b604051602001610c9d91815260200190565b6040516020818303038152906040528051906020012090506040518060c00160405280828152602001876001600160a01b0316815260200186868080601f016020809104026020016040519081016040528093929190818152602001838380828437600092019190915250505090825250604080516020601f87018190048102820181019092528581529181019190869086908190840183828082843760009201829052509385525050506020808301829052604092830182905284825261016181529082902083518155838201516001820180546001600160a01b0319166001600160a01b03909216919091179055918301518051610da39260028501920190613e7b565b5060608201518051610dbf916003840191602090910190613e7b565b506080820151600482015560a090910151600590910155610de2610162826133ed565b610dee57610dee61467b565b856001600160a01b0316817fb69d73b1d17f5aeee20a448e7c6b20e50bff49b8b42a4cd1c7bad3ba9151328587878787604051610e2e94939291906147b0565b60405180910390a395945050505050565b6000828152610161602052604090208054839190610e6f5760405162461bcd60e51b81526004016106b19061462b565b610e7a6000336125d6565b80610e91575060018101546001600160a01b031633145b610ed55760405162461bcd60e51b81526020600482015260156024820152743737ba1030b236b4b71037b91037b832b930ba37b960591b60448201526064016106b1565b61015f60009054906101000a90046001600160a01b03166001600160a01b031663bb1f47406040518163ffffffff1660e01b8152600401600060405180830381600087803b158015610f2657600080fd5b505af1158015610f3a573d6000803e3d6000fd5b50505050610f46613396565b6001600160a01b038316610f895760405162461bcd60e51b815260206004820152600a6024820152693d32b9379037bbb732b960b11b60448201526064016106b1565b6000848152610161602052604090208054610fa657610fa661467b565b6001810180546001600160a01b038681166001600160a01b03198316811790935560405191169190829088907fcf0cd5f1c87e8fdf7da54eae19fcf4bc1c7efb862da39f2ec343f964433cf12990600090a4505050505050565b60008281526065602052604090206001015461101b81613400565b610a50838361340a565b6110306000336125d6565b61104c5760405162461bcd60e51b81526004016106b190614764565b61015f60009054906101000a90046001600160a01b03166001600160a01b031663bb1f47406040518163ffffffff1660e01b8152600401600060405180830381600087803b15801561109d57600080fd5b505af11580156110b1573d6000803e3d6000fd5b505050506110bd613396565b600081815261016160209081526040808320815160c0810183528154815260018201546001600160a01b0316938101939093526002810180549192840191611104906147e2565b80601f0160208091040260200160405190810160405280929190818152602001828054611130906147e2565b801561117d5780601f106111525761010080835404028352916020019161117d565b820191906000526020600020905b81548152906001019060200180831161116057829003601f168201915b50505050508152602001600382018054611196906147e2565b80601f01602080910402602001604051908101604052809291908181526020018280546111c2906147e2565b801561120f5780601f106111e45761010080835404028352916020019161120f565b820191906000526020600020905b8154815290600101906020018083116111f257829003601f168201915b505050918352505060048201546020820152600590910154604090910152805190915061124e5760405162461bcd60e51b81526004016106b19061462b565b61015f546040805163714ac0d560e11b815290516000926001600160a01b03169163e29581aa916004808301926020929190829003018186803b15801561129457600080fd5b505afa1580156112a8573d6000803e3d6000fd5b505050506040513d601f19601f820116820180604052508101906112cc9190614691565b60405163f0a9e52760e01b815260048101859052600160248201529091506001600160a01b0382169063f0a9e5279060440160206040518083038186803b15801561131657600080fd5b505afa15801561132a573d6000803e3d6000fd5b505050506040513d601f19601f8201168201806040525081019061134e91906146ae565b156113905760405162461bcd60e51b81526020600482015260126024820152716f70657261746f7220686173206e6f64657360701b60448201526064016106b1565b60405163f0a9e52760e01b815260048101849052600060248201526001600160a01b0382169063f0a9e5279060440160206040518083038186803b1580156113d757600080fd5b505afa1580156113eb573d6000803e3d6000fd5b505050506040513d601f19601f8201168201806040525081019061140f91906146ae565b156114515760405162461bcd60e51b81526020600482015260126024820152716f70657261746f7220686173206e6f64657360701b60448201526064016106b1565b6080820151156114985760405162461bcd60e51b81526020600482015260126024820152716f70657261746f7220686173207374616b6560701b60448201526064016106b1565b60a0820151156114e15760405162461bcd60e51b81526020600482015260146024820152736f70657261746f72206861732062616c616e636560601b60448201526064016106b1565b6000838152610161602052604081208181556001810180546001600160a01b0319169055906115136002830182613eff565b611521600383016000613eff565b5060006004820181905560059091015561153d61016284613490565b6115495761154961467b565b81602001516001600160a01b0316837f47a82ad5da4f4bfefb8f774802d2eee3406e1275298e00871e43b021b6d7a8d58460400151856060015160405161159192919061481d565b60405180910390a3505050565b6001600160a01b038116331461160e5760405162461bcd60e51b815260206004820152602f60248201527f416363657373436f6e74726f6c3a2063616e206f6e6c792072656e6f756e636560448201526e103937b632b9903337b91039b2b63360891b60648201526084016106b1565b611618828261349c565b5050565b306001600160a01b037f00000000000000000000000000000000000000000000000000000000000000001614156116655760405162461bcd60e51b81526004016106b19061484b565b7f00000000000000000000000000000000000000000000000000000000000000006001600160a01b03166116ae600080516020614e8c833981519152546001600160a01b031690565b6001600160a01b0316146116d45760405162461bcd60e51b81526004016106b190614897565b6116dd81613503565b604080516000808252602082019092526116f99183919061352a565b50565b600054610100900460ff161580801561171c5750600054600160ff909116105b806117365750303b158015611736575060005460ff166001145b6117995760405162461bcd60e51b815260206004820152602e60248201527f496e697469616c697a61626c653a20636f6e747261637420697320616c72656160448201526d191e481a5b9a5d1a585b1a5e995960921b60648201526084016106b1565b6000805460ff1916600117905580156117bc576000805461ff0019166101001790555b6117c46136a4565b6117cc6136a4565b6117d46136a4565b6117dc6136a4565b6117e46136cb565b6117ec6136fa565b6117f46136a4565b61015f80546001600160a01b0319166001600160a01b0386161790556101608390558461184f5760405162461bcd60e51b81526020600482015260096024820152686e6f2061646d696e7360b81b60448201526064016106b1565b60005b8581101561190857600087878381811061186e5761186e6148e3565b9050602002016020810190611883919061418f565b6001600160a01b031614156118c75760405162461bcd60e51b815260206004820152600a6024820152693d32b9379030b236b4b760b11b60448201526064016106b1565b6118f860008888848181106118de576118de6148e3565b90506020020160208101906118f3919061418f565b61340a565b611901816148f9565b9050611852565b50811561193f57611927600080516020614ed38339815191523261340a565b61193f600080516020614ed383398151915280613729565b8015611985576000805461ff0019169055604051600181527f7f26b83ff96e1f2b6a682f133852f6798a09c465da95921460cefb38474024989060200160405180910390a15b505050505050565b60008581526101616020526040902080548691906119bd5760405162461bcd60e51b81526004016106b19061462b565b60018101546001600160a01b031633146119e95760405162461bcd60e51b81526004016106b190614655565b61015f60009054906101000a90046001600160a01b03166001600160a01b031663bb1f47406040518163ffffffff1660e01b8152600401600060405180830381600087803b158015611a3a57600080fd5b505af1158015611a4e573d6000803e3d6000fd5b50505050611a5a613396565b84611a945760405162461bcd60e51b815260206004820152600a602482015269656d707479206e616d6560b01b60448201526064016106b1565b610100851115611ad65760405162461bcd60e51b815260206004820152600d60248201526c6e616d6520746f6f206c6f6e6760981b60448201526064016106b1565b610100831115611b195760405162461bcd60e51b815260206004820152600e60248201526d656d61696c20746f6f206c6f6e6760901b60448201526064016106b1565b6000878152610161602052604090208054611b3657611b3661467b565b6000816002018054611b47906147e2565b80601f0160208091040260200160405190810160405280929190818152602001828054611b73906147e2565b8015611bc05780601f10611b9557610100808354040283529160200191611bc0565b820191906000526020600020905b815481529060010190602001808311611ba357829003601f168201915b505050505090506000826003018054611bd8906147e2565b80601f0160208091040260200160405190810160405280929190818152602001828054611c04906147e2565b8015611c515780601f10611c2657610100808354040283529160200191611c51565b820191906000526020600020905b815481529060010190602001808311611c3457829003601f168201915b50939450611c69935050506002850190508a8a613f39565b50611c78600384018888613f39565b50897f42478da6f365394de83444b3d922d94b6aec68bcf0961b9acd1fe05ed84c908a83838c8c8c8c604051611cb396959493929190614914565b60405180910390a250505050505050505050565b611cd26000336125d6565b611cee5760405162461bcd60e51b81526004016106b190614764565b611cf6613774565b565b611d00613396565b6000868152610161602052604090208054611d2d5760405162461bcd60e51b81526004016106b19061462b565b6005810180549087906000611d428385614970565b90915550508215611e425761015f60009054906101000a90046001600160a01b03166001600160a01b0316631bf01e9b6040518163ffffffff1660e01b815260040160206040518083038186803b158015611d9c57600080fd5b505afa158015611db0573d6000803e3d6000fd5b505050506040513d601f19601f82011682018060405250810190611dd49190614691565b6001600160a01b031663d505accf33308a8a8a8a8a6040518863ffffffff1660e01b8152600401611e0b9796959493929190614988565b600060405180830381600087803b158015611e2557600080fd5b505af1158015611e39573d6000803e3d6000fd5b50505050611e98565b85158015611e51575060ff8516155b8015611e5b575083155b611e985760405162461bcd60e51b815260206004820152600e60248201526d1a5b9d985b1a59081c195c9b5a5d60921b60448201526064016106b1565b61015f60009054906101000a90046001600160a01b03166001600160a01b0316631bf01e9b6040518163ffffffff1660e01b815260040160206040518083038186803b158015611ee757600080fd5b505afa158015611efb573d6000803e3d6000fd5b505050506040513d601f19601f82011682018060405250810190611f1f9190614691565b61015f546040516323b872dd60e01b81526001600160a01b03928316926323b872dd92611f56923392909116908c90600401614713565b602060405180830381600087803b158015611f7057600080fd5b505af1158015611f84573d6000803e3d6000fd5b505050506040513d601f19601f82011682018060405250810190611fa89190614747565b50877f785b2848c05c2f0d9bfe93d39a82b1f786de7840ab58adf840e13b98ed158232828460050154604051611fe8929190918252602082015260400190565b60405180910390a25050505050505050565b306001600160a01b037f00000000000000000000000000000000000000000000000000000000000000001614156120435760405162461bcd60e51b81526004016106b19061484b565b7f00000000000000000000000000000000000000000000000000000000000000006001600160a01b031661208c600080516020614e8c833981519152546001600160a01b031690565b6001600160a01b0316146120b25760405162461bcd60e51b81526004016106b190614897565b6120bb82613503565b6116188282600161352a565b6000306001600160a01b037f000000000000000000000000000000000000000000000000000000000000000016146121675760405162461bcd60e51b815260206004820152603860248201527f555550535570677261646561626c653a206d757374206e6f742062652063616c60448201527f6c6564207468726f7567682064656c656761746563616c6c000000000000000060648201526084016106b1565b50600080516020614e8c83398151915290565b61015f60009054906101000a90046001600160a01b03166001600160a01b031663299372686040518163ffffffff1660e01b815260040160206040518083038186803b1580156121c957600080fd5b505afa1580156121dd573d6000803e3d6000fd5b505050506040513d601f19601f820116820180604052508101906122019190614691565b6001600160a01b0316336001600160a01b031614806122b7575061015f60009054906101000a90046001600160a01b03166001600160a01b031663e29581aa6040518163ffffffff1660e01b815260040160206040518083038186803b15801561226a57600080fd5b505afa15801561227e573d6000803e3d6000fd5b505050506040513d601f19601f820116820180604052508101906122a29190614691565b6001600160a01b0316336001600160a01b0316145b80612359575061015f60009054906101000a90046001600160a01b03166001600160a01b031663dcc601286040518163ffffffff1660e01b815260040160206040518083038186803b15801561230c57600080fd5b505afa158015612320573d6000803e3d6000fd5b505050506040513d601f19601f820116820180604052508101906123449190614691565b6001600160a01b0316336001600160a01b0316145b806123fb575061015f60009054906101000a90046001600160a01b03166001600160a01b0316639c200b886040518163ffffffff1660e01b815260040160206040518083038186803b1580156123ae57600080fd5b505afa1580156123c2573d6000803e3d6000fd5b505050506040513d601f19601f820116820180604052508101906123e69190614691565b6001600160a01b0316336001600160a01b0316145b6124325760405162461bcd60e51b81526020600482015260086024820152671b9bdd081a5b5c1b60c21b60448201526064016106b1565b61243a613396565b60008381526101616020526040902080546124675760405162461bcd60e51b81526004016106b19061462b565b8281600501600082825461247b91906146fc565b92505081905550818160050160008282546124969190614970565b909155505050505050565b6124ac6000336125d6565b6124c85760405162461bcd60e51b81526004016106b190614764565b611cf66137c6565b6124db6000336125d6565b6124f75760405162461bcd60e51b81526004016106b190614764565b8161252f5760405162461bcd60e51b81526020600482015260086024820152671e995c9bc81b5d5b60c21b60448201526064016106b1565b600061253c6101626133e3565b9050600061256185878411612552576000613803565b61255c88856146fc565b613803565b905060005b818110156125cd5760006101618161258a612581858c614970565b61016290613819565b81526020019081526020016000209050848682600501546125ab91906146dd565b6125b591906149c9565b600590910155806125c5816148f9565b915050612566565b50505050505050565b60009182526065602090815260408084206001600160a01b0393909316845291905290205460ff1690565b61260961333c565b60008381526101616020526040902080548491906126395760405162461bcd60e51b81526004016106b19061462b565b60018101546001600160a01b031633146126655760405162461bcd60e51b81526004016106b190614655565b61015f60009054906101000a90046001600160a01b03166001600160a01b031663bb1f47406040518163ffffffff1660e01b8152600401600060405180830381600087803b1580156126b657600080fd5b505af11580156126ca573d6000803e3d6000fd5b505050506126d6613396565b60008581526101616020526040902080546126f3576126f361467b565b848160050154101561273c5760405162461bcd60e51b81526020600482015260126024820152716e6f7420656e6f7567682062616c616e636560701b60448201526064016106b1565b600581018054908690600061275183856146fc565b909155505061015f5460408051631bf01e9b60e01b815290516001600160a01b0390921691631bf01e9b91600480820192602092909190829003018186803b15801561279c57600080fd5b505afa1580156127b0573d6000803e3d6000fd5b505050506040513d601f19601f820116820180604052508101906127d49190614691565b61015f546040516323b872dd60e01b81526001600160a01b03928316926323b872dd9261280a9291169089908b90600401614713565b602060405180830381600087803b15801561282457600080fd5b505af1158015612838573d6000803e3d6000fd5b505050506040513d601f19601f8201168201806040525081019061285c9190614747565b50867f785b2848c05c2f0d9bfe93d39a82b1f786de7840ab58adf840e13b98ed15823282846005015460405161289c929190918252602082015260400190565b60405180910390a250505050610a50600160c955565b6128ba613fad565b60008281526101616020526040902080546128e75760405162461bcd60e51b81526004016106b19061462b565b6040805160c0810182528254815260018301546001600160a01b03166020820152600283018054919284929084019190612920906147e2565b80601f016020809104026020016040519081016040528092919081815260200182805461294c906147e2565b80156129995780601f1061296e57610100808354040283529160200191612999565b820191906000526020600020905b81548152906001019060200180831161297c57829003601f168201915b505050505081526020016003820180546129b2906147e2565b80601f01602080910402602001604051908101604052809291908181526020018280546129de906147e2565b8015612a2b5780601f10612a0057610100808354040283529160200191612a2b565b820191906000526020600020905b815481529060010190602001808311612a0e57829003601f168201915b5050505050815260200160048201548152602001600582015481525050915050919050565b612a5b6000336125d6565b612a775760405162461bcd60e51b81526004016106b190614764565b61015f80546001600160a01b0319166001600160a01b0392909216919091179055565b612aa2613396565b6000868152610161602052604090208054612acf5760405162461bcd60e51b81526004016106b19061462b565b6004810180549087906000612ae48385614970565b90915550508215612be45761015f60009054906101000a90046001600160a01b03166001600160a01b03166321df0da76040518163ffffffff1660e01b815260040160206040518083038186803b158015612b3e57600080fd5b505afa158015612b52573d6000803e3d6000fd5b505050506040513d601f19601f82011682018060405250810190612b769190614691565b6001600160a01b031663d505accf33308a8a8a8a8a6040518863ffffffff1660e01b8152600401612bad9796959493929190614988565b600060405180830381600087803b158015612bc757600080fd5b505af1158015612bdb573d6000803e3d6000fd5b50505050612c3a565b85158015612bf3575060ff8516155b8015612bfd575083155b612c3a5760405162461bcd60e51b815260206004820152600e60248201526d1a5b9d985b1a59081c195c9b5a5d60921b60448201526064016106b1565b61015f60009054906101000a90046001600160a01b03166001600160a01b03166321df0da76040518163ffffffff1660e01b815260040160206040518083038186803b158015612c8957600080fd5b505afa158015612c9d573d6000803e3d6000fd5b505050506040513d601f19601f82011682018060405250810190612cc19190614691565b61015f546040516323b872dd60e01b81526001600160a01b03928316926323b872dd92612cf8923392909116908c90600401614713565b602060405180830381600087803b158015612d1257600080fd5b505af1158015612d26573d6000803e3d6000fd5b505050506040513d601f19601f82011682018060405250810190612d4a9190614747565b50877fff347b3ef13668fb2b608008fa7144e3a786de63377f6eb766ab91cf1ab9fe99828460040154604051611fe8929190918252602082015260400190565b600082815260656020526040902060010154612da581613400565b610a50838361349c565b612dba6000336125d6565b612dd65760405162461bcd60e51b81526004016106b190614764565b61016055565b60606000612deb6101626133e3565b90506000612e0b84868411612e01576000613803565b61255c87856146fc565b9050806001600160401b03811115612e2557612e25614300565b604051908082528060200260200182016040528015612e5e57816020015b612e4b613fad565b815260200190600190039081612e435790505b50925060005b8181101561301e576101616000612e7e612581848a614970565b81526020808201929092526040908101600020815160c0810183528154815260018201546001600160a01b0316938101939093526002810180549192840191612ec6906147e2565b80601f0160208091040260200160405190810160405280929190818152602001828054612ef2906147e2565b8015612f3f5780601f10612f1457610100808354040283529160200191612f3f565b820191906000526020600020905b815481529060010190602001808311612f2257829003601f168201915b50505050508152602001600382018054612f58906147e2565b80601f0160208091040260200160405190810160405280929190818152602001828054612f84906147e2565b8015612fd15780601f10612fa657610100808354040283529160200191612fd1565b820191906000526020600020905b815481529060010190602001808311612fb457829003601f168201915b5050505050815260200160048201548152602001600582015481525050848281518110613000576130006148e3565b60200260200101819052508080613016906148f9565b915050612e64565b50505092915050565b61015f546040805163714ac0d560e11b815290516000926001600160a01b03169163e29581aa916004808301926020929190829003018186803b15801561306d57600080fd5b505afa158015613081573d6000803e3d6000fd5b505050506040513d601f19601f820116820180604052508101906130a59190614691565b604051632864a37f60e11b8152600481018590529091506000906001600160a01b038316906350c946fe9060240160006040518083038186803b1580156130eb57600080fd5b505afa1580156130ff573d6000803e3d6000fd5b505050506040513d6000823e601f3d908101601f191682016040526131279190810190614a9f565b9050806080015161316e5760405162461bcd60e51b81526020600482015260116024820152706e6f7420746f706f6c6f6779206e6f646560781b60448201526064016106b1565b60208082015160009081526101619091526040902080546131915761319161467b565b6001600160a01b0384166131d55760405162461bcd60e51b815260206004820152600b60248201526a3d32b9379039b2b73232b960a91b60448201526064016106b1565b60018101546001600160a01b038581169116146132045760405162461bcd60e51b81526004016106b190614655565b5050505050565b600080516020614ed383398151915261322381613400565b60005b8381101561331757848482818110613240576132406148e3565b90506020028101906132529190614b8b565b6101616000878785818110613269576132696148e3565b905060200281019061327b9190614b8b565b35815260208101919091526040016000206132968282614cf6565b9050506132ca8585838181106132ae576132ae6148e3565b90506020028101906132c09190614b8b565b61016290356133ed565b6133055760405162461bcd60e51b815260206004820152600c60248201526b191d5c1b1a58d85d19481a5960a21b60448201526064016106b1565b8061330f816148f9565b915050613226565b50811561333657613336600080516020614ed38339815191523361349c565b50505050565b600260c954141561338f5760405162461bcd60e51b815260206004820152601f60248201527f5265656e7472616e637947756172643a207265656e7472616e742063616c6c0060448201526064016106b1565b600260c955565b60975460ff1615611cf65760405162461bcd60e51b815260206004820152601060248201526f14185d5cd8589b194e881c185d5cd95960821b60448201526064016106b1565b600160c955565b6000610673825490565b60006133f98383613825565b9392505050565b6116f98133613874565b61341482826125d6565b6116185760008281526065602090815260408083206001600160a01b03851684529091529020805460ff1916600117905561344c3390565b6001600160a01b0316816001600160a01b0316837f2f8788117e7eff1d82e926ec794901d17c78024a50270940304540a733656f0d60405160405180910390a45050565b60006133f983836138cd565b6134a682826125d6565b156116185760008281526065602090815260408083206001600160a01b0385168085529252808320805460ff1916905551339285917ff6391f5c32d9c69d2a47ea670b442974b53935d1edc7fd64eb21e047a839171b9190a45050565b61350e6000336125d6565b6116f95760405162461bcd60e51b81526004016106b190614764565b7f4910fdfa16fed3260ed0e7147f7cc6da11a60208b5b9406d12a635614ffd91435460ff161561355d57610a50836139c0565b826001600160a01b03166352d1902d6040518163ffffffff1660e01b815260040160206040518083038186803b15801561359657600080fd5b505afa9250505080156135c6575060408051601f3d908101601f191682019092526135c3918101906146ae565b60015b6136295760405162461bcd60e51b815260206004820152602e60248201527f45524331393637557067726164653a206e657720696d706c656d656e7461746960448201526d6f6e206973206e6f74205555505360901b60648201526084016106b1565b600080516020614e8c83398151915281146136985760405162461bcd60e51b815260206004820152602960248201527f45524331393637557067726164653a20756e737570706f727465642070726f786044820152681a58589b195555525160ba1b60648201526084016106b1565b50610a50838383613a5c565b600054610100900460ff16611cf65760405162461bcd60e51b81526004016106b190614d79565b600054610100900460ff166136f25760405162461bcd60e51b81526004016106b190614d79565b611cf6613a81565b600054610100900460ff166137215760405162461bcd60e51b81526004016106b190614d79565b611cf6613ab4565b600082815260656020526040808220600101805490849055905190918391839186917fbd79b86ffe0ab8e8776151514217cd7cacd52c909f66475c3af44e129f0b00ff9190a4505050565b61377c613adb565b6097805460ff191690557f5db9ee0a495bf2e6ff9c91a7834c1ba4fdd244a5e8aa4e537bd38aeae4b073aa335b6040516001600160a01b03909116815260200160405180910390a1565b6137ce613396565b6097805460ff191660011790557f62e78cea01bee320cd4e420270b5ea74000d11b0c9f74754ebdbfc544b05a2586137a93390565b600081831061381257816133f9565b5090919050565b60006133f98383613b24565b600081815260018301602052604081205461386c57508154600181810184556000848152602080822090930184905584548482528286019093526040902091909155610673565b506000610673565b61387e82826125d6565b6116185761388b81613b4e565b613896836020613b60565b6040516020016138a7929190614dc4565b60408051601f198184030181529082905262461bcd60e51b82526106b191600401614e39565b600081815260018301602052604081205480156139b65760006138f16001836146fc565b8554909150600090613905906001906146fc565b905081811461396a576000866000018281548110613925576139256148e3565b9060005260206000200154905080876000018481548110613948576139486148e3565b6000918252602080832090910192909255918252600188019052604090208390555b855486908061397b5761397b614e4c565b600190038181906000526020600020016000905590558560010160008681526020019081526020016000206000905560019350505050610673565b6000915050610673565b6001600160a01b0381163b613a2d5760405162461bcd60e51b815260206004820152602d60248201527f455243313936373a206e657720696d706c656d656e746174696f6e206973206e60448201526c1bdd08184818dbdb9d1c9858dd609a1b60648201526084016106b1565b600080516020614e8c83398151915280546001600160a01b0319166001600160a01b0392909216919091179055565b613a6583613cfb565b600082511180613a725750805b15610a50576133368383613d3b565b600054610100900460ff16613aa85760405162461bcd60e51b81526004016106b190614d79565b6097805460ff19169055565b600054610100900460ff166133dc5760405162461bcd60e51b81526004016106b190614d79565b60975460ff16611cf65760405162461bcd60e51b815260206004820152601460248201527314185d5cd8589b194e881b9bdd081c185d5cd95960621b60448201526064016106b1565b6000826000018281548110613b3b57613b3b6148e3565b9060005260206000200154905092915050565b60606106736001600160a01b03831660145b60606000613b6f8360026146dd565b613b7a906002614970565b6001600160401b03811115613b9157613b91614300565b6040519080825280601f01601f191660200182016040528015613bbb576020820181803683370190505b509050600360fc1b81600081518110613bd657613bd66148e3565b60200101906001600160f81b031916908160001a905350600f60fb1b81600181518110613c0557613c056148e3565b60200101906001600160f81b031916908160001a9053506000613c298460026146dd565b613c34906001614970565b90505b6001811115613cac576f181899199a1a9b1b9c1cb0b131b232b360811b85600f1660108110613c6857613c686148e3565b1a60f81b828281518110613c7e57613c7e6148e3565b60200101906001600160f81b031916908160001a90535060049490941c93613ca581614e62565b9050613c37565b5083156133f95760405162461bcd60e51b815260206004820181905260248201527f537472696e67733a20686578206c656e67746820696e73756666696369656e7460448201526064016106b1565b613d04816139c0565b6040516001600160a01b038216907fbc7cd75a20ee27fd9adebab32041f755214dbc6bffa90cc0225b39da2e5c2d3b90600090a250565b60606133f98383604051806060016040528060278152602001614eac602791396060600080856001600160a01b031685604051613d789190614e79565b600060405180830381855af49150503d8060008114613db3576040519150601f19603f3d011682016040523d82523d6000602084013e613db8565b606091505b5091509150613dc986838387613dd3565b9695505050505050565b60608315613e3f578251613e38576001600160a01b0385163b613e385760405162461bcd60e51b815260206004820152601d60248201527f416464726573733a2063616c6c20746f206e6f6e2d636f6e747261637400000060448201526064016106b1565b5081613e49565b613e498383613e51565b949350505050565b815115613e615781518083602001fd5b8060405162461bcd60e51b81526004016106b19190614e39565b828054613e87906147e2565b90600052602060002090601f016020900481019282613ea95760008555613eef565b82601f10613ec257805160ff1916838001178555613eef565b82800160010185558215613eef579182015b82811115613eef578251825591602001919060010190613ed4565b50613efb929150613fef565b5090565b508054613f0b906147e2565b6000825580601f10613f1b575050565b601f0160209004906000526020600020908101906116f99190613fef565b828054613f45906147e2565b90600052602060002090601f016020900481019282613f675760008555613eef565b82601f10613f805782800160ff19823516178555613eef565b82800160010185558215613eef579182015b82811115613eef578235825591602001919060010190613f92565b6040518060c001604052806000801916815260200160006001600160a01b03168152602001606081526020016060815260200160008152602001600081525090565b5b80821115613efb5760008155600101613ff0565b60006020828403121561401657600080fd5b81356001600160e01b0319811681146133f957600080fd5b6001600160a01b03811681146116f957600080fd5b60008060006060848603121561405857600080fd5b833592506020840135915060408401356140718161402e565b809150509250925092565b60008083601f84011261408e57600080fd5b5081356001600160401b038111156140a557600080fd5b6020830191508360208285010111156140bd57600080fd5b9250929050565b6000806000806000606086880312156140dc57600080fd5b85356140e78161402e565b945060208601356001600160401b038082111561410357600080fd5b61410f89838a0161407c565b9096509450604088013591508082111561412857600080fd5b506141358882890161407c565b969995985093965092949392505050565b6000806040838503121561415957600080fd5b82359150602083013561416b8161402e565b809150509250929050565b60006020828403121561418857600080fd5b5035919050565b6000602082840312156141a157600080fd5b81356133f98161402e565b60008083601f8401126141be57600080fd5b5081356001600160401b038111156141d557600080fd5b6020830191508360208260051b85010111156140bd57600080fd5b80151581146116f957600080fd5b60008060008060006080868803121561421657600080fd5b85356001600160401b0381111561422c57600080fd5b614238888289016141ac565b909650945050602086013561424c8161402e565b9250604086013591506060860135614263816141f0565b809150509295509295909350565b60008060008060006060868803121561428957600080fd5b8535945060208601356001600160401b038082111561410357600080fd5b60008060008060008060c087890312156142c057600080fd5b863595506020870135945060408701359350606087013560ff811681146142e657600080fd5b9598949750929560808101359460a0909101359350915050565b634e487b7160e01b600052604160045260246000fd5b60405161010081016001600160401b038111828210171561433957614339614300565b60405290565b604051601f8201601f191681016001600160401b038111828210171561436757614367614300565b604052919050565b60006001600160401b0382111561438857614388614300565b50601f01601f191660200190565b600080604083850312156143a957600080fd5b82356143b48161402e565b915060208301356001600160401b038111156143cf57600080fd5b8301601f810185136143e057600080fd5b80356143f36143ee8261436f565b61433f565b81815286602083850101111561440857600080fd5b816020840160208301376000602083830101528093505050509250929050565b60008060006060848603121561443d57600080fd5b505081359360208301359350604090920135919050565b6000806000806080858703121561446a57600080fd5b5050823594602084013594506040840135936060013592509050565b60005b838110156144a1578181015183820152602001614489565b838111156133365750506000910152565b600081518084526144ca816020860160208601614486565b601f01601f19169290920160200192915050565b8051825260018060a01b0360208201511660208301526000604082015160c0604085015261450f60c08501826144b2565b90506060830151848203606086015261452882826144b2565b9150506080830151608085015260a083015160a08501528091505092915050565b6020815260006133f960208301846144de565b6000806040838503121561456f57600080fd5b50508035926020909101359150565b6000602080830181845280855180835260408601915060408160051b870101925083870160005b828110156145d357603f198886030184526145c18583516144de565b945092850192908501906001016145a5565b5092979650505050505050565b6000806000604084860312156145f557600080fd5b83356001600160401b0381111561460b57600080fd5b614617868287016141ac565b9094509250506020840135614071816141f0565b60208082526010908201526f3ab735b737bbb71037b832b930ba37b960811b604082015260600190565b6020808252600c908201526b3737ba1037b832b930ba37b960a11b604082015260600190565b634e487b7160e01b600052600160045260246000fd5b6000602082840312156146a357600080fd5b81516133f98161402e565b6000602082840312156146c057600080fd5b5051919050565b634e487b7160e01b600052601160045260246000fd5b60008160001904831182151516156146f7576146f76146c7565b500290565b60008282101561470e5761470e6146c7565b500390565b6001600160a01b039384168152919092166020820152604081019190915260600190565b8051614742816141f0565b919050565b60006020828403121561475957600080fd5b81516133f9816141f0565b6020808252600990820152683737ba1030b236b4b760b91b604082015260600190565b81835281816020850137506000828201602090810191909152601f909101601f19169091010190565b6040815260006147c4604083018688614787565b82810360208401526147d7818587614787565b979650505050505050565b600181811c908216806147f657607f821691505b6020821081141561481757634e487b7160e01b600052602260045260246000fd5b50919050565b60408152600061483060408301856144b2565b828103602084015261484281856144b2565b95945050505050565b6020808252602c908201527f46756e6374696f6e206d7573742062652063616c6c6564207468726f7567682060408201526b19195b1959d85d1958d85b1b60a21b606082015260800190565b6020808252602c908201527f46756e6374696f6e206d7573742062652063616c6c6564207468726f7567682060408201526b6163746976652070726f787960a01b606082015260800190565b634e487b7160e01b600052603260045260246000fd5b600060001982141561490d5761490d6146c7565b5060010190565b60808152600061492760808301896144b2565b828103602084015261493981896144b2565b9050828103604084015261494e818789614787565b90508281036060840152614963818587614787565b9998505050505050505050565b60008219821115614983576149836146c7565b500190565b6001600160a01b0397881681529590961660208601526040850193909352606084019190915260ff16608083015260a082015260c081019190915260e00190565b6000826149e657634e487b7160e01b600052601260045260246000fd5b500490565b600082601f8301126149fc57600080fd5b8151614a0a6143ee8261436f565b818152846020838601011115614a1f57600080fd5b613e49826020830160208701614486565b600082601f830112614a4157600080fd5b604051604081018181106001600160401b0382111715614a6357614a63614300565b8060405250806040840185811115614a7a57600080fd5b845b81811015614a94578051835260209283019201614a7c565b509195945050505050565b600060208284031215614ab157600080fd5b81516001600160401b0380821115614ac857600080fd5b908301906101408286031215614add57600080fd5b614ae5614316565b8251815260208301516020820152604083015182811115614b0557600080fd5b614b11878286016149eb565b604083015250606083015182811115614b2957600080fd5b614b35878286016149eb565b606083015250614b4760808401614737565b6080820152614b5860a08401614737565b60a0820152614b6a8660c08501614a30565b60c0820152614b7d866101008501614a30565b60e082015295945050505050565b6000823560be19833603018112614ba157600080fd5b9190910192915050565b6000808335601e19843603018112614bc257600080fd5b8301803591506001600160401b03821115614bdc57600080fd5b6020019150368190038213156140bd57600080fd5b601f821115610a5057600081815260208120601f850160051c81016020861015614c185750805b601f850160051c820191505b8181101561198557828155600101614c24565b6001600160401b03831115614c4e57614c4e614300565b614c6283614c5c83546147e2565b83614bf1565b6000601f841160018114614c965760008515614c7e5750838201355b600019600387901b1c1916600186901b178355613204565b600083815260209020601f19861690835b82811015614cc75786850135825560209485019460019092019101614ca7565b5086821015614ce45760001960f88860031b161c19848701351681555b505060018560011b0183555050505050565b81358155600181016020830135614d0c8161402e565b81546001600160a01b0319166001600160a01b0391909116179055614d346040830183614bab565b614d42818360028601614c37565b5050614d516060830183614bab565b614d5f818360038601614c37565b50506080820135600482015560a082013560058201555050565b6020808252602b908201527f496e697469616c697a61626c653a20636f6e7472616374206973206e6f74206960408201526a6e697469616c697a696e6760a81b606082015260800190565b7f416363657373436f6e74726f6c3a206163636f756e7420000000000000000000815260008351614dfc816017850160208801614486565b7001034b99036b4b9b9b4b733903937b6329607d1b6017918401918201528351614e2d816028840160208801614486565b01602801949350505050565b6020815260006133f960208301846144b2565b634e487b7160e01b600052603160045260246000fd5b600081614e7157614e716146c7565b506000190190565b60008251614ba181846020870161448656fe360894a13ba1a3210667c828492db98dca3e2076cc3735a920a3ca505d382bbc416464726573733a206c6f772d6c6576656c2064656c65676174652063616c6c206661696c65649dd0c3bd9bb5e1c820c362d05d5cb38480246edb10ff416751bc3dcaccab86fea2646970667358221220b81387e7e0d1e1e0359989b5dfdf6be92ae7b312a01b0db483856bf92f92247664736f6c63430008090033",
  "devdoc": {
    "kind": "dev",
    "methods": {
      "createOperator(address,string,string)": {
        "details": "Does not check name or email for validity or uniqueness"
      },
      "depositOperatorBalance(bytes32,uint256,uint256,uint8,bytes32,bytes32)": {
        "details": "Needs either a token allowance from msg.sender, or a gasless approval (v/r/s != 0).CAUTION: To avoid loss of funds, do NOT deposit to this contract by token.transfer()."
      },
      "depositOperatorStake(bytes32,uint256,uint256,uint8,bytes32,bytes32)": {
        "details": "Needs either a token allowance from msg.sender, or a gasless approval (v/r/s != 0).CAUTION: To avoid loss of funds, do NOT deposit to this contract by token.transfer()."
      },
      "getOperator(bytes32)": {
        "details": "Reverts if the id is unknown"
      },
      "getOperators(uint256,uint256)": {
        "details": "Truncates the results if skip or size are out of bounds"
      },
      "getRoleAdmin(bytes32)": {
        "details": "Returns the admin role that controls `role`. See {grantRole} and {revokeRole}. To change a role's admin, use {_setRoleAdmin}."
      },
      "grantRole(bytes32,address)": {
        "details": "Grants `role` to `account`. If `account` had not been already granted `role`, emits a {RoleGranted} event. Requirements: - the caller must have ``role``'s admin role. May emit a {RoleGranted} event."
      },
      "hasRole(bytes32,address)": {
        "details": "Returns `true` if `account` has been granted `role`."
      },
      "initialize(address[],address,uint256,bool)": {
        "details": "Called once to set up the contract. Not called during proxy upgrades.",
        "params": {
          "grantImporterRole": "allows the contract deployer to import initial data into the contract using unsafeImport* functions, which is used for proxy-less upgrades. CAUTION: Once import is finished, the importer role should be explicitly revoked."
        }
      },
      "paused()": {
        "details": "Returns true if the contract is paused, and false otherwise."
      },
      "proxiableUUID()": {
        "details": "Implementation of the ERC1822 {proxiableUUID} function. This returns the storage slot used by the implementation. It is used to validate the implementation's compatibility when performing an upgrade. IMPORTANT: A proxy pointing at a proxiable contract should not be considered proxiable itself, because this risks bricking a proxy that upgrades to it, by delegating to itself until out of gas. Thus it is critical that this function revert if invoked through a proxy. This is guaranteed by the `notDelegated` modifier."
      },
      "renounceRole(bytes32,address)": {
        "details": "Revokes `role` from the calling account. Roles are often managed via {grantRole} and {revokeRole}: this function's purpose is to provide a mechanism for accounts to lose their privileges if they are compromised (such as when a trusted device is misplaced). If the calling account had been revoked `role`, emits a {RoleRevoked} event. Requirements: - the caller must be `account`. May emit a {RoleRevoked} event."
      },
      "revokeRole(bytes32,address)": {
        "details": "Revokes `role` from `account`. If `account` had been granted `role`, emits a {RoleRevoked} event. Requirements: - the caller must have ``role``'s admin role. May emit a {RoleRevoked} event."
      },
      "setOperatorProps(bytes32,string,string)": {
        "details": "Does not check name or email for validity or uniqueness"
      },
      "supportsInterface(bytes4)": {
        "details": "See {IERC165-supportsInterface}."
      },
      "unsafeImportData((bytes32,address,string,string,uint256,uint256)[],bool)": {
        "details": "Allows to import initial contract data. Used for proxy-less upgrades.",
        "params": {
          "revokeImporterRole": "stops further data import by revoking the role. CAUTION: Once import is finished, the role should be explicitly revoked."
        }
      },
      "unsafeSetBalances(uint256,uint256,uint256,uint256)": {
        "details": "Adjusts multiple operators balances relative to their current values.CAUTION: This can break data consistency. Used for proxy-less upgrades."
      },
      "unsafeSetRegistry(address)": {
        "details": "CAUTION: This can break data consistency. Used for proxy-less upgrades."
      },
      "upgradeTo(address)": {
        "custom:oz-upgrades-unsafe-allow-reachable": "delegatecall",
        "details": "Upgrade the implementation of the proxy to `newImplementation`. Calls {_authorizeUpgrade}. Emits an {Upgraded} event."
      },
      "upgradeToAndCall(address,bytes)": {
        "custom:oz-upgrades-unsafe-allow-reachable": "delegatecall",
        "details": "Upgrade the implementation of the proxy to `newImplementation`, and subsequently execute the function call encoded in `data`. Calls {_authorizeUpgrade}. Emits an {Upgraded} event."
      }
    },
    "title": "Entry point for managing network node operators",
    "version": 1
  },
  "userdoc": {
    "kind": "user",
    "methods": {
      "createOperator(address,string,string)": {
        "notice": "Registers a new network operator. Only admin can do this."
      },
      "deleteOperator(bytes32)": {
        "notice": "Unregisters a network operator. Reverts if operator has stake or nodes."
      },
      "depositOperatorBalance(bytes32,uint256,uint256,uint8,bytes32,bytes32)": {
        "notice": "Transfers USDC into the contract and applies them toward given operator balance."
      },
      "depositOperatorStake(bytes32,uint256,uint256,uint8,bytes32,bytes32)": {
        "notice": "Transfers tokens into the contract and applies them toward given operator stake."
      },
      "withdrawOperatorBalance(bytes32,uint256,address)": {
        "notice": "Transfers earned USDC from contract to given recipient."
      },
      "withdrawOperatorStake(bytes32,uint256,address)": {
        "notice": "Transfers stake from contract to given recipient. Reverts if stake is locked."
      }
    },
    "version": 1
  },
  "storageLayout": {
    "storage": [
      {
        "astId": 782,
        "contract": "contracts/EarthfastOperators.sol:EarthfastOperators",
        "label": "_initialized",
        "offset": 0,
        "slot": "0",
        "type": "t_uint8"
      },
      {
        "astId": 785,
        "contract": "contracts/EarthfastOperators.sol:EarthfastOperators",
        "label": "_initializing",
        "offset": 1,
        "slot": "0",
        "type": "t_bool"
      },
      {
        "astId": 1674,
        "contract": "contracts/EarthfastOperators.sol:EarthfastOperators",
        "label": "__gap",
        "offset": 0,
        "slot": "1",
        "type": "t_array(t_uint256)50_storage"
      },
      {
        "astId": 2058,
        "contract": "contracts/EarthfastOperators.sol:EarthfastOperators",
        "label": "__gap",
        "offset": 0,
        "slot": "51",
        "type": "t_array(t_uint256)50_storage"
      },
      {
        "astId": 28,
        "contract": "contracts/EarthfastOperators.sol:EarthfastOperators",
        "label": "_roles",
        "offset": 0,
        "slot": "101",
        "type": "t_mapping(t_bytes32,t_struct(RoleData)23_storage)"
      },
      {
        "astId": 335,
        "contract": "contracts/EarthfastOperators.sol:EarthfastOperators",
        "label": "__gap",
        "offset": 0,
        "slot": "102",
        "type": "t_array(t_uint256)49_storage"
      },
      {
        "astId": 1103,
        "contract": "contracts/EarthfastOperators.sol:EarthfastOperators",
        "label": "_paused",
        "offset": 0,
        "slot": "151",
        "type": "t_bool"
      },
      {
        "astId": 1208,
        "contract": "contracts/EarthfastOperators.sol:EarthfastOperators",
        "label": "__gap",
        "offset": 0,
        "slot": "152",
        "type": "t_array(t_uint256)49_storage"
      },
      {
        "astId": 1224,
        "contract": "contracts/EarthfastOperators.sol:EarthfastOperators",
        "label": "_status",
        "offset": 0,
        "slot": "201",
        "type": "t_uint256"
      },
      {
        "astId": 1293,
        "contract": "contracts/EarthfastOperators.sol:EarthfastOperators",
        "label": "__gap",
        "offset": 0,
        "slot": "202",
        "type": "t_array(t_uint256)49_storage"
      },
      {
        "astId": 764,
        "contract": "contracts/EarthfastOperators.sol:EarthfastOperators",
        "label": "__gap",
        "offset": 0,
        "slot": "251",
        "type": "t_array(t_uint256)50_storage"
      },
      {
        "astId": 1080,
        "contract": "contracts/EarthfastOperators.sol:EarthfastOperators",
        "label": "__gap",
        "offset": 0,
        "slot": "301",
        "type": "t_array(t_uint256)50_storage"
      },
      {
        "astId": 12485,
        "contract": "contracts/EarthfastOperators.sol:EarthfastOperators",
        "label": "_registry",
        "offset": 0,
        "slot": "351",
        "type": "t_contract(EarthfastRegistry)16474"
      },
      {
        "astId": 12487,
        "contract": "contracts/EarthfastOperators.sol:EarthfastOperators",
        "label": "_stakePerNode",
        "offset": 0,
        "slot": "352",
        "type": "t_uint256"
      },
      {
        "astId": 12492,
        "contract": "contracts/EarthfastOperators.sol:EarthfastOperators",
        "label": "_operators",
        "offset": 0,
        "slot": "353",
        "type": "t_mapping(t_bytes32,t_struct(EarthfastOperator)17924_storage)"
      },
      {
        "astId": 12495,
        "contract": "contracts/EarthfastOperators.sol:EarthfastOperators",
        "label": "_operatorIds",
        "offset": 0,
        "slot": "354",
        "type": "t_struct(Bytes32Set)9283_storage"
      },
      {
        "astId": 13926,
        "contract": "contracts/EarthfastOperators.sol:EarthfastOperators",
        "label": "__gap",
        "offset": 0,
        "slot": "356",
        "type": "t_array(t_uint256)10_storage"
      }
    ],
    "types": {
      "t_address": {
        "encoding": "inplace",
        "label": "address",
        "numberOfBytes": "20"
      },
      "t_array(t_bytes32)dyn_storage": {
        "base": "t_bytes32",
        "encoding": "dynamic_array",
        "label": "bytes32[]",
        "numberOfBytes": "32"
      },
      "t_array(t_uint256)10_storage": {
        "base": "t_uint256",
        "encoding": "inplace",
        "label": "uint256[10]",
        "numberOfBytes": "320"
      },
      "t_array(t_uint256)49_storage": {
        "base": "t_uint256",
        "encoding": "inplace",
        "label": "uint256[49]",
        "numberOfBytes": "1568"
      },
      "t_array(t_uint256)50_storage": {
        "base": "t_uint256",
        "encoding": "inplace",
        "label": "uint256[50]",
        "numberOfBytes": "1600"
      },
      "t_bool": {
        "encoding": "inplace",
        "label": "bool",
        "numberOfBytes": "1"
      },
      "t_bytes32": {
        "encoding": "inplace",
        "label": "bytes32",
        "numberOfBytes": "32"
      },
      "t_contract(EarthfastRegistry)16474": {
        "encoding": "inplace",
        "label": "contract EarthfastRegistry",
        "numberOfBytes": "20"
      },
      "t_mapping(t_address,t_bool)": {
        "encoding": "mapping",
        "key": "t_address",
        "label": "mapping(address => bool)",
        "numberOfBytes": "32",
        "value": "t_bool"
      },
      "t_mapping(t_bytes32,t_struct(EarthfastOperator)17924_storage)": {
        "encoding": "mapping",
        "key": "t_bytes32",
        "label": "mapping(bytes32 => struct EarthfastOperator)",
        "numberOfBytes": "32",
        "value": "t_struct(EarthfastOperator)17924_storage"
      },
      "t_mapping(t_bytes32,t_struct(RoleData)23_storage)": {
        "encoding": "mapping",
        "key": "t_bytes32",
        "label": "mapping(bytes32 => struct AccessControlUpgradeable.RoleData)",
        "numberOfBytes": "32",
        "value": "t_struct(RoleData)23_storage"
      },
      "t_mapping(t_bytes32,t_uint256)": {
        "encoding": "mapping",
        "key": "t_bytes32",
        "label": "mapping(bytes32 => uint256)",
        "numberOfBytes": "32",
        "value": "t_uint256"
      },
      "t_string_storage": {
        "encoding": "bytes",
        "label": "string",
        "numberOfBytes": "32"
      },
      "t_struct(Bytes32Set)9283_storage": {
        "encoding": "inplace",
        "label": "struct EnumerableSet.Bytes32Set",
        "members": [
          {
            "astId": 9282,
            "contract": "contracts/EarthfastOperators.sol:EarthfastOperators",
            "label": "_inner",
            "offset": 0,
            "slot": "0",
            "type": "t_struct(Set)9089_storage"
          }
        ],
        "numberOfBytes": "64"
      },
      "t_struct(EarthfastOperator)17924_storage": {
        "encoding": "inplace",
        "label": "struct EarthfastOperator",
        "members": [
          {
            "astId": 17913,
            "contract": "contracts/EarthfastOperators.sol:EarthfastOperators",
            "label": "id",
            "offset": 0,
            "slot": "0",
            "type": "t_bytes32"
          },
          {
            "astId": 17915,
            "contract": "contracts/EarthfastOperators.sol:EarthfastOperators",
            "label": "owner",
            "offset": 0,
            "slot": "1",
            "type": "t_address"
          },
          {
            "astId": 17917,
            "contract": "contracts/EarthfastOperators.sol:EarthfastOperators",
            "label": "name",
            "offset": 0,
            "slot": "2",
            "type": "t_string_storage"
          },
          {
            "astId": 17919,
            "contract": "contracts/EarthfastOperators.sol:EarthfastOperators",
            "label": "email",
            "offset": 0,
            "slot": "3",
            "type": "t_string_storage"
          },
          {
            "astId": 17921,
            "contract": "contracts/EarthfastOperators.sol:EarthfastOperators",
            "label": "stake",
            "offset": 0,
            "slot": "4",
            "type": "t_uint256"
          },
          {
            "astId": 17923,
            "contract": "contracts/EarthfastOperators.sol:EarthfastOperators",
            "label": "balance",
            "offset": 0,
            "slot": "5",
            "type": "t_uint256"
          }
        ],
        "numberOfBytes": "192"
      },
      "t_struct(RoleData)23_storage": {
        "encoding": "inplace",
        "label": "struct AccessControlUpgradeable.RoleData",
        "members": [
          {
            "astId": 20,
            "contract": "contracts/EarthfastOperators.sol:EarthfastOperators",
            "label": "members",
            "offset": 0,
            "slot": "0",
            "type": "t_mapping(t_address,t_bool)"
          },
          {
            "astId": 22,
            "contract": "contracts/EarthfastOperators.sol:EarthfastOperators",
            "label": "adminRole",
            "offset": 0,
            "slot": "1",
            "type": "t_bytes32"
          }
        ],
        "numberOfBytes": "64"
      },
      "t_struct(Set)9089_storage": {
        "encoding": "inplace",
        "label": "struct EnumerableSet.Set",
        "members": [
          {
            "astId": 9084,
            "contract": "contracts/EarthfastOperators.sol:EarthfastOperators",
            "label": "_values",
            "offset": 0,
            "slot": "0",
            "type": "t_array(t_bytes32)dyn_storage"
          },
          {
            "astId": 9088,
            "contract": "contracts/EarthfastOperators.sol:EarthfastOperators",
            "label": "_indexes",
            "offset": 0,
            "slot": "1",
            "type": "t_mapping(t_bytes32,t_uint256)"
          }
        ],
        "numberOfBytes": "64"
      },
      "t_uint256": {
        "encoding": "inplace",
        "label": "uint256",
        "numberOfBytes": "32"
      },
      "t_uint8": {
        "encoding": "inplace",
        "label": "uint8",
        "numberOfBytes": "1"
      }
    }
  }
}