{
  "address": "0x68B1D87F95878fE05B998F19b66F4baba5De1aed",
  "abi": [
    {
      "anonymous": false,
      "inputs": [
        {
          "indexed": false,
          "internalType": "address",
          "name": "previousAdmin",
          "type": "address"
        },
        {
          "indexed": false,
          "internalType": "address",
          "name": "newAdmin",
          "type": "address"
        }
      ],
      "name": "AdminChanged",
      "type": "event"
    },
    {
      "anonymous": false,
      "inputs": [
        {
          "indexed": true,
          "internalType": "address",
          "name": "beacon",
          "type": "address"
        }
      ],
      "name": "BeaconUpgraded",
      "type": "event"
    },
    {
      "anonymous": false,
      "inputs": [
        {
          "indexed": false,
          "internalType": "uint8",
          "name": "version",
          "type": "uint8"
        }
      ],
      "name": "Initialized",
      "type": "event"
    },
    {
      "anonymous": false,
      "inputs": [
        {
          "indexed": false,
          "internalType": "address",
          "name": "account",
          "type": "address"
        }
      ],
      "name": "Paused",
      "type": "event"
    },
    {
      "anonymous": false,
      "inputs": [
        {
          "indexed": true,
          "internalType": "bytes32",
          "name": "nodeId",
          "type": "bytes32"
        },
        {
          "indexed": true,
          "internalType": "bytes32",
          "name": "operatorId",
          "type": "bytes32"
        },
        {
          "indexed": true,
          "internalType": "bytes32",
          "name": "projectId",
          "type": "bytes32"
        },
        {
          "indexed": false,
          "internalType": "uint256",
          "name": "lastPrice",
          "type": "uint256"
        },
        {
          "indexed": false,
          "internalType": "uint256",
          "name": "nextPrice",
          "type": "uint256"
        },
        {
          "components": [
            {
              "internalType": "bool",
              "name": "last",
              "type": "bool"
            },
            {
              "internalType": "bool",
              "name": "next",
              "type": "bool"
            }
          ],
          "indexed": false,
          "internalType": "struct EarthfastSlot",
          "name": "slot",
          "type": "tuple"
        }
      ],
      "name": "ReservationCreated",
      "type": "event"
    },
    {
      "anonymous": false,
      "inputs": [
        {
          "indexed": true,
          "internalType": "bytes32",
          "name": "nodeId",
          "type": "bytes32"
        },
        {
          "indexed": true,
          "internalType": "bytes32",
          "name": "operatorId",
          "type": "bytes32"
        },
        {
          "indexed": true,
          "internalType": "bytes32",
          "name": "projectId",
          "type": "bytes32"
        },
        {
          "indexed": false,
          "internalType": "uint256",
          "name": "lastPrice",
          "type": "uint256"
        },
        {
          "indexed": false,
          "internalType": "uint256",
          "name": "nextPrice",
          "type": "uint256"
        },
        {
          "components": [
            {
              "internalType": "bool",
              "name": "last",
              "type": "bool"
            },
            {
              "internalType": "bool",
              "name": "next",
              "type": "bool"
            }
          ],
          "indexed": false,
          "internalType": "struct EarthfastSlot",
          "name": "slot",
          "type": "tuple"
        }
      ],
      "name": "ReservationDeleted",
      "type": "event"
    },
    {
      "anonymous": false,
      "inputs": [
        {
          "indexed": true,
          "internalType": "bytes32",
          "name": "role",
          "type": "bytes32"
        },
        {
          "indexed": true,
          "internalType": "bytes32",
          "name": "previousAdminRole",
          "type": "bytes32"
        },
        {
          "indexed": true,
          "internalType": "bytes32",
          "name": "newAdminRole",
          "type": "bytes32"
        }
      ],
      "name": "RoleAdminChanged",
      "type": "event"
    },
    {
      "anonymous": false,
      "inputs": [
        {
          "indexed": true,
          "internalType": "bytes32",
          "name": "role",
          "type": "bytes32"
        },
        {
          "indexed": true,
          "internalType": "address",
          "name": "account",
          "type": "address"
        },
        {
          "indexed": true,
          "internalType": "address",
          "name": "sender",
          "type": "address"
        }
      ],
      "name": "RoleGranted",
      "type": "event"
    },
    {
      "anonymous": false,
      "inputs": [
        {
          "indexed": true,
          "internalType": "bytes32",
          "name": "role",
          "type": "bytes32"
        },
        {
          "indexed": true,
          "internalType": "address",
          "name": "account",
          "type": "address"
        },
        {
          "indexed": true,
          "internalType": "address",
          "name": "sender",
          "type": "address"
        }
      ],
      "name": "RoleRevoked",
      "type": "event"
    },
    {
      "anonymous": false,
      "inputs": [
        {
          "indexed": false,
          "internalType": "address",
          "name": "account",
          "type": "address"
        }
      ],
      "name": "Unpaused",
      "type": "event"
    },
    {
      "anonymous": false,
      "inputs": [
        {
          "indexed": true,
          "internalType": "address",
          "name": "implementation",
          "type": "address"
        }
      ],
      "name": "Upgraded",
      "type": "event"
    },
    {
      "inputs": [],
      "name": "DEFAULT_ADMIN_ROLE",
      "outputs": [
        {
          "internalType": "bytes32",
          "name": "",
          "type": "bytes32"
        }
      ],
      "stateMutability": "view",
      "type": "function"
    },
    {
      "inputs": [],
      "name": "IMPORTER_ROLE",
      "outputs": [
        {
          "internalType": "bytes32",
          "name": "",
          "type": "bytes32"
        }
      ],
      "stateMutability": "view",
      "type": "function"
    },
    {
      "inputs": [
        {
          "internalType": "bytes32",
          "name": "projectId",
          "type": "bytes32"
        },
        {
          "internalType": "bytes32[]",
          "name": "nodeIds",
          "type": "bytes32[]"
        },
        {
          "internalType": "uint256[]",
          "name": "maxPrices",
          "type": "uint256[]"
        },
        {
          "components": [
            {
              "internalType": "bool",
              "name": "last",
              "type": "bool"
            },
            {
              "internalType": "bool",
              "name": "next",
              "type": "bool"
            }
          ],
          "internalType": "struct EarthfastSlot",
          "name": "slot",
          "type": "tuple"
        }
      ],
      "name": "createReservations",
      "outputs": [],
      "stateMutability": "nonpayable",
      "type": "function"
    },
    {
      "inputs": [
        {
          "internalType": "contract EarthfastNodes",
          "name": "allNodes",
          "type": "address"
        },
        {
          "internalType": "contract EarthfastProjects",
          "name": "projects",
          "type": "address"
        },
        {
          "internalType": "bytes32",
          "name": "projectId",
          "type": "bytes32"
        },
        {
          "internalType": "bytes32",
          "name": "nodeId",
          "type": "bytes32"
        },
        {
          "components": [
            {
              "internalType": "bool",
              "name": "last",
              "type": "bool"
            },
            {
              "internalType": "bool",
              "name": "next",
              "type": "bool"
            }
          ],
          "internalType": "struct EarthfastSlot",
          "name": "slot",
          "type": "tuple"
        }
      ],
      "name": "deleteReservationImpl",
      "outputs": [],
      "stateMutability": "nonpayable",
      "type": "function"
    },
    {
      "inputs": [
        {
          "internalType": "bytes32",
          "name": "projectId",
          "type": "bytes32"
        },
        {
          "internalType": "bytes32[]",
          "name": "nodeIds",
          "type": "bytes32[]"
        },
        {
          "components": [
            {
              "internalType": "bool",
              "name": "last",
              "type": "bool"
            },
            {
              "internalType": "bool",
              "name": "next",
              "type": "bool"
            }
          ],
          "internalType": "struct EarthfastSlot",
          "name": "slot",
          "type": "tuple"
        }
      ],
      "name": "deleteReservations",
      "outputs": [],
      "stateMutability": "nonpayable",
      "type": "function"
    },
    {
      "inputs": [],
      "name": "getRegistry",
      "outputs": [
        {
          "internalType": "contract EarthfastRegistry",
          "name": "",
          "type": "address"
        }
      ],
      "stateMutability": "view",
      "type": "function"
    },
    {
      "inputs": [
        {
          "internalType": "bytes32",
          "name": "projectId",
          "type": "bytes32"
        }
      ],
      "name": "getReservationCount",
      "outputs": [
        {
          "internalType": "uint256",
          "name": "",
          "type": "uint256"
        }
      ],
      "stateMutability": "view",
      "type": "function"
    },
    {
      "inputs": [
        {
          "internalType": "bytes32",
          "name": "projectId",
          "type": "bytes32"
        },
        {
          "internalType": "uint256",
          "name": "skip",
          "type": "uint256"
        },
        {
          "internalType": "uint256",
          "name": "size",
          "type": "uint256"
        }
      ],
      "name": "getReservations",
      "outputs": [
        {
          "components": [
            {
              "internalType": "bytes32",
              "name": "id",
              "type": "bytes32"
            },
            {
              "internalType": "bytes32",
              "name": "operatorId",
              "type": "bytes32"
            },
            {
              "internalType": "string",
              "name": "host",
              "type": "string"
            },
            {
              "internalType": "string",
              "name": "region",
              "type": "string"
            },
            {
              "internalType": "bool",
              "name": "disabled",
              "type": "bool"
            },
            {
              "internalType": "uint256[2]",
              "name": "prices",
              "type": "uint256[2]"
            },
            {
              "internalType": "bytes32[2]",
              "name": "projectIds",
              "type": "bytes32[2]"
            }
          ],
          "internalType": "struct EarthfastNode[]",
          "name": "result",
          "type": "tuple[]"
        }
      ],
      "stateMutability": "view",
      "type": "function"
    },
    {
      "inputs": [
        {
          "internalType": "bytes32",
          "name": "role",
          "type": "bytes32"
        }
      ],
      "name": "getRoleAdmin",
      "outputs": [
        {
          "internalType": "bytes32",
          "name": "",
          "type": "bytes32"
        }
      ],
      "stateMutability": "view",
      "type": "function"
    },
    {
      "inputs": [
        {
          "internalType": "bytes32",
          "name": "role",
          "type": "bytes32"
        },
        {
          "internalType": "address",
          "name": "account",
          "type": "address"
        }
      ],
      "name": "grantRole",
      "outputs": [],
      "stateMutability": "nonpayable",
      "type": "function"
    },
    {
      "inputs": [
        {
          "internalType": "bytes32",
          "name": "role",
          "type": "bytes32"
        },
        {
          "internalType": "address",
          "name": "account",
          "type": "address"
        }
      ],
      "name": "hasRole",
      "outputs": [
        {
          "internalType": "bool",
          "name": "",
          "type": "bool"
        }
      ],
      "stateMutability": "view",
      "type": "function"
    },
    {
      "inputs": [
        {
          "internalType": "address[]",
          "name": "admins",
          "type": "address[]"
        },
        {
          "internalType": "contract EarthfastRegistry",
          "name": "registry",
          "type": "address"
        },
        {
          "internalType": "bool",
          "name": "grantImporterRole",
          "type": "bool"
        }
      ],
      "name": "initialize",
      "outputs": [],
      "stateMutability": "nonpayable",
      "type": "function"
    },
    {
      "inputs": [],
      "name": "pause",
      "outputs": [],
      "stateMutability": "nonpayable",
      "type": "function"
    },
    {
      "inputs": [],
      "name": "paused",
      "outputs": [
        {
          "internalType": "bool",
          "name": "",
          "type": "bool"
        }
      ],
      "stateMutability": "view",
      "type": "function"
    },
    {
      "inputs": [],
      "name": "proxiableUUID",
      "outputs": [
        {
          "internalType": "bytes32",
          "name": "",
          "type": "bytes32"
        }
      ],
      "stateMutability": "view",
      "type": "function"
    },
    {
      "inputs": [
        {
          "internalType": "bytes32",
          "name": "projectId",
          "type": "bytes32"
        },
        {
          "internalType": "bytes32",
          "name": "nodeId",
          "type": "bytes32"
        }
      ],
      "name": "removeProjectNodeIdImpl",
      "outputs": [
        {
          "internalType": "bool",
          "name": "",
          "type": "bool"
        }
      ],
      "stateMutability": "nonpayable",
      "type": "function"
    },
    {
      "inputs": [
        {
          "internalType": "bytes32",
          "name": "role",
          "type": "bytes32"
        },
        {
          "internalType": "address",
          "name": "account",
          "type": "address"
        }
      ],
      "name": "renounceRole",
      "outputs": [],
      "stateMutability": "nonpayable",
      "type": "function"
    },
    {
      "inputs": [
        {
          "internalType": "bytes32",
          "name": "role",
          "type": "bytes32"
        },
        {
          "internalType": "address",
          "name": "account",
          "type": "address"
        }
      ],
      "name": "revokeRole",
      "outputs": [],
      "stateMutability": "nonpayable",
      "type": "function"
    },
    {
      "inputs": [
        {
          "internalType": "bytes4",
          "name": "interfaceId",
          "type": "bytes4"
        }
      ],
      "name": "supportsInterface",
      "outputs": [
        {
          "internalType": "bool",
          "name": "",
          "type": "bool"
        }
      ],
      "stateMutability": "view",
      "type": "function"
    },
    {
      "inputs": [],
      "name": "unpause",
      "outputs": [],
      "stateMutability": "nonpayable",
      "type": "function"
    },
    {
      "inputs": [
        {
          "components": [
            {
              "internalType": "bytes32",
              "name": "id",
              "type": "bytes32"
            },
            {
              "internalType": "bytes32",
              "name": "operatorId",
              "type": "bytes32"
            },
            {
              "internalType": "string",
              "name": "host",
              "type": "string"
            },
            {
              "internalType": "string",
              "name": "region",
              "type": "string"
            },
            {
              "internalType": "bool",
              "name": "disabled",
              "type": "bool"
            },
            {
              "internalType": "uint256[2]",
              "name": "prices",
              "type": "uint256[2]"
            },
            {
              "internalType": "bytes32[2]",
              "name": "projectIds",
              "type": "bytes32[2]"
            }
          ],
          "internalType": "struct EarthfastNode[]",
          "name": "nodes",
          "type": "tuple[]"
        },
        {
          "internalType": "bool",
          "name": "revokeImporterRole",
          "type": "bool"
        }
      ],
      "name": "unsafeImportData",
      "outputs": [],
      "stateMutability": "nonpayable",
      "type": "function"
    },
    {
      "inputs": [
        {
          "internalType": "contract EarthfastRegistry",
          "name": "registry",
          "type": "address"
        }
      ],
      "name": "unsafeSetRegistry",
      "outputs": [],
      "stateMutability": "nonpayable",
      "type": "function"
    },
    {
      "inputs": [
        {
          "internalType": "address",
          "name": "newImplementation",
          "type": "address"
        }
      ],
      "name": "upgradeTo",
      "outputs": [],
      "stateMutability": "nonpayable",
      "type": "function"
    },
    {
      "inputs": [
        {
          "internalType": "address",
          "name": "newImplementation",
          "type": "address"
        },
        {
          "internalType": "bytes",
          "name": "data",
          "type": "bytes"
        }
      ],
      "name": "upgradeToAndCall",
      "outputs": [],
      "stateMutability": "payable",
      "type": "function"
    }
  ],
  "numDeployments": 1,
  "solcInputHash": "bd734fc5ac02d01254db171a3c771404",
  "bytecode": "0x60a06040523060805234801561001457600080fd5b5060805161404a61004c60003960008181610d1301528181610d5301528181610e2401528181610e640152610ef3015261404a6000f3fe60806040526004361061014b5760003560e01c80636fa2a067116100b65780639cb628be1161006f5780639cb628be146103a7578063a217fddf146103c7578063b9a2adf0146103dc578063d547741f146103fc578063e5000f521461041c578063ff3d93301461043c57600080fd5b80636fa2a067146102f05780637aee1c6b146103125780638456cb59146103325780638d6fafd71461034757806391d148541461036757806392cb9a6c1461038757600080fd5b80633659cfe6116101085780633659cfe6146102525780633f4ba83a146102725780634f1ef2861461028757806352d1902d1461029a5780635ab1bd53146102af5780635c975abb146102d857600080fd5b806301ffc9a7146101505780631e8698bf14610185578063248a9ca3146101b25780632a2d5b2e146101f05780632f2ff15d1461021257806336568abe14610232575b600080fd5b34801561015c57600080fd5b5061017061016b3660046132bc565b61045c565b60405190151581526020015b60405180910390f35b34801561019157600080fd5b506101a56101a03660046132e6565b610493565b60405161017c919061338d565b3480156101be57600080fd5b506101e26101cd366004613479565b60009081526065602052604090206001015490565b60405190815260200161017c565b3480156101fc57600080fd5b5061021061020b3660046135eb565b610690565b005b34801561021e57600080fd5b5061021061022d3660046136d4565b610c60565b34801561023e57600080fd5b5061021061024d3660046136d4565b610c8a565b34801561025e57600080fd5b5061021061026d366004613704565b610d08565b34801561027e57600080fd5b50610210610de8565b610210610295366004613748565b610e19565b3480156102a657600080fd5b506101e2610ee6565b3480156102bb57600080fd5b5061012d546040516001600160a01b03909116815260200161017c565b3480156102e457600080fd5b5060975460ff16610170565b3480156102fc57600080fd5b506101e2600080516020613ff583398151915281565b34801561031e57600080fd5b5061021061032d36600461382e565b610f99565b34801561033e57600080fd5b5061021061121b565b34801561035357600080fd5b50610210610362366004613895565b61124a565b34801561037357600080fd5b506101706103823660046136d4565b6113b8565b34801561039357600080fd5b506102106103a23660046138eb565b6113e3565b3480156103b357600080fd5b506101706103c2366004613947565b61174f565b3480156103d357600080fd5b506101e2600081565b3480156103e857600080fd5b506102106103f7366004613704565b611a48565b34801561040857600080fd5b506102106104173660046136d4565b611a92565b34801561042857600080fd5b506101e2610437366004613479565b611ab7565b34801561044857600080fd5b50610210610457366004613969565b611acf565b60006001600160e01b03198216637965db0b60e01b148061048d57506301ffc9a760e01b6001600160e01b03198316145b92915050565b6060600061012d60009054906101000a90046001600160a01b03166001600160a01b031663e29581aa6040518163ffffffff1660e01b815260040160206040518083038186803b1580156104e657600080fd5b505afa1580156104fa573d6000803e3d6000fd5b505050506040513d601f19601f8201168201806040525081019061051e91906139c0565b600086815261012e6020526040812091925061053982611f41565b9050600061055e8688841161054f576000611f4b565b61055989856139f3565b611f4b565b9050806001600160401b0381111561057857610578613492565b6040519080825280602002602001820160405280156105b157816020015b61059e61324e565b8152602001906001900390816105965790505b50945060005b81811015610684576001600160a01b0385166350c946fe6105e26105db848c613a0a565b8790611f61565b6040518263ffffffff1660e01b815260040161060091815260200190565b60006040518083038186803b15801561061857600080fd5b505afa15801561062c573d6000803e3d6000fd5b505050506040513d6000823e601f3d908101601f191682016040526106549190810190613ac7565b86828151811061066657610666613ba1565b6020026020010181905250808061067c90613bb7565b9150506105b7565b50505050509392505050565b83600061012d60009054906101000a90046001600160a01b03166001600160a01b031663dcc601286040518163ffffffff1660e01b815260040160206040518083038186803b1580156106e257600080fd5b505afa1580156106f6573d6000803e3d6000fd5b505050506040513d601f19601f8201168201806040525081019061071a91906139c0565b6040516325afba4560e11b8152600481018490529091506000906001600160a01b03831690634b5f748a9060240160006040518083038186803b15801561076057600080fd5b505afa158015610774573d6000803e3d6000fd5b505050506040513d6000823e601f3d908101601f1916820160405261079c9190810190613bdd565b905080602001516001600160a01b0316336001600160a01b0316146107fc5760405162461bcd60e51b81526020600482015260116024820152703737ba10383937b532b1ba1037bbb732b960791b60448201526064015b60405180910390fd5b61012d60009054906101000a90046001600160a01b03166001600160a01b031663bb1f47406040518163ffffffff1660e01b8152600401600060405180830381600087803b15801561084d57600080fd5b505af1158015610861573d6000803e3d6000fd5b5050505061086d611f6d565b61087a6020850185613cf3565b8061089057506108906040850160208601613cf3565b6108c65760405162461bcd60e51b81526020600482015260076024820152661b9bc81cdb1bdd60ca1b60448201526064016107f3565b84518651146109095760405162461bcd60e51b815260206004820152600f60248201526e0d8cadccee8d040dad2e6dac2e8c6d608b1b60448201526064016107f3565b61012d546040805163714ac0d560e11b815290516000926001600160a01b03169163e29581aa916004808301926020929190829003018186803b15801561094f57600080fd5b505afa158015610963573d6000803e3d6000fd5b505050506040513d601f19601f8201168201806040525081019061098791906139c0565b9050600061012d60009054906101000a90046001600160a01b03166001600160a01b031663dcc601286040518163ffffffff1660e01b815260040160206040518083038186803b1580156109da57600080fd5b505afa1580156109ee573d6000803e3d6000fd5b505050506040513d601f19601f82011682018060405250810190610a1291906139c0565b9050600061012d60009054906101000a90046001600160a01b03166001600160a01b031663c7d456346040518163ffffffff1660e01b815260040160206040518083038186803b158015610a6557600080fd5b505afa158015610a79573d6000803e3d6000fd5b505050506040513d601f19601f82011682018060405250810190610a9d9190613d10565b905060005b8951811015610b85576000846001600160a01b03166350c946fe8c8481518110610ace57610ace613ba1565b60200260200101516040518263ffffffff1660e01b8152600401610af491815260200190565b60006040518083038186803b158015610b0c57600080fd5b505afa158015610b20573d6000803e3d6000fd5b505050506040513d6000823e601f3d908101601f19168201604052610b489190810190613ac7565b9050610b7285858e84878f8881518110610b6457610b64613ba1565b60200260200101518f611fb3565b5080610b7d81613bb7565b915050610aa2565b506040516325afba4560e11b8152600481018b90526000906001600160a01b03841690634b5f748a9060240160006040518083038186803b158015610bc957600080fd5b505afa158015610bdd573d6000803e3d6000fd5b505050506040513d6000823e601f3d908101601f19168201604052610c059190810190613bdd565b90508060a0015181608001511015610c535760405162461bcd60e51b81526020600482015260116024820152706e6f7420656e6f75676820657363726f7760781b60448201526064016107f3565b5050505050505050505050565b600082815260656020526040902060010154610c7b81612451565b610c85838361245b565b505050565b6001600160a01b0381163314610cfa5760405162461bcd60e51b815260206004820152602f60248201527f416363657373436f6e74726f6c3a2063616e206f6e6c792072656e6f756e636560448201526e103937b632b9903337b91039b2b63360891b60648201526084016107f3565b610d0482826124e1565b5050565b306001600160a01b037f0000000000000000000000000000000000000000000000000000000000000000161415610d515760405162461bcd60e51b81526004016107f390613d29565b7f00000000000000000000000000000000000000000000000000000000000000006001600160a01b0316610d9a600080516020613fae833981519152546001600160a01b031690565b6001600160a01b031614610dc05760405162461bcd60e51b81526004016107f390613d75565b610dc981612548565b60408051600080825260208201909252610de59183919061256f565b50565b610df36000336113b8565b610e0f5760405162461bcd60e51b81526004016107f390613dc1565b610e176126e9565b565b306001600160a01b037f0000000000000000000000000000000000000000000000000000000000000000161415610e625760405162461bcd60e51b81526004016107f390613d29565b7f00000000000000000000000000000000000000000000000000000000000000006001600160a01b0316610eab600080516020613fae833981519152546001600160a01b031690565b6001600160a01b031614610ed15760405162461bcd60e51b81526004016107f390613d75565b610eda82612548565b610d048282600161256f565b6000306001600160a01b037f00000000000000000000000000000000000000000000000000000000000000001614610f865760405162461bcd60e51b815260206004820152603860248201527f555550535570677261646561626c653a206d757374206e6f742062652063616c60448201527f6c6564207468726f7567682064656c656761746563616c6c000000000000000060648201526084016107f3565b50600080516020613fae83398151915290565b600054610100900460ff1615808015610fb95750600054600160ff909116105b80610fd35750303b158015610fd3575060005460ff166001145b6110365760405162461bcd60e51b815260206004820152602e60248201527f496e697469616c697a61626c653a20636f6e747261637420697320616c72656160448201526d191e481a5b9a5d1a585b1a5e995960921b60648201526084016107f3565b6000805460ff191660011790558015611059576000805461ff0019166101001790555b61106161273b565b61106961273b565b61107161273b565b61107961273b565b611081612762565b61108961273b565b61012d80546001600160a01b0319166001600160a01b038516179055836110de5760405162461bcd60e51b81526020600482015260096024820152686e6f2061646d696e7360b81b60448201526064016107f3565b60005b848110156111975760008686838181106110fd576110fd613ba1565b90506020020160208101906111129190613704565b6001600160a01b031614156111565760405162461bcd60e51b815260206004820152600a6024820152693d32b9379030b236b4b760b11b60448201526064016107f3565b611187600087878481811061116d5761116d613ba1565b90506020020160208101906111829190613704565b61245b565b61119081613bb7565b90506110e1565b5081156111ce576111b6600080516020613ff58339815191523261245b565b6111ce600080516020613ff583398151915280612791565b8015611214576000805461ff0019169055604051600181527f7f26b83ff96e1f2b6a682f133852f6798a09c465da95921460cefb38474024989060200160405180910390a15b5050505050565b6112266000336113b8565b6112425760405162461bcd60e51b81526004016107f390613dc1565b610e176127dc565b600080516020613ff583398151915261126281612451565b60005b8381101561139357600085858381811061128157611281613ba1565b90506020028101906112939190613de4565b3590508585838181106112a8576112a8613ba1565b90506020028101906112ba9190613de4565b60e0013515611319576113178161012e60008989878181106112de576112de613ba1565b90506020028101906112f09190613de4565b60e00160005b6020020135815260200190815260200160002061281990919063ffffffff16565b505b85858381811061132b5761132b613ba1565b905060200281019061133d9190613de4565b6101000135156113805761137e8161012e600089898781811061136257611362613ba1565b90506020028101906113749190613de4565b60e00160016112f6565b505b508061138b81613bb7565b915050611265565b5081156113b2576113b2600080516020613ff5833981519152336124e1565b50505050565b60009182526065602090815260408084206001600160a01b0393909316845291905290205460ff1690565b61012d546001600160a01b0316331480611494575061012d60009054906101000a90046001600160a01b03166001600160a01b031663299372686040518163ffffffff1660e01b815260040160206040518083038186803b15801561144757600080fd5b505afa15801561145b573d6000803e3d6000fd5b505050506040513d601f19601f8201168201806040525081019061147f91906139c0565b6001600160a01b0316336001600160a01b0316145b80611536575061012d60009054906101000a90046001600160a01b03166001600160a01b031663e29581aa6040518163ffffffff1660e01b815260040160206040518083038186803b1580156114e957600080fd5b505afa1580156114fd573d6000803e3d6000fd5b505050506040513d601f19601f8201168201806040525081019061152191906139c0565b6001600160a01b0316336001600160a01b0316145b806115d8575061012d60009054906101000a90046001600160a01b03166001600160a01b03166327a099d86040518163ffffffff1660e01b815260040160206040518083038186803b15801561158b57600080fd5b505afa15801561159f573d6000803e3d6000fd5b505050506040513d601f19601f820116820180604052508101906115c391906139c0565b6001600160a01b0316336001600160a01b0316145b8061167a575061012d60009054906101000a90046001600160a01b03166001600160a01b031663dcc601286040518163ffffffff1660e01b815260040160206040518083038186803b15801561162d57600080fd5b505afa158015611641573d6000803e3d6000fd5b505050506040513d601f19601f8201168201806040525081019061166591906139c0565b6001600160a01b0316336001600160a01b0316145b6116b15760405162461bcd60e51b81526020600482015260086024820152671b9bdd081a5b5c1b60c21b60448201526064016107f3565b6116b9611f6d565b604051632864a37f60e11b8152600481018390526000906001600160a01b038716906350c946fe9060240160006040518083038186803b1580156116fc57600080fd5b505afa158015611710573d6000803e3d6000fd5b505050506040513d6000823e601f3d908101601f191682016040526117389190810190613ac7565b90506117478686868486612825565b505050505050565b61012d546000906001600160a01b0316331480611803575061012d60009054906101000a90046001600160a01b03166001600160a01b031663299372686040518163ffffffff1660e01b815260040160206040518083038186803b1580156117b657600080fd5b505afa1580156117ca573d6000803e3d6000fd5b505050506040513d601f19601f820116820180604052508101906117ee91906139c0565b6001600160a01b0316336001600160a01b0316145b806118a5575061012d60009054906101000a90046001600160a01b03166001600160a01b031663e29581aa6040518163ffffffff1660e01b815260040160206040518083038186803b15801561185857600080fd5b505afa15801561186c573d6000803e3d6000fd5b505050506040513d601f19601f8201168201806040525081019061189091906139c0565b6001600160a01b0316336001600160a01b0316145b80611947575061012d60009054906101000a90046001600160a01b03166001600160a01b03166327a099d86040518163ffffffff1660e01b815260040160206040518083038186803b1580156118fa57600080fd5b505afa15801561190e573d6000803e3d6000fd5b505050506040513d601f19601f8201168201806040525081019061193291906139c0565b6001600160a01b0316336001600160a01b0316145b806119e9575061012d60009054906101000a90046001600160a01b03166001600160a01b031663dcc601286040518163ffffffff1660e01b815260040160206040518083038186803b15801561199c57600080fd5b505afa1580156119b0573d6000803e3d6000fd5b505050506040513d601f19601f820116820180604052508101906119d491906139c0565b6001600160a01b0316336001600160a01b0316145b611a205760405162461bcd60e51b81526020600482015260086024820152671b9bdd081a5b5c1b60c21b60448201526064016107f3565b611a28611f6d565b600083815261012e60205260409020611a419083612c13565b9392505050565b611a536000336113b8565b611a6f5760405162461bcd60e51b81526004016107f390613dc1565b61012d80546001600160a01b0319166001600160a01b0392909216919091179055565b600082815260656020526040902060010154611aad81612451565b610c8583836124e1565b600081815261012e6020526040812061048d90611f41565b82600061012d60009054906101000a90046001600160a01b03166001600160a01b031663dcc601286040518163ffffffff1660e01b815260040160206040518083038186803b158015611b2157600080fd5b505afa158015611b35573d6000803e3d6000fd5b505050506040513d601f19601f82011682018060405250810190611b5991906139c0565b6040516325afba4560e11b8152600481018490529091506000906001600160a01b03831690634b5f748a9060240160006040518083038186803b158015611b9f57600080fd5b505afa158015611bb3573d6000803e3d6000fd5b505050506040513d6000823e601f3d908101601f19168201604052611bdb9190810190613bdd565b9050611be86000336113b8565b80611c08575080602001516001600160a01b0316336001600160a01b0316145b611c545760405162461bcd60e51b815260206004820152601a60248201527f6e6f742061646d696e206f722070726f6a656374206f776e657200000000000060448201526064016107f3565b61012d60009054906101000a90046001600160a01b03166001600160a01b031663bb1f47406040518163ffffffff1660e01b8152600401600060405180830381600087803b158015611ca557600080fd5b505af1158015611cb9573d6000803e3d6000fd5b50505050611cc5611f6d565b611cd26020850185613cf3565b80611ce85750611ce86040850160208601613cf3565b611d1e5760405162461bcd60e51b81526020600482015260076024820152661b9bc81cdb1bdd60ca1b60448201526064016107f3565b611d2b6020850185613cf3565b1580611d3d5750611d3d6000336113b8565b611d595760405162461bcd60e51b81526004016107f390613dc1565b61012d546040805163714ac0d560e11b815290516000926001600160a01b03169163e29581aa916004808301926020929190829003018186803b158015611d9f57600080fd5b505afa158015611db3573d6000803e3d6000fd5b505050506040513d601f19601f82011682018060405250810190611dd791906139c0565b9050600061012d60009054906101000a90046001600160a01b03166001600160a01b031663dcc601286040518163ffffffff1660e01b815260040160206040518083038186803b158015611e2a57600080fd5b505afa158015611e3e573d6000803e3d6000fd5b505050506040513d601f19601f82011682018060405250810190611e6291906139c0565b905060005b8751811015611f36576000888281518110611e8457611e84613ba1565b602002602001015190506000846001600160a01b03166350c946fe836040518263ffffffff1660e01b8152600401611ebe91815260200190565b60006040518083038186803b158015611ed657600080fd5b505afa158015611eea573d6000803e3d6000fd5b505050506040513d6000823e601f3d908101601f19168201604052611f129190810190613ac7565b9050611f2185858d848d612825565b50508080611f2e90613bb7565b915050611e67565b505050505050505050565b600061048d825490565b6000818310611f5a5781611a41565b5090919050565b6000611a418383612c1f565b60975460ff1615610e175760405162461bcd60e51b815260206004820152601060248201526f14185d5cd8589b194e881c185d5cd95960821b60448201526064016107f3565b836080015115611ff55760405162461bcd60e51b815260206004820152600d60248201526c1b9bd91948191a5cd8589b1959609a1b60448201526064016107f3565b6000806120056020840184613cf3565b1561226b5760c0860151511561204d5760405162461bcd60e51b815260206004820152600d60248201526c1b9bd919481c995cd95c9d9959609a1b60448201526064016107f3565b60a0860151519150838211156120965760405162461bcd60e51b815260206004820152600e60248201526d0e0e4d2c6ca40dad2e6dac2e8c6d60931b60448201526064016107f3565b61012d5460408051632e51f56b60e01b815290516000926001600160a01b031691632e51f56b916004808301926020929190829003018186803b1580156120dc57600080fd5b505afa1580156120f0573d6000803e3d6000fd5b505050506040513d601f19601f820116820180604052508101906121149190613d10565b61211e8785613e05565b6121289190613e24565b875160405163f2be8ee760e01b8152600481019190915260006024820152604481018a90529091506001600160a01b038b169063f2be8ee790606401600060405180830381600087803b15801561217e57600080fd5b505af1158015612192573d6000803e3d6000fd5b50508851604051631f9fb2bb60e01b8152600481019190915260006024820152604481018490526001600160a01b038d169250631f9fb2bb9150606401600060405180830381600087803b1580156121e957600080fd5b505af11580156121fd573d6000803e3d6000fd5b5050604051636d240eeb60e11b8152600481018b905260006024820152604481018490526001600160a01b038c16925063da481dd69150606401600060405180830381600087803b15801561225157600080fd5b505af1158015612265573d6000803e3d6000fd5b50505050505b61227b6040840160208501613cf3565b156123e55760c086015160200151156122c65760405162461bcd60e51b815260206004820152600d60248201526c1b9bd919481c995cd95c9d9959609a1b60448201526064016107f3565b5060a085015160200151838111156123115760405162461bcd60e51b815260206004820152600e60248201526d0e0e4d2c6ca40dad2e6dac2e8c6d60931b60448201526064016107f3565b855160405163f2be8ee760e01b8152600481019190915260016024820152604481018890526001600160a01b038a169063f2be8ee790606401600060405180830381600087803b15801561236457600080fd5b505af1158015612378573d6000803e3d6000fd5b5050604051636d240eeb60e11b8152600481018a905260006024820152604481018490526001600160a01b038b16925063da481dd69150606401600060405180830381600087803b1580156123cc57600080fd5b505af11580156123e0573d6000803e3d6000fd5b505050505b8551600088815261012e602052604090206123ff91612819565b5086866020015187600001517f0deae0b487e00626eb6a45c225a856d96f7d385690db189a5af957e1a33d14fa85858860405161243e93929190613e46565b60405180910390a4505050505050505050565b610de58133612c49565b61246582826113b8565b610d045760008281526065602090815260408083206001600160a01b03851684529091529020805460ff1916600117905561249d3390565b6001600160a01b0316816001600160a01b0316837f2f8788117e7eff1d82e926ec794901d17c78024a50270940304540a733656f0d60405160405180910390a45050565b6124eb82826113b8565b15610d045760008281526065602090815260408083206001600160a01b0385168085529252808320805460ff1916905551339285917ff6391f5c32d9c69d2a47ea670b442974b53935d1edc7fd64eb21e047a839171b9190a45050565b6125536000336113b8565b610de55760405162461bcd60e51b81526004016107f390613dc1565b7f4910fdfa16fed3260ed0e7147f7cc6da11a60208b5b9406d12a635614ffd91435460ff16156125a257610c8583612ca2565b826001600160a01b03166352d1902d6040518163ffffffff1660e01b815260040160206040518083038186803b1580156125db57600080fd5b505afa92505050801561260b575060408051601f3d908101601f1916820190925261260891810190613d10565b60015b61266e5760405162461bcd60e51b815260206004820152602e60248201527f45524331393637557067726164653a206e657720696d706c656d656e7461746960448201526d6f6e206973206e6f74205555505360901b60648201526084016107f3565b600080516020613fae83398151915281146126dd5760405162461bcd60e51b815260206004820152602960248201527f45524331393637557067726164653a20756e737570706f727465642070726f786044820152681a58589b195555525160ba1b60648201526084016107f3565b50610c85838383612d3e565b6126f1612d63565b6097805460ff191690557f5db9ee0a495bf2e6ff9c91a7834c1ba4fdd244a5e8aa4e537bd38aeae4b073aa335b6040516001600160a01b03909116815260200160405180910390a1565b600054610100900460ff16610e175760405162461bcd60e51b81526004016107f390613e85565b600054610100900460ff166127895760405162461bcd60e51b81526004016107f390613e85565b610e17612dac565b600082815260656020526040808220600101805490849055905190918391839186917fbd79b86ffe0ab8e8776151514217cd7cacd52c909f66475c3af44e129f0b00ff9190a4505050565b6127e4611f6d565b6097805460ff191660011790557f62e78cea01bee320cd4e420270b5ea74000d11b0c9f74754ebdbfc544b05a25861271e3390565b6000611a418383612ddf565b6000806128356020840184613cf3565b15612a0457505060a0820151805160209091015160c08401515185146128915760405162461bcd60e51b81526020600482015260116024820152701b9bd919481b9bdd081c995cd95c9d9959607a1b60448201526064016107f3565b8351604051631f9fb2bb60e01b8152600481019190915260006024820152604481018290526001600160a01b03881690631f9fb2bb90606401600060405180830381600087803b1580156128e457600080fd5b505af11580156128f8573d6000803e3d6000fd5b5050855160405163f2be8ee760e01b8152600481019190915260006024820181905260448201526001600160a01b038a16925063f2be8ee79150606401600060405180830381600087803b15801561294f57600080fd5b505af1158015612963573d6000803e3d6000fd5b5050604051636d240eeb60e11b81526004810188905260248101859052600060448201526001600160a01b038916925063da481dd69150606401600060405180830381600087803b1580156129b757600080fd5b505af11580156129cb573d6000803e3d6000fd5b5050505060c0840151602001518514612a04578351600086815261012e602052604090206129f891612c13565b612a0457612a04613ed0565b612a146040840160208501613cf3565b15612b75575060a083015160209081015160c0850151909101518514612a705760405162461bcd60e51b81526020600482015260116024820152701b9bd919481b9bdd081c995cd95c9d9959607a1b60448201526064016107f3565b835160405163f2be8ee760e01b8152600481019190915260016024820152600060448201526001600160a01b0388169063f2be8ee790606401600060405180830381600087803b158015612ac357600080fd5b505af1158015612ad7573d6000803e3d6000fd5b5050604051636d240eeb60e11b81526004810188905260248101849052600060448201526001600160a01b038916925063da481dd69150606401600060405180830381600087803b158015612b2b57600080fd5b505af1158015612b3f573d6000803e3d6000fd5b5050505060c0840151518514612b75578351600086815261012e60205260409020612b6991612c13565b612b7557612b75613ed0565b612b826020840184613cf3565b8015612b995750612b996040840160208501613cf3565b15612bc4578351600086815261012e60205260409020612bb891612c13565b612bc457612bc4613ed0565b84846020015185600001517f289b74863d2b35ba0f436a180b5ef6bb8879ee0b2afd14609b0a066e1da7bf50858588604051612c0293929190613e46565b60405180910390a450505050505050565b6000611a418383612e2e565b6000826000018281548110612c3657612c36613ba1565b9060005260206000200154905092915050565b612c5382826113b8565b610d0457612c6081612f21565b612c6b836020612f33565b604051602001612c7c929190613ee6565b60408051601f198184030181529082905262461bcd60e51b82526107f391600401613f5b565b6001600160a01b0381163b612d0f5760405162461bcd60e51b815260206004820152602d60248201527f455243313936373a206e657720696d706c656d656e746174696f6e206973206e60448201526c1bdd08184818dbdb9d1c9858dd609a1b60648201526084016107f3565b600080516020613fae83398151915280546001600160a01b0319166001600160a01b0392909216919091179055565b612d47836130ce565b600082511180612d545750805b15610c85576113b2838361310e565b60975460ff16610e175760405162461bcd60e51b815260206004820152601460248201527314185d5cd8589b194e881b9bdd081c185d5cd95960621b60448201526064016107f3565b600054610100900460ff16612dd35760405162461bcd60e51b81526004016107f390613e85565b6097805460ff19169055565b6000818152600183016020526040812054612e265750815460018181018455600084815260208082209093018490558454848252828601909352604090209190915561048d565b50600061048d565b60008181526001830160205260408120548015612f17576000612e526001836139f3565b8554909150600090612e66906001906139f3565b9050818114612ecb576000866000018281548110612e8657612e86613ba1565b9060005260206000200154905080876000018481548110612ea957612ea9613ba1565b6000918252602080832090910192909255918252600188019052604090208390555b8554869080612edc57612edc613f6e565b60019003818190600052602060002001600090559055856001016000868152602001908152602001600020600090556001935050505061048d565b600091505061048d565b606061048d6001600160a01b03831660145b60606000612f42836002613e05565b612f4d906002613a0a565b6001600160401b03811115612f6457612f64613492565b6040519080825280601f01601f191660200182016040528015612f8e576020820181803683370190505b509050600360fc1b81600081518110612fa957612fa9613ba1565b60200101906001600160f81b031916908160001a905350600f60fb1b81600181518110612fd857612fd8613ba1565b60200101906001600160f81b031916908160001a9053506000612ffc846002613e05565b613007906001613a0a565b90505b600181111561307f576f181899199a1a9b1b9c1cb0b131b232b360811b85600f166010811061303b5761303b613ba1565b1a60f81b82828151811061305157613051613ba1565b60200101906001600160f81b031916908160001a90535060049490941c9361307881613f84565b905061300a565b508315611a415760405162461bcd60e51b815260206004820181905260248201527f537472696e67733a20686578206c656e67746820696e73756666696369656e7460448201526064016107f3565b6130d781612ca2565b6040516001600160a01b038216907fbc7cd75a20ee27fd9adebab32041f755214dbc6bffa90cc0225b39da2e5c2d3b90600090a250565b6060611a418383604051806060016040528060278152602001613fce602791396060600080856001600160a01b03168560405161314b9190613f9b565b600060405180830381855af49150503d8060008114613186576040519150601f19603f3d011682016040523d82523d6000602084013e61318b565b606091505b509150915061319c868383876131a6565b9695505050505050565b6060831561321257825161320b576001600160a01b0385163b61320b5760405162461bcd60e51b815260206004820152601d60248201527f416464726573733a2063616c6c20746f206e6f6e2d636f6e747261637400000060448201526064016107f3565b508161321c565b61321c8383613224565b949350505050565b8151156132345781518083602001fd5b8060405162461bcd60e51b81526004016107f39190613f5b565b6040518060e001604052806000801916815260200160008019168152602001606081526020016060815260200160001515815260200161328c61329e565b815260200161329961329e565b905290565b60405180604001604052806002906020820280368337509192915050565b6000602082840312156132ce57600080fd5b81356001600160e01b031981168114611a4157600080fd5b6000806000606084860312156132fb57600080fd5b505081359360208301359350604090920135919050565b60005b8381101561332d578181015183820152602001613315565b838111156113b25750506000910152565b60008151808452613356816020860160208601613312565b601f01601f19169290920160200192915050565b8060005b60028110156113b257815184526020938401939091019060010161336e565b60006020808301818452808551808352604092508286019150828160051b8701018488016000805b8481101561346a57603f198a8503018652825161012081518652898201518a87015288820151818a8801526133ec8288018261333e565b91505060608083015187830382890152613406838261333e565b6080858101511515908a015260a080860151919450890192509050855b60028110156134405781518352918c0191908c0190600101613423565b50505060c0820151915061345760e087018361336a565b96890196945050918701916001016133b5565b50919998505050505050505050565b60006020828403121561348b57600080fd5b5035919050565b634e487b7160e01b600052604160045260246000fd5b60405160e081016001600160401b03811182821017156134ca576134ca613492565b60405290565b60405161012081016001600160401b03811182821017156134ca576134ca613492565b604080519081016001600160401b03811182821017156134ca576134ca613492565b604051601f8201601f191681016001600160401b038111828210171561353d5761353d613492565b604052919050565b60006001600160401b0382111561355e5761355e613492565b5060051b60200190565b600082601f83011261357957600080fd5b8135602061358e61358983613545565b613515565b82815260059290921b840181019181810190868411156135ad57600080fd5b8286015b848110156135c857803583529183019183016135b1565b509695505050505050565b6000604082840312156135e557600080fd5b50919050565b60008060008060a0858703121561360157600080fd5b843593506020808601356001600160401b038082111561362057600080fd5b61362c89838a01613568565b9550604088013591508082111561364257600080fd5b508601601f8101881361365457600080fd5b803561366261358982613545565b81815260059190911b8201830190838101908a83111561368157600080fd5b928401925b8284101561369f57833582529284019290840190613686565b80965050505050506136b486606087016135d3565b905092959194509250565b6001600160a01b0381168114610de557600080fd5b600080604083850312156136e757600080fd5b8235915060208301356136f9816136bf565b809150509250929050565b60006020828403121561371657600080fd5b8135611a41816136bf565b60006001600160401b0382111561373a5761373a613492565b50601f01601f191660200190565b6000806040838503121561375b57600080fd5b8235613766816136bf565b915060208301356001600160401b0381111561378157600080fd5b8301601f8101851361379257600080fd5b80356137a061358982613721565b8181528660208385010111156137b557600080fd5b816020840160208301376000602083830101528093505050509250929050565b60008083601f8401126137e757600080fd5b5081356001600160401b038111156137fe57600080fd5b6020830191508360208260051b850101111561381957600080fd5b9250929050565b8015158114610de557600080fd5b6000806000806060858703121561384457600080fd5b84356001600160401b0381111561385a57600080fd5b613866878288016137d5565b909550935050602085013561387a816136bf565b9150604085013561388a81613820565b939692955090935050565b6000806000604084860312156138aa57600080fd5b83356001600160401b038111156138c057600080fd5b6138cc868287016137d5565b90945092505060208401356138e081613820565b809150509250925092565b600080600080600060c0868803121561390357600080fd5b853561390e816136bf565b9450602086013561391e816136bf565b9350604086013592506060860135915061393b87608088016135d3565b90509295509295909350565b6000806040838503121561395a57600080fd5b50508035926020909101359150565b60008060006080848603121561397e57600080fd5b8335925060208401356001600160401b0381111561399b57600080fd5b6139a786828701613568565b9250506139b785604086016135d3565b90509250925092565b6000602082840312156139d257600080fd5b8151611a41816136bf565b634e487b7160e01b600052601160045260246000fd5b600082821015613a0557613a056139dd565b500390565b60008219821115613a1d57613a1d6139dd565b500190565b600082601f830112613a3357600080fd5b8151613a4161358982613721565b818152846020838601011115613a5657600080fd5b61321c826020830160208701613312565b8051613a7281613820565b919050565b600082601f830112613a8857600080fd5b613a906134f3565b806040840185811115613aa257600080fd5b845b81811015613abc578051845260209384019301613aa4565b509095945050505050565b600060208284031215613ad957600080fd5b81516001600160401b0380821115613af057600080fd5b908301906101208286031215613b0557600080fd5b613b0d6134a8565b8251815260208301516020820152604083015182811115613b2d57600080fd5b613b3987828601613a22565b604083015250606083015182811115613b5157600080fd5b613b5d87828601613a22565b606083015250613b6f60808401613a67565b6080820152613b818660a08501613a77565b60a0820152613b938660e08501613a77565b60c082015295945050505050565b634e487b7160e01b600052603260045260246000fd5b6000600019821415613bcb57613bcb6139dd565b5060010190565b8051613a72816136bf565b600060208284031215613bef57600080fd5b81516001600160401b0380821115613c0657600080fd5b908301906101208286031215613c1b57600080fd5b613c236134d0565b82518152613c3360208401613bd2565b6020820152604083015182811115613c4a57600080fd5b613c5687828601613a22565b604083015250606083015182811115613c6e57600080fd5b613c7a87828601613a22565b6060830152506080830151608082015260a083015160a082015260c083015182811115613ca657600080fd5b613cb287828601613a22565b60c08301525060e083015160e08201526101008084015183811115613cd657600080fd5b613ce288828701613a22565b918301919091525095945050505050565b600060208284031215613d0557600080fd5b8135611a4181613820565b600060208284031215613d2257600080fd5b5051919050565b6020808252602c908201527f46756e6374696f6e206d7573742062652063616c6c6564207468726f7567682060408201526b19195b1959d85d1958d85b1b60a21b606082015260800190565b6020808252602c908201527f46756e6374696f6e206d7573742062652063616c6c6564207468726f7567682060408201526b6163746976652070726f787960a01b606082015260800190565b6020808252600990820152683737ba1030b236b4b760b91b604082015260600190565b6000823561011e19833603018112613dfb57600080fd5b9190910192915050565b6000816000190483118215151615613e1f57613e1f6139dd565b500290565b600082613e4157634e487b7160e01b600052601260045260246000fd5b500490565b83815260208101839052608081018235613e5f81613820565b151560408301526020830135613e7481613820565b801515606084015250949350505050565b6020808252602b908201527f496e697469616c697a61626c653a20636f6e7472616374206973206e6f74206960408201526a6e697469616c697a696e6760a81b606082015260800190565b634e487b7160e01b600052600160045260246000fd5b7f416363657373436f6e74726f6c3a206163636f756e7420000000000000000000815260008351613f1e816017850160208801613312565b7001034b99036b4b9b9b4b733903937b6329607d1b6017918401918201528351613f4f816028840160208801613312565b01602801949350505050565b602081526000611a41602083018461333e565b634e487b7160e01b600052603160045260246000fd5b600081613f9357613f936139dd565b506000190190565b60008251613dfb81846020870161331256fe360894a13ba1a3210667c828492db98dca3e2076cc3735a920a3ca505d382bbc416464726573733a206c6f772d6c6576656c2064656c65676174652063616c6c206661696c65649dd0c3bd9bb5e1c820c362d05d5cb38480246edb10ff416751bc3dcaccab86fea2646970667358221220b97f1209fa28f4f06b2e7dabb23acf08f7265ea45d04bfeb7bea209571077ca564736f6c63430008090033",
  "devdoc": {
    "kind": "dev",
    "methods": {
      "createReservations(bytes32,bytes32[],uint256[],(bool,bool))": {
        "params": {
          "maxPrices": "At what max price to reserve. A safety mechanism in case price changes during this call. Use slot.last to reserve immediately in the current epoch (AKA spot), instead of at the start of next epoch. In this case, the node prices will be prorated, but the project won't be able to immediately release these nodes until next epoch. Use slot.next to auto-renew reservation in the next epoch (required if !slot.last)."
        }
      },
      "getReservations(bytes32,uint256,uint256)": {
        "details": "Truncates the results if skip or size are out of bounds"
      },
      "getRoleAdmin(bytes32)": {
        "details": "Returns the admin role that controls `role`. See {grantRole} and {revokeRole}. To change a role's admin, use {_setRoleAdmin}."
      },
      "grantRole(bytes32,address)": {
        "details": "Grants `role` to `account`. If `account` had not been already granted `role`, emits a {RoleGranted} event. Requirements: - the caller must have ``role``'s admin role. May emit a {RoleGranted} event."
      },
      "hasRole(bytes32,address)": {
        "details": "Returns `true` if `account` has been granted `role`."
      },
      "initialize(address[],address,bool)": {
        "details": "Called once to set up the contract. Not called during proxy upgrades.",
        "params": {
          "grantImporterRole": "allows the contract deployer to import initial data into the contract using unsafeImport* functions, which is used for proxy-less upgrades. CAUTION: Once import is finished, the importer role should be explicitly revoked."
        }
      },
      "paused()": {
        "details": "Returns true if the contract is paused, and false otherwise."
      },
      "proxiableUUID()": {
        "details": "Implementation of the ERC1822 {proxiableUUID} function. This returns the storage slot used by the implementation. It is used to validate the implementation's compatibility when performing an upgrade. IMPORTANT: A proxy pointing at a proxiable contract should not be considered proxiable itself, because this risks bricking a proxy that upgrades to it, by delegating to itself until out of gas. Thus it is critical that this function revert if invoked through a proxy. This is guaranteed by the `notDelegated` modifier."
      },
      "renounceRole(bytes32,address)": {
        "details": "Revokes `role` from the calling account. Roles are often managed via {grantRole} and {revokeRole}: this function's purpose is to provide a mechanism for accounts to lose their privileges if they are compromised (such as when a trusted device is misplaced). If the calling account had been revoked `role`, emits a {RoleRevoked} event. Requirements: - the caller must be `account`. May emit a {RoleRevoked} event."
      },
      "revokeRole(bytes32,address)": {
        "details": "Revokes `role` from `account`. If `account` had been granted `role`, emits a {RoleRevoked} event. Requirements: - the caller must have ``role``'s admin role. May emit a {RoleRevoked} event."
      },
      "supportsInterface(bytes4)": {
        "details": "See {IERC165-supportsInterface}."
      },
      "unsafeImportData((bytes32,bytes32,string,string,bool,uint256[2],bytes32[2])[],bool)": {
        "details": "Allows to import initial contract data. Used for proxy-less upgrades.",
        "params": {
          "revokeImporterRole": "stops further data import by revoking the role. CAUTION: Once import is finished, the role should be explicitly revoked."
        }
      },
      "unsafeSetRegistry(address)": {
        "details": "CAUTION: This can break data consistency. Used for proxy-less upgrades."
      },
      "upgradeTo(address)": {
        "custom:oz-upgrades-unsafe-allow-reachable": "delegatecall",
        "details": "Upgrade the implementation of the proxy to `newImplementation`. Calls {_authorizeUpgrade}. Emits an {Upgraded} event."
      },
      "upgradeToAndCall(address,bytes)": {
        "custom:oz-upgrades-unsafe-allow-reachable": "delegatecall",
        "details": "Upgrade the implementation of the proxy to `newImplementation`, and subsequently execute the function call encoded in `data`. Calls {_authorizeUpgrade}. Emits an {Upgraded} event."
      }
    },
    "title": "Entry point for managing node reservations by projects",
    "version": 1
  },
  "userdoc": {
    "kind": "user",
    "methods": {
      "createReservations(bytes32,bytes32[],uint256[],(bool,bool))": {
        "notice": "Reserves content nodes and locks corresponding escrow amount. Reverts if escrow is insufficient."
      },
      "deleteReservations(bytes32,bytes32[],(bool,bool))": {
        "notice": "Releases content nodes starting from next epoch and unlocks project escrow Project owner can use slot.next to schedule reservation to be deleted in the next epoch. Admin can additionally use slot.last to immediately delete reservation in the current epoch. The latter is an emergency mechanism. As a side effect, the project won't be billed for the node usage in the epoch so far, and the operator won't be credited for providing this node. Moreover, the current epoch price of the released node will be set to its next epoch price, so if there was a price change scheduled by the operator, it will be accelerated to happen in this epoch."
      }
    },
    "version": 1
  },
  "storageLayout": {
    "storage": [
      {
        "astId": 782,
        "contract": "contracts/EarthfastReservations.sol:EarthfastReservations",
        "label": "_initialized",
        "offset": 0,
        "slot": "0",
        "type": "t_uint8"
      },
      {
        "astId": 785,
        "contract": "contracts/EarthfastReservations.sol:EarthfastReservations",
        "label": "_initializing",
        "offset": 1,
        "slot": "0",
        "type": "t_bool"
      },
      {
        "astId": 1674,
        "contract": "contracts/EarthfastReservations.sol:EarthfastReservations",
        "label": "__gap",
        "offset": 0,
        "slot": "1",
        "type": "t_array(t_uint256)50_storage"
      },
      {
        "astId": 2058,
        "contract": "contracts/EarthfastReservations.sol:EarthfastReservations",
        "label": "__gap",
        "offset": 0,
        "slot": "51",
        "type": "t_array(t_uint256)50_storage"
      },
      {
        "astId": 28,
        "contract": "contracts/EarthfastReservations.sol:EarthfastReservations",
        "label": "_roles",
        "offset": 0,
        "slot": "101",
        "type": "t_mapping(t_bytes32,t_struct(RoleData)23_storage)"
      },
      {
        "astId": 335,
        "contract": "contracts/EarthfastReservations.sol:EarthfastReservations",
        "label": "__gap",
        "offset": 0,
        "slot": "102",
        "type": "t_array(t_uint256)49_storage"
      },
      {
        "astId": 1103,
        "contract": "contracts/EarthfastReservations.sol:EarthfastReservations",
        "label": "_paused",
        "offset": 0,
        "slot": "151",
        "type": "t_bool"
      },
      {
        "astId": 1208,
        "contract": "contracts/EarthfastReservations.sol:EarthfastReservations",
        "label": "__gap",
        "offset": 0,
        "slot": "152",
        "type": "t_array(t_uint256)49_storage"
      },
      {
        "astId": 764,
        "contract": "contracts/EarthfastReservations.sol:EarthfastReservations",
        "label": "__gap",
        "offset": 0,
        "slot": "201",
        "type": "t_array(t_uint256)50_storage"
      },
      {
        "astId": 1080,
        "contract": "contracts/EarthfastReservations.sol:EarthfastReservations",
        "label": "__gap",
        "offset": 0,
        "slot": "251",
        "type": "t_array(t_uint256)50_storage"
      },
      {
        "astId": 22704,
        "contract": "contracts/EarthfastReservations.sol:EarthfastReservations",
        "label": "_registry",
        "offset": 0,
        "slot": "301",
        "type": "t_contract(EarthfastRegistry)22674"
      },
      {
        "astId": 22709,
        "contract": "contracts/EarthfastReservations.sol:EarthfastReservations",
        "label": "_projectNodeIds",
        "offset": 0,
        "slot": "302",
        "type": "t_mapping(t_bytes32,t_struct(Bytes32Set)15558_storage)"
      },
      {
        "astId": 23823,
        "contract": "contracts/EarthfastReservations.sol:EarthfastReservations",
        "label": "__gap",
        "offset": 0,
        "slot": "303",
        "type": "t_array(t_uint256)10_storage"
      }
    ],
    "types": {
      "t_address": {
        "encoding": "inplace",
        "label": "address",
        "numberOfBytes": "20"
      },
      "t_array(t_bytes32)dyn_storage": {
        "base": "t_bytes32",
        "encoding": "dynamic_array",
        "label": "bytes32[]",
        "numberOfBytes": "32"
      },
      "t_array(t_uint256)10_storage": {
        "base": "t_uint256",
        "encoding": "inplace",
        "label": "uint256[10]",
        "numberOfBytes": "320"
      },
      "t_array(t_uint256)49_storage": {
        "base": "t_uint256",
        "encoding": "inplace",
        "label": "uint256[49]",
        "numberOfBytes": "1568"
      },
      "t_array(t_uint256)50_storage": {
        "base": "t_uint256",
        "encoding": "inplace",
        "label": "uint256[50]",
        "numberOfBytes": "1600"
      },
      "t_bool": {
        "encoding": "inplace",
        "label": "bool",
        "numberOfBytes": "1"
      },
      "t_bytes32": {
        "encoding": "inplace",
        "label": "bytes32",
        "numberOfBytes": "32"
      },
      "t_contract(EarthfastRegistry)22674": {
        "encoding": "inplace",
        "label": "contract EarthfastRegistry",
        "numberOfBytes": "20"
      },
      "t_mapping(t_address,t_bool)": {
        "encoding": "mapping",
        "key": "t_address",
        "label": "mapping(address => bool)",
        "numberOfBytes": "32",
        "value": "t_bool"
      },
      "t_mapping(t_bytes32,t_struct(Bytes32Set)15558_storage)": {
        "encoding": "mapping",
        "key": "t_bytes32",
        "label": "mapping(bytes32 => struct EnumerableSet.Bytes32Set)",
        "numberOfBytes": "32",
        "value": "t_struct(Bytes32Set)15558_storage"
      },
      "t_mapping(t_bytes32,t_struct(RoleData)23_storage)": {
        "encoding": "mapping",
        "key": "t_bytes32",
        "label": "mapping(bytes32 => struct AccessControlUpgradeable.RoleData)",
        "numberOfBytes": "32",
        "value": "t_struct(RoleData)23_storage"
      },
      "t_mapping(t_bytes32,t_uint256)": {
        "encoding": "mapping",
        "key": "t_bytes32",
        "label": "mapping(bytes32 => uint256)",
        "numberOfBytes": "32",
        "value": "t_uint256"
      },
      "t_struct(Bytes32Set)15558_storage": {
        "encoding": "inplace",
        "label": "struct EnumerableSet.Bytes32Set",
        "members": [
          {
            "astId": 15557,
            "contract": "contracts/EarthfastReservations.sol:EarthfastReservations",
            "label": "_inner",
            "offset": 0,
            "slot": "0",
            "type": "t_struct(Set)15364_storage"
          }
        ],
        "numberOfBytes": "64"
      },
      "t_struct(RoleData)23_storage": {
        "encoding": "inplace",
        "label": "struct AccessControlUpgradeable.RoleData",
        "members": [
          {
            "astId": 20,
            "contract": "contracts/EarthfastReservations.sol:EarthfastReservations",
            "label": "members",
            "offset": 0,
            "slot": "0",
            "type": "t_mapping(t_address,t_bool)"
          },
          {
            "astId": 22,
            "contract": "contracts/EarthfastReservations.sol:EarthfastReservations",
            "label": "adminRole",
            "offset": 0,
            "slot": "1",
            "type": "t_bytes32"
          }
        ],
        "numberOfBytes": "64"
      },
      "t_struct(Set)15364_storage": {
        "encoding": "inplace",
        "label": "struct EnumerableSet.Set",
        "members": [
          {
            "astId": 15359,
            "contract": "contracts/EarthfastReservations.sol:EarthfastReservations",
            "label": "_values",
            "offset": 0,
            "slot": "0",
            "type": "t_array(t_bytes32)dyn_storage"
          },
          {
            "astId": 15363,
            "contract": "contracts/EarthfastReservations.sol:EarthfastReservations",
            "label": "_indexes",
            "offset": 0,
            "slot": "1",
            "type": "t_mapping(t_bytes32,t_uint256)"
          }
        ],
        "numberOfBytes": "64"
      },
      "t_uint256": {
        "encoding": "inplace",
        "label": "uint256",
        "numberOfBytes": "32"
      },
      "t_uint8": {
        "encoding": "inplace",
        "label": "uint8",
        "numberOfBytes": "1"
      }
    }
  }
}